:020000040002F8
:10700000C0490320957402009D740200B57202000D
:10701000A1740200A3740200A57402000000000025
:1070200000000000000000000000000015720200D7
:10703000A97402000000000059720200AD74020041
:107040007D7D0200AF740200458402006D7E020067
:107050007D7E0200AF740200E57A0200AF74020088
:10706000AF740200AF740200AF740200D57D02005D
:10707000AF740200AF740200AF740200AF7402007C
:10708000AF740200057E0200AF740200AF7402000C
:10709000AF740200AF7402003D820200AF740200C0
:1070A000AF740200AF740200AF740200AF7402004C
:1070B000AF740200AF740200000000000000000086
:1070C000AF740200AF740200AF740200AF7402002C
:1070D000AF740200AF740200AF740200AF7402001C
:1070E000AF740200AF740200AF7402000000000031
:1070F00000000000AF740200000000008D7E02005E
:10710000000000000000000000000000000000007F
:10711000000000000000000000000000000000006F
:10712000000000000000000000000000000000005F
:10713000000000000000000000000000000000004F
:10714000000000000000000000000000000000003F
:10715000000000000000000000000000000000002F
:10716000000000000000000000000000000000001F
:10717000000000000000000000000000000000000F
:1071800000000000000000000000000000000000FF
:1071900000000000000000000000000000000000EF
:1071A00000000000000000000000000000000000DF
:1071B00000000000000000000000000000000000CF
:1071C00000000000000000000000000000000000BF
:1071D00000000000000000000000000000000000AF
:1071E000000000000000000000000000000000009F
:1071F000000000000000000000000000000000008F
:10720000DFF80CD000F01EFC004800474DD3020010
:10721000C0490320264B19680868B0E8F04F80F396
:107220000988BFF36F8F4FF0000080F3118870471B
:10723000000000000748006880F3088862B661B665
:10724000BFF34F8FBFF36F8F4FF4F07080F311884F
:1072500000DF000000700200EFF30980BFF36F8FC2
:10726000134B1A681EF0100F08BF20ED108A20E99A
:10727000F04F106008B44FF0400080F31188BFF366
:107280004F8FBFF36F8F0DF01BFA4FF0000080F3AC
:10729000118808BC19680868B0E8F04F1EF0100F9C
:1072A00008BFB0EC108A80F30988BFF36F8F704776
:1072B000E8590020094B1EF0040F1CBFEFF30980B2
:1072C0001847EFF308800649064A884201D89042E1
:1072D00002D88D464FF0000018470000897B02005D
:1072E000C0490320C041032030B450E8012F93B2BD
:1072F000C48923448489A34228BF1B1B0489A34259
:1073000002BFBFF32F8F002007E0C3EA020340E86B
:107310000134002CE9D14FF001000A6030BC704705
:1073200050E8012FC2EA024240E801210029F7D1CA
:10733000704730B450E8022F1FFAA2F3C488A3426A
:1073400002BFBFF32F8F00200DE0C489234484893E
:10735000A34228BF1B1BC2EA034340E80234002CAF
:10736000E8D14FF001000A6030BC704750E8022FAE
:10737000C2EA224240E802210029F7D170470346C1
:1073800053E8022FD988B2EB324F4FF0000017BFFD
:1073900092B241EA014142EA014104E05A68B2EB8B
:1073A000324F08BF012043E80212002AE8D170479B
:1073B00030B4044654E8000F0D4644E80053002B57
:1073C000F8D1156030BC704730B4044654E8000F63
:1073D00040EA010544E80053002BF7D1156030BCAA
:1073E000704730B4044654E8000F00EA010544E851
:1073F0000053002BF7D1156030BC704730B4044601
:1074000054E8000F80EA010544E80053002BF7D14F
:10741000156030BC704730B4044654E8000F00EBF0
:10742000010544E80053002BF7D1156030BC7047CC
:1074300030B4044654E8000FA0EB010544E80053C3
:10744000002BF7D1156030BC704770B404464FF084
:10745000000054E8006F0D68AE4207BF44E8002307
:10746000012044E800630E60002B1CBF0020F0E701
:1074700070BC704730B4044654E8000F88422CBFFB
:10748000451A054644E80053002BF5D1156030BC81
:10749000704700000648804706480047FEE7FEE7C1
:1074A000FEE7FEE7FEE7FEE7FEE7FEE7FEE7FEE7B4
:1074B0007182020001720200202A04DB203A00FAE5
:1074C00002F1002070479140C2F1200320FA03F33B
:1074D0001943904070470000004870475C890300E2
:1074E00010B5431A934209D28318881803E010F8A4
:1074F000011D03F8011D521EF9D210BD40EA01031F
:107500009B0703D009E008C9121F08C0042AFAD259
:1075100003E011F8013B00F8013B521EF9D210BD07
:10752000D2B201E000F8012B491EFBD270470022C5
:10753000F6E710B513460A4604461946FFF7F0FF72
:10754000204610BD421C10F8011B0029FBD1801AF7
:10755000704730B504460020034600E05B1C9342B0
:1075600003D2E05CCD5C401BF8D030BD2DE9FE4F6E
:1075700081EA030404F0004421F0004100944FF03C
:10758000000B23F0004350EA01045ED052EA0304EA
:107590005BD0C3F30A54C1F30A552C44A4F2F3346C
:1075A0000194A0FB0254C1F3130141F48011C3F311
:1075B000130343F4801301FB024400FB034E840ACF
:1075C000970A44EA815447EA8357A4FB0768029567
:1075D0008D0A05FB07854FEA932C04FB0C54270505
:1075E000029D4FEA065847EA1637B5EB08056EEBE1
:1075F000070C870E920E47EA811742EA8312A7FB17
:107600000201B6EB0B0164EB00042B0D43EA0C33D3
:107610005E1844EB1C50DA465146E7FB0201C5F305
:1076200013044FEA0B3343EA14534FEA0432019C2C
:1076300043EA0603A4F10C040294009CCDE900B4D3
:1076400000F06CF803B0BDE8F08F00200146F9E7C8
:1076500030B50B46014600202022012409E021FA22
:1076600002F59D4205D303FA02F5491B04FA02F51F
:107670002844151EA2F10102F1DC30BD2DE9F05FB6
:107680000546002092469B46884606468146402491
:107690001BE0284641464746224600F020F8534664
:1076A0005A46C01A914110D3114618462246FFF798
:1076B00003FF2D1A67EB01084F46224601200021E7
:1076C000FFF7FAFE17EB00094E41201EA4F101045A
:1076D000DFDC484631462A464346BDE8F09F202A73
:1076E00004DB203A21FA02F00021704721FA02F36C
:1076F000D040C2F12002914008431946704710B5AE
:10770000141E73F1000408DA401C41F100019218C4
:107710005B411A4301D120F0010010BD2DE9F04D6D
:1077200092469B4611B1B1FA81F202E0B0FA80F2C2
:1077300020329046FFF7C0FE04460F4640EA0A009A
:1077400041EA0B0153465A46084313D0114653EA07
:10775000010019D0C8F140025046FFF7C0FF0546AE
:107760000E46504659464246FFF7A6FE084305D04E
:10777000012004E020463946BDE8F08D0020054395
:1077800046EAE0762C4337430A986305E40AA0EB07
:1077900008000022FD0A44EA47540A3002D50020BE
:1077A0000146E9E7010510196941DDE908450019BD
:1077B0006941BDE8F04DA2E72DE9FE4F804681EA20
:1077C0000300C00F0C46009021F0004123F000455B
:1077D000B8EB0200A94105D24046214690461C461E
:1077E0000B46024623F00040104347D0270DC7F355
:1077F0000A00C3F30A510290401A019040286BDA44
:10780000C3F3130040F4801B0098924620B100237C
:10781000D2EB030A63EB0B0B01985946C0F140020F
:107820005046FFF749FE06460D4650465946019A16
:1078300000F01AF910EB08006141002487EA1152A8
:1078400084EAE7731A4340D0009A62B3019A012A8E
:107850004FEA075215DC001B61EB02014FF00042BA
:1078600002EA0752CDE90042001C41F58011324680
:107870002B46FFF753FF03B0BDE8F08F404621468B
:10788000F9E7001B61EB0201001C41F580130018B1
:107890005B412018A2F5001747EB030140EAD570C1
:1078A000B6196D4111E06D084FEA360645EAC0751C
:1078B0004FEA0752001B61EB0201001C41F58011E9
:1078C00049084FEA30000019514132462B4603B0B7
:1078D000BDE8F04FFFF713BF0098012240000023DE
:1078E000D0EB020263EBE073009821464FEAE074AC
:1078F000B8EB000061EB0401E9E783F000435BE7CC
:1079000081F0004158E72DE9F04D81EA030404F0CD
:10791000004B21F0004514464FF0000A23F00041CF
:1079200050EA050220D054EA01021DD0C5F30A57DF
:107930000246C5F31303C1F31300C1F30A5640F422
:10794000801543F48013A7EB0608101BD64608F2F7
:10795000FD3873EB050002D308F1010801E092182D
:107960005B41B8F1000F03DA00200146BDE8F08D5D
:1079700000204FF48011064684460EE0171B73EB7F
:10798000050705D3121B63EB050306434CEA010C04
:1079900049084FEA300092185B4150EA0107EDD1E7
:1079A00052EA030012D082EA040083EA0501084388
:1079B00005D0101BAB4106D20122002306E00022B5
:1079C0004FF0004302E06FF0010253101AEB060083
:1079D0004CEB085110EB0A0041EB0B01BDE8F04DF8
:1079E000FFF78DBEC1F30A52C1F3130140F2FF331A
:1079F00041F480119A4202DA00200146704740F2B9
:107A000033439A42A2F2334202DC5242FFF767BE8E
:107A1000FFF752BD30B5041E71F1000404DB4FF0D6
:107A20000044404264EB0101141E73F1000405DBC5
:107A30001C464FF00043524263EB0403994208BFD7
:107A4000904230BD064C074D06E0E06840F001036F
:107A500094E8070098471034AC42F6D3FFF7D4FB04
:107A6000A0A20300C0A20300202A06DBCB17203A05
:107A700041FA02F043EAE07306E041FA02F3D04033
:107A8000C2F12002914008431946704770B58C1826
:107A900010F8015B15F0070301D110F8013B2A1122
:107AA00006D110F8012B03E010F8016B01F8016B0F
:107AB0005B1EF9D12B0705D40023521E0DD401F80B
:107AC000013BFAE710F8013BCB1A921C03E013F8D4
:107AD000015B01F8015B521EF9D5A142D8D3002009
:107AE00070BD00002DE9FC410025DFF89480009571
:107AF0004FF4807601242F460195304606F0B6FEFD
:107B000038B1D8F80403204203D0304606F0A4FE72
:107B10002543361D64007F1CB6B2082FEDD34FF409
:107B2000BE74204606F0A2FE48B1204606F094FE40
:107B300045F000456A460221002006F0B1FD15F02F
:107B4000FF0F16D0012600242E420ED008EB840130
:107B5000D1F81005D1F81015C0F30520094AC1F37A
:107B6000014152F8242002B190477600641C082C91
:107B7000EAD3002D02DA684609F0F6FDBDE8FC8183
:107B800000600040DC3803201CB5814607F01AF97C
:107B900006F052FF0028FBD12D485FEA090507686F
:107BA0002C482D494FF00106A0EB01004FEAD00010
:107BB00006EB004417D0204628A1AA6907F05CF81C
:107BC000D5E90201CDE90001D5E90023204629A12C
:107BD00007F06AF8E8690090D5E90423204633A14C
:107BE00007F059F803E020463AA107F041F8184899
:107BF000001D0068800703D52046434907F038F888
:107C0000DFF80881002500BF06FA05F0384206D0EB
:107C100058F825201AB120463DA107F02DF86D1C1B
:107C20001A2DF1D3380606D509480C3002682046D3
:107C30003AA107F021F8380406D50548103002684B
:107C400020463EA107F018F8484600F085F80000ED
:107C500028ED00E070A30300D0A203004841524485
:107C6000204641554C5420617420307825303858D6
:107C700000000000202052303A2020307825303893
:107C800058202052313A2020307825303858202092
:107C900052323A2020307825303858202052333A5A
:107CA0002020307825303858000000002020523144
:107CB000323A2030782530385820204C523A202053
:107CC00030782530385820205053523A20307825CB
:107CD00030385800537461636B2076696F6C61743F
:107CE000696F6E3A20737461636B20706F696E7494
:107CF0006572206F75747369646520737461636B5A
:107D000020617265612E000054980300B85B00206A
:107D100043617573653A2025732E00004D656D4DE6
:107D2000616E616765204661756C742041646472A0
:107D30006573733A203078253038580042757320C7
:107D40004661756C7420416464726573733A2030C7
:107D50007825303858000000BFF34F8F0548016880
:107D6000054A01F4E06111430160BFF34F8F00BF8A
:107D7000FDE700000CED00E00400FA0570B54FF4DB
:107D80008076304605F098FF114CB50560B130465D
:107D900005F099FF0120C5F80803607920B901209A
:107DA00060712168002088474FF48276304605F0E4
:107DB00083FF00280AD0304605F085FF0220C5F871
:107DC00008032168BDE870400120084770BD00002D
:107DD0005C5B00200948D0F8401100290DD000213B
:107DE000C0F840110121816005488268C1691144D1
:107DF000C161C068002800D00047704700B0004053
:107E0000A85C00202DE9F041164E4FF4A0713046D9
:107E100007F0C5F80025EFF31184402080F31188A6
:107E2000D6F804758100304607F0B9F80DF0F2F885
:107E3000381A20F07F46012E07D90DF0DDF8022810
:107E400003D000260DF0F2F80543761EFAD225B1D4
:107E500005494FF08050086040BFE0B280F31188C0
:107E6000BDE8F0810010014004ED00E00149024846
:107E700004F0FABFD43903200030004002494FF02B
:107E800040200BF07FBC00009839032001490248D4
:107E900004F0EABFF839032000F0024010B50446B0
:107EA0003A2000F043F904F07700BDE8104000F0FC
:107EB00057B908B1292000E0282000F037B907B5EC
:107EC000F0280DD200290BDBF02909DACBB2C2B2BF
:107ED000C9B2C0B200F06AF9012102A800F002F9AB
:107EE0000EBD00001FB50446EF2300211A460846C8
:107EF00000F05CF94FF461412046FFF718FB084A97
:107F000001AB07CA009483E80700002269460548D0
:107F100007F09EFC00226946024807F099FC1FBD4D
:107F2000CC880300CC5C00202DE9FF470E4680463C
:107F3000EF2300211A46084600F038F94FF4E137E4
:107F400000254FF6FE79781B4C46A04200D204462D
:107F5000002001940DE000BF00EB550118F811203E
:107F600006F8102038F8111006EB4002090A51708B
:107F7000401CB0EB540FEFD300230422694606489F
:107F8000009607F099FC08B101F0D4F82544BD42F1
:107F9000D9D3BDE8FF870000CC5C002070B51C463B
:107FA0001546F02822DAF02920DA4219F02A02DDFB
:107FB000C0F1F00215B20A19F02A02DDC1F1F00297
:107FC00014B20A19521ED3B24219521ED2B2C9B209
:107FD000C0B200F0EBF8002614FB05F404E0012128
:107FE00004A800F07FF8761CB442F8D870BD08B53C
:107FF000F023002100901A460846FFF7CFFF08BD86
:1080000010B5142006F06EFB0A2005F075FE142052
:1080100006F005FCBDE81040962005F06DBE10B5D9
:10802000642005F069FEFFF7EBFF00F0FEF800208A
:1080300000F0EEF85520FFF731FF0A2005F05CFE56
:10804000012200231146042000F01DF80A2005F04B
:1080500053FE012000F011F80A2005F04DFE00202B
:10806000FFF7C5FF0D2006F0DAFB0120FFF721FF27
:10807000BDE81040642005F03FBE08B1212000E0BB
:10808000202000F053B82DE9F04100F00705984694
:1080900016460F46362000F049F8082D14D2DFE8C6
:1080A00005F00406080A0C0E101200240CE040240F
:1080B0000AE0802408E0C02406E0202404E06024D4
:1080C00002E0A02400E0E02407B1102406B104245B
:1080D000B8F1000F01D044F008042046BDE8F0419B
:1080E00000F03EB8F0B585B00C46054604AE0D4F25
:1080F00012E028788DF81000288801AB000A8DF86E
:10810000110007F12C0007C8009683E80700002241
:108110006946054807F09CFB641EA4B2E9D205B08D
:10812000F0BD000090880300CC5C002001B584B055
:108130002B2006F0D7FA084A01AB07CA83E80700EC
:1081400004A8009000226946044807F081FB2B2018
:1081500006F065FB05B000BD9C880300CC5C0020E8
:1081600001B5074A84B001AB07CA83E8070004A839
:10817000009000226946034807F06AFB05B000BD85
:10818000AC880300CC5C002010B50749D0E9003072
:10819000C1E90130107808702B2006F05CFABDE8C8
:1081A0001040142006F057BAC85C00202DE9F041B9
:1081B00014461F460D460646A04210D8F02C0ED895
:1081C0002A20FFF7B3FF300AFFF7CAFF3046FFF758
:1081D000C7FF200AFFF7C4FF2046FFF7C1FF3C4658
:1081E000A54210D8F02C0ED82B20FFF79FFF280AAD
:1081F000FFF7B6FF2846FFF7B3FF200AFFF7B0FFEF
:108200002046FFF7ADFFBDE8F0412C20FFF78EBF01
:1082100010B508B1102000E01120FFF787FFBDE87E
:1082200010404FF4FA7005F067BD10B50120FFF75C
:108230007DFFBDE81040822005F05EBD08B500203E
:1082400000900948694600680CF010F90098002871
:1082500008D006494FF08050086040BFBFF34F8FF1
:10826000BFF36F8F08BD0000A05C002004ED00E0AC
:1082700070B54FF080520124D2E94C100023082938
:1082800006D1CD06C5F80C31C5F810315E4D2B6016
:10829000082955D15D4D2D685D4E35605B4D2D1D16
:1082A0002D68361D3560594D08352D68361D3560F1
:1082B000564D0C352D68361D3560544D10352D68E2
:1082C000361D3560514D14352D68361D35604F4DC6
:1082D00018352D684E4E203635604C4D1C352D68B6
:1082E000361D3560494D20352D68361D3560474DAA
:1082F00024352D68361D3560444D28352D68361DD2
:108300003560424D2C352D68361D35603F4D30357A
:108310002D683F4E403635603C4D34352D68361D56
:1083200035603A4D38352D68361D3560374D3C3552
:108330002D68361D3560354D40352D68361D35604C
:10834000082904D1050002D1334E324D3560082989
:1083500004D1050002D1314EFB253560082908D132
:10836000050006D192F858622D4A156866F3030598
:108370001560082904D1020002D12A4D8A012A6021
:10838000082906D128480168C90702D06FF0010109
:1083900001602648016841F470010160BFF34F8F0E
:1083A000BFF36F8F4FF01021D1F80002002803DBDC
:1083B000D1F80402002822DA1D4A14601D4804681E
:1083C000002CFCD01224C1F800420568002DFCD01E
:1083D000C1F8044201680029FCD01360016800293B
:1083E000FCD0BFF34F8F11487C380168124A01F46A
:1083F000E06111430160BFF34F8F00BFFDE71049FB
:108400000E48086070BD00003805004004040010EC
:1084100020C50040488103008C56004018F50040FC
:10842000E40E0040409602400004004088ED00E069
:1084300004E5014000E401400400FA050090D00387
:10844000D45C00200148006800470000645B002005
:108450007CB5044600201D46164600290BD0491E57
:10846000CDE90041044B6A462946304600F088F9C0
:10847000009A002111707CBDAF8E020002E008C896
:10848000121F08C1002AFAD170477047002001E08E
:1084900001C1121F002AFBD17047000001212028D2
:1084A00003DA81400548014003E0402802DA203821
:1084B000814009B10120704700207047FC06FFBDD4
:1084C0002DE9F843804643F2020659B9694608F09F
:1084D00039FBB04202D008B100F02CFE9DF800003C
:1084E000800744D40021404608F036FB05003ED00A
:1084F000112D3CD01F482049401AC708022000EB2C
:1085000007440D2D0AD00B2D1DD0B5421FD11B499C
:1085100020464246BDE8F84306F0AEBB2046424640
:10852000174906F0A9FB1321404676DF00281ED02C
:1085300006F0E8FE024601B020464346BDE8F0439F
:1085400010A106F0A0BB204642461C49E2E728469F
:1085500006F0D8FE0246012000EB0740434618A172
:1085600006F091FB2846BDE8F84300F0E3BDBDE806
:10857000F883000008A30300D0A20300E0900300EA
:108580006C90030073645F626C655F6761705F6429
:108590006973636F6E6E65637428292072657475E4
:1085A000726E6564202573206F6E20636F6E6E5F40
:1085B00068616E646C652025642E00002C910300B8
:1085C000417373657274696E672E20706D5F636F9F
:1085D0006E6E5F73656375726528292072657475A8
:1085E000726E6564202573206F6E20636F6E6E5F00
:1085F00068616E646C652025642E00002DE9FF5FC4
:1086000082B00021DDE90430020DDDF840B0034303
:1086100018D044F61050A2F2FF32424315141198BC
:1086200001281FD0A5EB0B00401C5FEA000A4FF0A9
:1086300000064E4FDFF83891B046504615D5CAF1C6
:10864000000413E0119801244AA3012801D16FEA24
:108650000B010298119AC0E90031C0E9024206B04C
:10866000BDE8F09FCBF10000DFE704460021404A5F
:10867000491842EB0450CDE9001012E0E00707D0A2
:1086800032463B4640464946FEF770FF80468946E3
:1086900032463B4610461946FEF768FF06460F462F
:1086A0006410002CEAD1DDE90401DDE90023BAF110
:1086B000000F06DAFEF75AFF42464B46FEF756FF1A
:1086C00005E0FFF720F942464B46FFF71CF9044648
:1086D0000E460022284BFFF79DF903D84FF0FF30DC
:1086E000014607E00022254B20463146FFF764F89B
:1086F000FFF778F9102409E0002C0ADB0A22002396
:10870000FEF7BCFF039B30321A55641E50EA01028B
:10871000F2D1641C039AC4F111031444119A012A82
:1087200003D0012208430DD10AE0084304D0002001
:108730004FF0110B119072E7A3EB0B056D1E0DE0CE
:108740005B4504DD4FF0000205F1010504E003DAAA
:108750004FF00002A5F10105002AECD00298119912
:10876000C0E90231C0E9004579E70000000014408B
:108770000000F03F300000000000F0430000E03F48
:108780002DE9FF4F95B09B468946064600250FE22E
:10879000252877D100242746F84A0121059400E0D6
:1087A000044316F8013F203B01FA03F01042F7D1D1
:1087B00030782A2811D06FF02F033078A0F13002E2
:1087C000092A16D8059A44F0020402EB820203EB50
:1087D00042021044761C0590EFE759F8042B0592ED
:1087E000002A03DA504244F40054059044F0020495
:1087F000761C30782E2816D116F8010F44F00404A8
:108800002A280DD06FF02F023078A0F13003092B09
:1088100009D807EB870302EB4303C718761CF3E77D
:1088200059F8047B761C30786C280FD006DC4C2875
:1088300017D068280DD06A2814D104E0742810D00D
:108840007A280FD10DE044F400140AE044F48014B7
:1088500001E044F440147278824202D104F580149D
:10886000761C761C307866280BD013DC582877D01D
:1088700009DC002875D04528F6D04628F4D04728D2
:108880001AD19DE118E0632835D0642879D0652895
:1088900012D195E1702873D008DC6728F1D06928DF
:1088A0006FD06E280DD06F2806D1B5E073282CD07C
:1088B000752875D0782874D05A46179990476D1C42
:1088C00075E1C4F30250022809D003280DD0D9F86D
:1088D000001004280DD00D6009F1040967E1D9F8F2
:1088E0000010EA17C1E90052F6E7D9F800100D8030
:1088F000F2E70D70F0E719F8041B8DF80010002066
:108900008DF80100EA46012003E059F804AB4FF06E
:10891000FF3061074FF0000102D40DE008F10101C2
:108920008846B9420FDA8045F8DB1AF808100029AA
:10893000F4D108E008F1010188468142FADB1AF817
:1089400008100029F6D105985B46A0EB08072146E0
:108950003846179A00F094FA284400EB080507E01F
:108960004DE029E10DE01AF8010B5A46179990479E
:10897000B8F10108F7D25B4621463846179A13E151
:1089800042E00A220092C4F302524FF0000A022A87
:1089900008D059F804CB032A4FEAEC710AD00DE055
:1089A00029E02AE009F1070121F00702F2E802C1FB
:1089B000914609E00FFA8CFC4FEAEC71042A03D1CE
:1089C0004FFA8CFC4FEAEC71002907DA0A460021C5
:1089D000DCF1000C61EB02012D2202E0220504D53E
:1089E0002B228DF80420012203E0E20701D020228F
:1089F000F7E7904659E00A2102E010220DE010212D
:108A00004FF0000A00910BE010224FF0000A44F0F2
:108A100004040827009203E008224FF0000A0092A5
:108A2000C4F30252022A05D059F804CB0021032ACC
:108A300008D009E009F1070121F00702F2E802C1BC
:108A4000914605E01FFA8CFC042A01D10CF0FF0CC2
:108A50004FF00008220728D5702806D0009B83F02D
:108A6000100353EA0A0305D00EE040228DF80420DB
:108A7000012208E05CEA010206D030228DF80420D1
:108A80008DF8050002229046009B83F0080353EA0C
:108A90000A030AD15CEA010201D1620705D530223E
:108AA0008DF804204FF001087F1E582804D034A010
:108AB00003900EA802900DE036A0F9E753466046F9
:108AC000009AFEF7DBFD84460398825C0298401E04
:108AD000029002705CEA0100F0D1029806A9081A1F
:108AE00000F1200A600702D524F4803400E0012759
:108AF000574502DDA7EB0A0000E0002000EB0A0169
:108B0000009005984144401A0590E00306D45B4666
:108B10002146179A059800F0B3F90544002706E0AE
:108B200001A85A46C05D179990476D1C7F1C4745A8
:108B3000F6DBE0030CD55B462146179A059800F05A
:108B40009FF9054404E030205A46179990476D1C60
:108B50000099481E00900029F5DC08E0029802996F
:108B60005A460078491C0291179990476D1CBAF13A
:108B70000001AAF1010AF1DC65E100000928010009
:108B80003031323334353637383961626364656683
:108B90000000000030313233343536373839414245
:108BA000434445460000000000F058F90544761C97
:108BB000307800287FF4ECAD19B02846BDE8F08F7E
:108BC000620700D4062709F1070222F0070CFCE82F
:108BD0000223E14603F000485FEA080C02D00FF2DE
:108BE000702C0DE05FEA045C02D50FF2682C07E000
:108BF0005FEAC47C02D00FF2602C01E0AFF2700C8F
:108C00004FF0FF3823F00043CDF850C065280CD05A
:108C100006DC452809D046281DD047283DD13DE037
:108C2000662818D067287ED138E00021112F01DB9B
:108C3000112000E0781CCDE9000106A90EA8FFF77D
:108C4000DDFCDDE90F010E9A03910021009207F18E
:108C5000010A04914DE04FF000400097CDE901106A
:108C600006A90EA8FFF7CAFCDDE90F0203920E9BCE
:108C700011990022DDF80CA00093049211B9791C1F
:108C800000EB010AB7EB0A0004D4C0F1FF3007F192
:108C9000010A0490AAEB0700019044E0012F00DADA
:108CA00001270021112F01DD112000E03846CDE918
:108CB000000106A90EA8FFF7A1FCDDE90F010E9A3D
:108CC0000391002104910092BA4621070CD4039924
:108CD000514500DA8A46BAF1010F05DD009AAAF182
:108CE0000101515C302908D0B84202DA10F1040FBA
:108CF00006DA0121CDE9011015E0AAF10101E9E749
:108D0000002805DC049901440491AAEB000102E06B
:108D1000411C514500DD8A460499401A401C0190CF
:108D20004FF000400290200704D40198504501DB29
:108D3000CDF8048000208DF84F0002980DF14F0708
:108D4000B0F1004F25D02B200E9002984FF0020872
:108D500000280CDA404202902D200E9007E00A21F4
:108D60000298FEF775FC3031029007F8011DB8F14A
:108D70000001A8F10108F2DC02980028EFD1791E69
:108D80000E980870307800F0200040F0450007F899
:108D9000020D12A8C01B00F107081498007800B15A
:108DA000012000EB0A01019801EBE07105984144B4
:108DB000401A401E0590E00306D45B462146179AF0
:108DC000059800F05DF805441498007818B15A46EB
:108DD000179990476D1CE00324D55B462146179AEE
:108DE000059800F04DF805441CE00498002807DBC6
:108DF000DDE90301884203DD0098405C179901E03A
:108E0000179930205A469047049805F10105401CF7
:108E100004900198401E019004D12E205A461799C3
:108E200090476D1CBAF10001AAF1010ADDDC05E0F2
:108E300017F8010B5A46179990476D1CB8F10001BD
:108E4000A8F10108F4DC5B462146179A0598ABE6C9
:108E50002D0000002B000000200000002DE9F04153
:108E6000044600251E461746880404D405E039460A
:108E70002020B0476D1C641EF9D52846BDE8F0815E
:108E80002DE9F041044600251E469046C80301D551
:108E9000302700E02027880404D505E04146384605
:108EA000B0476D1C641EF9D52846BDE8F0814A68BC
:108EB000002A06D00A68531C0B6010704868401ED8
:108EC0004860704710B560B159B102780B7852080C
:108ED000B2EB530F05D10622401C491CFEF739FBAB
:108EE00008B1002010BD012010BD800701D0002076
:108EF000704701207047C3688B4206D8114400694F
:108F0000491E814201D8012070470020704790F827
:108F10002400012801D01F207047EE20704710B5B3
:108F200001220221002001F01BFD08B1072810D109
:108F300007220221012001F013FD08B1072808D102
:108F400000210A22084601F00BFD08B1072800D1D4
:108F5000002010BD10B5007860B10C480C49401AD3
:108F6000C008032101EB00400AA105F081FE08F0D2
:108F700071FB03E003210B4800F090FD002803D0B3
:108F8000BDE8104000F0D6B810BD000080A303007B
:108F9000D0A20300457261736520626F6E64732115
:108FA00000000000705D002070B58CB015460E46C4
:108FB00000236C46C3F10F01415CE1545B1C102B94
:108FC000F8D30D2104F11000FEF7B1FA0020C0F132
:108FD0000F02315C2244401C11740328F7D3684609
:108FE00046DF0020C0F10F01214491F820102954E0
:108FF000401C0328F6D30CB070BD022001F0B2BBB8
:109000000149C97800F0BABFE05A002070B50024C9
:10901000064D06E06868012110F8340006F0FAF900
:10902000641C28788442F5D3002070BD705B00205A
:10903000F8B516460C4605460A2A01D20720F8BDA7
:1090400006F0E0FA18B906F0A1FA0028F7D1134F9C
:10905000202113487D603C70BE60FEF768FA002056
:10906000C7E904000F4E0DE005EBC4003168009124
:1090700081788DF8011000780B4A694606F016FADF
:109080000028DCD1641EE4B2EED2BDE8F840054809
:109090000021064A001D00F06BB80000705B002044
:1090A0003C3A03201855030061C50200E1B30200F9
:1090B00072B605F087FE00BF05F0BEFC0028FBD1AC
:1090C00011481249401AC408012000EB044010A1C5
:1090D00005F0CEFD11480068C00700D000BE022098
:1090E00000EB04400EA105F0C3FDBFF34F8F0B480A
:1090F000E43801680E4A01F4E06111430160BFF3F6
:109100004F8F00BFFDE7000080A30300D0A2030043
:10911000466174616C206572726F7200F0ED00E060
:1091200053797374656D2072657365740000000077
:109130000400FA050EB500210091CDE901106A4640
:1091400044F20100FFF7B4FF0EBD10B508F04CFF6C
:10915000017B00290BD0417B39B1002101730168EB
:109160008268BDE81040084610470121F6E710BDAF
:1091700038B5046800251AB110B1207B20B901E090
:10918000072038BD606808B1082038BD0020206085
:10919000A060E06011B10120002101E00020012168
:1091A0006173A26006490246009123464FF47A712A
:1091B00004A00CF053F8606000B90E25284638BDB5
:1091C0004B91020020000000002070477CB54668EB
:1091D000044626B1207B002803D000207CBD082057
:1091E0007CBDEFF30580226008B300250A46019597
:1091F00001AB0921304600950CF06AF801282BD10B
:109200000BF00EFF024601AB0621304600950CF034
:109210005FF8012820D1019800B312494FF0805027
:10922000086040BFBFF34F8FBFF36F8F16E002257A
:109230000A4600230421304600950CF049F8012825
:109240000AD10BF0E7FE02460023012130460095CB
:109250000CF03EF8012801D004207CBD01202073D1
:10926000BBE7000004ED00E07CB504464068002543
:1092700000280CD0EFF30581B9B1019501AB0022B4
:10928000082100950CF024F8012817D101E00820EE
:109290007CBD0198A0B10C494FF08050086040BFE0
:1092A000BFF34F8FBFF36F8F0AE0022100230091BD
:1092B0001A4603210CF00CF8012801D004207CBDD3
:1092C000257300207CBD000004ED00E030B5EFF315
:1092D000108172B60D4A9468012324B103700029ED
:1092E00000D162B630BD93604FF0E023D3F88051D7
:1092F000074C25401560C3F88041D3F88441546081
:109300005A17C3F8842100220270E8E75C3A032070
:10931000FC06FFBD0B498A68002A11D000280FD136
:10932000EFF3108072B60B684FF0E022C2F8003104
:109330004B68C2F8043100228A60002800D162B66E
:10934000704700005C3A032038B50BF063FE1D4CFB
:1093500002250246009500230121E0680BF0B8FFCA
:10936000012802D00420FFF7E5FE0BF053FE024671
:1093700000950023012120690BF0AAFF012802D0EB
:109380000420FFF7D7FE0BF045FE024600950023B0
:10939000012160690BF09CFF012802D00420FFF737
:1093A000C9FE0BF037FE0246009500230121A0699B
:1093B0000BF08EFF012804D0BDE838400420FFF7F1
:1093C000B9BE38BD7859002070B5054608680C460E
:1093D000411C04D005F005FA206805F01EF960680C
:1093E000411C02D0002105F006F92968A069C1F8E6
:1093F0002405607D227D29681043C1F86C05D4E9FD
:1094000000122868C0F81425C0F80C15207D01282A
:1094100014D1A068411C02D0002105F0ECF8E068EE
:10942000411C04D005F0DDF9E06805F0F6F8D4E958
:1094300002122868C0F80825C0F8101570BD70B574
:10944000054608680C46411C04D005F0D4F9206894
:1094500005F0EDF86068411C02D0002105F0D4F859
:109460002968A069C1F82405607D217D2A68084328
:10947000C2F86C05D4E900122868C0F80C15C0F8D1
:109480001425207D012814D1A068411C02D00021A0
:1094900005F0BAF8E068411C04D005F0ACF9E068CA
:1094A00005F0C5F8D4E902122868C0F80825C0F80C
:1094B000101570BD03F00EBE2DE9F04781460588FA
:1094C0004A484FF000088AB001784246284600F02A
:1094D0006DFD99F80500400701D4002176E005F5FF
:1094E0008077B8B205AB0122072106F07FFF0400A8
:1094F0003F48404A4FF00101A0EB02004FEAD00084
:1095000001EB00460AD0204605F0FCFE024630463C
:109510002B46394905F0B7FB214629E0284603F0E0
:1095200039FB4FF6FF71044688422BD18A460698D4
:1095300003F09AFA0446504510D00146284603F03D
:1095400009FB2846FFF75CFDE0B9284609F038FA28
:109550002846FFF755FD0028BFD013E007F01CF99F
:109560000446504508D1304624A105F081FB042172
:10957000284609F053FAB0E70146284603F0EAFA14
:109580004FF00108B8B22246072106F0A7FF0700F6
:109590001BD0862F1ED005F0B5FE024630462B4666
:1095A0002349009405F077FB3946284609F036FA3E
:1095B0000021484606F012FEB8F1000F02D0204606
:1095C00003F0D2FA0AB0BDE8F0870121484606F060
:1095D00005FEF7E7142217496846FDF781FFADF84D
:1095E0000250684602F0FEF9EFE70000E05A002062
:1095F00010A30300D0A2030028940300436F756CEE
:1096000064206E6F7420616C6C6F63617465206E92
:10961000657720706565725F696420666F72206986
:109620006E636F6D696E6720626F6E642E0000005E
:1096300044950300AC54030070B5044690B0087B19
:109640000D468DF83800202105A8FDF770FF42F681
:109650001920ADF814000120ADF81800ADF81A007B
:109660000EA80790617C9DF82100A21D61F30410F3
:1096700040F002008DF82100A87B8DF82700687B60
:109680008DF82500A08805A901F0DEFB00281CD17B
:10969000A968E1B10FA801F01AF80646142168463E
:1096A000FDF745FF42F60810ADF80000E87B8DF8A5
:1096B00006000FA8ADF80A60ADF80E600490E088CF
:1096C00004F10E02694601F035FE10B070BD0020B5
:1096D000E081FAE710B50D490D4809F016FAC1B25C
:1096E0004FF6FE720B4800F0F1FA00280DD0082862
:1096F0000BD0132809D0112807D043F2014188422A
:1097000003D0BDE81040FFF715BD10BDA4610020D7
:10971000A0590020EC5C00200A4601461046AEDF4E
:1097200070472DE9FC47002517880646158090F8FC
:109730002D001446894630B13A462146484600F08D
:109740005BFC051E09D1B0784FF00C0A18B32088D5
:10975000C846001DB84202D95046BDE8FC8768469D
:1097600079DF0028F9D12088032108F8001020882B
:109770001921401C80B2208008F800102088401C6D
:1097800080B2208000EB0801BDF800000AF089FBE0
:10979000218808442080F0780222C8B1218896F9F7
:1097A000033001F1030C4846BC45D5D8425421880A
:1097B0004FF0010C491C89B2218000F801C02188BA
:1097C000491C89B2218009F801302088401C208082
:1097D0007068B8B1218890F9003001F1030C484657
:1097E000BC45B9D8425421880A22491C89B221803B
:1097F00042542188491C89B2218009F8013020880F
:10980000401C2080308950B1CDE900474B460622EC
:10981000022106F108000AF075FC051E9DD1308A70
:1098200050B1CDE900474B460722032106F1100055
:109830000AF068FC051E90D1308B50B1CDE900478D
:109840004B461522142106F118000AF05BFC051E98
:1098500083D1306A30B13B462246494601F01DFCB7
:10986000051EDBD1706A30B13B462246494603F003
:10987000A9FE051ED2D196F82C0038B13B462246EF
:109880004946304609F076FA051EC7D1307838B11E
:109890003B4622464946304603F022FF051EBDD115
:1098A00028465AE718B504460020ADF800001346D4
:1098B0006A46204600F006F8002802D0BDF80000F5
:1098C000204418BD70B5E0B1DAB1002402E0045DB7
:1098D0002C44A4B2651C8D4206D21688A642F6D846
:1098E000061976789E42F2D18C420AD2A31C005D02
:1098F0009BB200B1401E0004000C02D01C188C4228
:1099000001D9002070BD138070BD80F83010704701
:109910002DE9F0410D00044606D02CB195F87A00EF
:109920000026012803D006E00E20BDE8F08195F85E
:109930009800012821D04FF00108A6702C2205F1D3
:109940007801201DFDF7CCFD84F83060D5F8A40027
:109950006063D5F8A800A0634FF6FF70A4F8240454
:1099600004F58260C4F82004C4F82664A4F82A64CC
:1099700084F82C64207810B104E00720D5E7FF209C
:1099800084F8540004F155072046C4F81074FFF71A
:10999000BEFAA4F8140404F2144239462846FFF72C
:1099A000C0FE0028C1D104F23120C4F818042046BA
:1099B000FFF7ADFAA4F81C0404F21C4205F13C00C8
:1099C000D4F81814FFF7ADFE0028AED184F851800A
:1099D000208BA4F8480084F83C80266484F850600A
:1099E000606900216064454604F13C02781E72DF24
:1099F00000289AD1257098E710B50288102A1BD04C
:109A0000112A20D0262A1DD1007A0C46012801D027
:109A1000022817D1A0780521401CB0FBF1F201FB10
:109A20001201204600F03AF800280BD0A16B002963
:109A300008D0BDE810400847C27B012A02D18088C7
:109A4000A1F8240410BD0C46002184F82E1480884F
:109A5000B4F824148842F5D120790028F2D10121EC
:109A6000DFE710B5044690F8540074DF012084F855
:109A70002E04002084F8300484F85000062120468B
:109A800002F01BFA002808D1A178204600F006F861
:109A900010B1A16B01B18847002010BD2DE9F05F26
:109AA000044600780F4698B1A7700025C4F82654E4
:109AB000A4F82A5484F82C54A079012608B1012F67
:109AC00009D0E07980B1012F05D0022F03D00BE03F
:109AD0000820BDE8F09F616B21B184F82D64082057
:109AE000884701E084F82D5404F2274100200A5CE5
:109AF0000AB1304603E0401C0628F8D300204FF09E
:109B000002084FF0030B012F06D0022F0CD0032FB9
:109B10000FD0042F15D110E0A17929B194F82410A9
:109B200011B908B130460DE0E17911B108B14046F4
:109B300008E0207A08B1584604E0607A08B10420B1
:109B400000E02846A070616B41B1032801D00428D1
:109B500004D1607910B194F82E0498B184F82F5490
:109B600004F13C0018210746FDF7E1FC84F83C6055
:109B700004F12C0006F042FF58B194F82C0084F850
:109B8000510008E084F8305484F82F640720884797
:109B9000E6E784F8516094F8240058B104F12800F5
:109BA00006F02CFF20B194F8280084F8520001E060
:109BB00084F8526084F85050A27804F2264104F5EB
:109BC00082694FF0060A052A64D2DFE802F07C03BE
:109BD0000F22420084F83160C4F82054C4E9101503
:109BE00084F83C808020A4F8480055E084F8318057
:109BF00094F82420384612B10722027001E080F860
:109C000000B0228A8281C4F820544160E168B960C2
:109C100042E06069B860208BB88194F824003D462A
:109C20000028204602D084F83CA001E084F83C6083
:109C30000AF034FA50B185F814800421204602F06D
:109C40003CF938BB052184F8311021E084F831B0AB
:109C50001EE0E069B860208CB88194F824003D468D
:109C60000028204602D084F83CA001E084F83C6043
:109C70000AF014FA48B185F814800421204602F055
:109C80001CF938B984F831A002E0042084F83100CE
:109C9000C4F82094A07878B13A4604F15400D4F87E
:109CA000201472DF00287FF414AF94F8301094F879
:109CB000540073DF0028F6D1616B11B194F83100C4
:109CC0008847002005E784F83150F5E7F7B594B0F0
:109CD000174605003CD0287C9DF85410002488428B
:109CE00052D000264FF0010E0D9615A8ADF834E0C5
:109CF0000E90ADF83660E9880DAA4FF6FF70ACDF24
:109D0000040026D19DF854002874687CA0B30F96F7
:109D1000109611961296E888ADF83C00BDF8360012
:109D2000ADF840000DA811900E981290A7F57F4055
:109D30008DF83EE0FE3805D039460FA8FFF7ECFC61
:109D4000044621E0684600F09DF800256F460FE0CC
:109D50000E2017B0F0BD00BF07EB4506B08800F03D
:109D6000EFF8022803D144B10FA9B088AEDF6D1C13
:109D70000098A842F0D807E005E0B1880FA8FFF7E7
:109D8000CBFC0446F3E708242046E2E738B50D464D
:109D9000040018D0BDB12868206028796074FF20C5
:109DA000207401208DF8020041F60F00ADF800008C
:109DB000221D69460120A8DF002803D1294620463C
:109DC000FFF73AFC38BD0E2038BD38B5002924D045
:109DD000002822D00288502A1FD10546487C0C4614
:109DE00000281AD0E9886289A81D914215D14189BD
:109DF000022912D1216800290FD00C3000F063FC39
:109E000008B1002000E001208DF80000A888ADF81E
:109E10000200226869462046904738BD70B50400AC
:109E200012D001461C221448FDF75AFB1248134D6C
:109E30000560206850B17ADF002806D120680168EB
:109E400029604068686005E00E2070BD0B487BDF2C
:109E50000028FAD108484FF6FF711438084A20F854
:109E6000041B0549343901600021FFF781F90028FE
:109E7000EBD0032070BD00004C350320385A002081
:109E8000354003000149496801F0E8B8683503200E
:109E900010B5044600F0A6F8002805D02146BDE81C
:109EA0001040024803F032BD10BD00007835032099
:109EB00070B515460E4604460AF0FCF8002809D095
:109EC000054800EB8400C0692A463146BDE8704071
:109ED00002F02CB870BD00006835032010B50446B0
:109EE00000F080F8002805D02146BDE81040024867
:109EF00003F00CBD10BD00008035032010B50446F2
:109F000000F070F8002805D02146BDE81040024856
:109F100003F0FCBC10BD00007C35032070B5054685
:109F2000002400F05FF838B12946044803F0EEFC45
:109F300008B1022400E00124204670BD74350320DE
:109F400070B50546002400F04DF838B129460448A4
:109F500003F0DCFC08B1022400E00124204670BDBF
:109F60007035032010B51821034803F0AAFC182807
:109F700000D0C0B210BD00006835032070B50546A2
:109F80000C4608460AF096F860B1284600F02AF818
:109F900040B10548294600EB8400BDE870401C3004
:109FA00003F0B4BC002070BD6835032070B50546D1
:109FB00016460C4608460AF07DF800280ED02846C2
:109FC00000F010F8002809D00548324600EB840064
:109FD0002946BDE870401C3001F06ABF70BD00002A
:109FE00068350320142801D300207047014601483A
:109FF00003F08CBC6C3503207CB5054608880C4604
:10A000000930904201D90C207CBD68466DDF0028E4
:10A01000FAD121880820685420881B21401C80B276
:10A02000208029542088401C80B220802844DDF8FC
:10A0300001100160BDF8051081802088801D80B26C
:10A0400020809DF80010490800D001212954208863
:10A05000401C208000207CBD1FB5044601208DF8E7
:10A06000060041F60A00ADF80400494A01A90120A2
:10A07000A8DF00287DD122885AB14548801C009075
:10A0800094F83C3042F62920616800F0ADFE0028CB
:10A090007BD122895AB13E480A30009094F83C3076
:10A0A00042F62420E16800F09FFE00286DD1228A4C
:10A0B0005AB137481230009094F83C3042F62520CF
:10A0C000616900F091FE00285FD1228B5AB13048BF
:10A0D0001A30009094F83C3042F62720E16900F0F5
:10A0E00083FE002851D1228C5AB129482230009099
:10A0F00094F83C3042F62620616A00F075FE002894
:10A1000043D1228D5AB122482A30009094F83C3035
:10A1100042F62820E16A00F067FE002835D1216B65
:10A1200079B102A809F0AEFA19480822323000903D
:10A1300094F83C3002A942F6232000F055FE002896
:10A1400023D1606B60B112493A3100910279016804
:10A1500094F83C3042F62A2000F046FE002814D144
:10A16000A16B89B102A807F0E4FA094842300090D7
:10A1700000E00AE094F83C30072202A942F65020A1
:10A1800000F032FE002800D1002004B010BD000015
:10A19000FE5A002038B501880446212932D015DC4A
:10A1A0001F48204A204DA0EB02004FEAD0004FF09C
:10A1B000030202EB0040102910D0112905D11BA188
:10A1C00004F056FD4FF6FF70A88038BD3B2923D020
:10A1D0005629FAD18088132176DF0DE017A104F00B
:10A1E00047FD072000F0DEFB08B1FEF7A3FFA188C2
:10A1F000A980154803F0E8FC0028E6D0BDE8384007
:10A20000FEF798BF00200090A08869468FDF0028E5
:10A21000DBD0FEF78FFF38BD8088132176DFEBE7B8
:10A2200080A30300D0A2030078590020446973631F
:10A230006F6E6E656374656400000000436F6E6E40
:10A240006563746564000000645D002010B51A4CFD
:10A250000188606810290ED011292BD1401E606042
:10A2600028D1FEF75CFE002824D02168002921D0E7
:10A27000BDE810400847D0B900210122084600F08F
:10A280006FFB08B107280FD107220221012000F03F
:10A2900067FB08B1072807D104220221002000F043
:10A2A0005FFB20B1072802D0216801B188476068B0
:10A2B000401C606010BD0000D45900202DE9F0471B
:10A2C00001883B4E40F2F3194FF6FF7510291BD061
:10A2D00011293ED0122954D0502946D1C188F28983
:10A2E000841D914241D1618902293ED18688304640
:10A2F00002F0FEFC050038D004F10C0000F0E3F998
:10A30000A8B3294630464EE0C17B87880446012920
:10A310002BD1A846284602F0EBFC050017D02F8071
:10A3200000202872234843464A460168C5F80A10AF
:10A330004068C5F80E0004F1100105F10A0002F0B2
:10A34000C3FD6872F08900280FD129462AE0042055
:10A3500013E0808802F0CCFC040006D06068FEF7B1
:10A3600083FF08B108F03EFB2580BDE8F087FFE7DA
:10A370006868FEF779FF0028F7D0BDE8F04708F0DD
:10A3800031BB87880646384602F0B2FC0400ECD0A8
:10A390002B464A4606F1080104F10A0002F094FD3A
:10A3A000607221463846BDE8F04700F0BDBE0000AF
:10A3B0004C350320385A00202DE9F04F044686889A
:10A3C0000188424897B0834610290CD0112950D0FB
:10A3D000103019296AD01A2974D1217A0C09042C59
:10A3E0004DD301224CE0394D083DA868C0430B9085
:10A3F00069680BA803F0AEFA0B990CA800F02EFECA
:10A400002C220CA96846FDF76BF80027E946A84600
:10A4100010E000BF09EB47005FF00005B0F804A0B2
:10A4200008EB85005146001D03F030FA6D1C1E2D0F
:10A43000F6D37F1C0098B842ECD8142E05D317B081
:10A440000420BDE8F04FFEF775BE3146584603F0D4
:10A4500068FA314608F1040003F063FAE07B022851
:10A4600030D117B03146BDE8F04F1848001D03F059
:10A4700058BA17B03146BDE8F04F03F007BA0022D2
:10A48000314601F015FD032C01D3012200E000222A
:10A490000E4831460C3001F00BFD022C01D3012295
:10A4A00000E0002209483146083006E0217A002900
:10A4B00008D1617AC1F3C002314617B0BDE8F04F50
:10A4C00001F0F6BC17B0BDE8F08F00007035032036
:10A4D00010B504460748007800280AD0204602F04C
:10A4E00035FA204608F00AFD2046BDE8104001F08C
:10A4F00073BE10BD705A002030B50446008C8BB07E
:10A50000A0F57F42FF3A23D005AA204602F092F937
:10A510000546ADF8000000200190029003900490E1
:10A520002189ADF804100121ADF808008DF806105E
:10A5300005A8CDF80CD00490208C01A9AEDF00282E
:10A5400004D1BDF80010A94200D00C200BB030BDE2
:10A550000820FBE7F0B504468FB008682060087952
:10A5600060714FF6FF702084002084F82200A4F868
:10A570004C001427012684F84E708DF8226041F6B5
:10A580000D000D46ADF82000A21D08A93046A8DF39
:10A59000002847D120216846FCF7C9FF42F6372042
:10A5A000ADF80000ADF8047009AA0021204602F0C1
:10A5B00041F9ADF8060009A802908DF80C609DF8ED
:10A5C0000D0004F1080240F010008DF80D00287B0A
:10A5D0008DF81300E088694600F036FC002821D190
:10A5E000A868F0B120216846FCF7A1FF42F63820A8
:10A5F000ADF80460ADF80000ADF80660A868029000
:10A600009DF80D0004F1100240F002008DF80D00DD
:10A61000687B8DF81100E088694600F015FC002881
:10A6200000D100200FB0F0BD38B50288102A15D037
:10A63000112A15D0502A16D130F8062F8B899A424C
:10A6400011D10C46418902290DD1216800290AD077
:10A650000C3000F038F838B1002006E0808801E0C6
:10A660004FF6FF70088438BD01208DF80000226885
:10A6700069462046904738BD70B50446B0F84C0096
:10A680000D4614280AD104F126012622881EFCF763
:10A6900027FFB4F84C00401EA4F84C00B4F84C005E
:10A6A00004EB4001401CA4F84C008D8470BD80F880
:10A6B0002210704770B504460D460846FCF742FF6D
:10A6C0002080656070BD007800F0010070470A7856
:10A6D0000270497841700220704700000149085C0F
:10A6E0007047000040530300084908B5085C00901B
:10A6F000684604F001F8D0F810050099C84010F041
:10A70000010000D0012080F0010008BD405303008B
:10A710002DE9FC410646C0074FF000050ED0104F52
:10A7200000240122385D009500231146019503F0B5
:10A73000D3FE641C042CF4D300F04EF8B0070DD502
:10A74000074E0024361D0022305D0323009511467C
:10A75000019503F0C1FE641C042CF4D3BDE8FC8118
:10A760003C530300094908B5085C0090684603F0B3
:10A77000C3FFD0F80425009B0121994021EA020380
:10A78000C0F808351140C0F80C1508BD3C53030053
:10A790000249085C012104F04CB800003C5303005E
:10A7A0000249085C002104F044B800003C53030057
:10A7B000084908B5085C0090684603F09DFFD0F892
:10A7C00004050099C84010F0010000D0012080F07D
:10A7D000010008BD3C53030010B500242046FFF7DC
:10A7E000D7FF641C042CF9D310BD10B500242046FB
:10A7F000FFF7D6FF641C042CF9D310BD10B5024638
:10A80000064B4FF0FF3000215C5C944201D10846BA
:10A8100010BD491C0429F7D310BD000040530300AC
:10A8200070B50C4E0C004FF0000530600BD00120CD
:10A8300000F06AF808B1022004E0002000F064F89B
:10A8400000B10B202070706810B9FEF768FB054658
:10A85000284670BDD459002010B5002000F0CCF976
:10A8600008B1062806D1012000F0C6F908B1062873
:10A8700000D1002010BD00002DE9F0470D468146B3
:10A88000FFF7BCFF0446042836D2DFF874801B486B
:10A890001C4EA8F10C0725B3012D0ED0022D2BD193
:10A8A00004EB440030444578002D25D0B9680029D8
:10A8B00022D02846BDE8F047084704EB4401755C08
:10A8C0000E44717849B10E4A4FF48061093A8068AC
:10A8D000FEF77CFC08B987F80390B17808F80410FB
:10A8E000E2E78068FEF7C0FC04EB4401314418F84D
:10A8F00004008D78A842D7D0BDE8F0874453030008
:10A90000D059002014240320042801D2FFF7ECBE04
:10A91000002070470146104810B58088042907D0F0
:10A9200007290ED00A2915D1BDE8104008F0D2BA87
:10A93000132176DF0CE000280CD0BDE81040FEF7B4
:10A94000F9BBA0F57F41FF3904D10448FFF789F82E
:10A950000828F0D110BD000078590020705D00205B
:10A9600070B50023042810D20D4D00EB4004012ADD
:10A9700002D101290CD00022094E00EB40003044E6
:10A9800061B1012906D0022906D00723184670BDFF
:10A990000E30C2B22A55F9E74270F7E78270F5E748
:10A9A00014240320044A014600201279D20702D061
:10A9B000084600F04DB87047C459002070B50646EF
:10A9C0001E480024C0E90161B0071FD500250122FF
:10A9D00011462846FFF7C4FF6D1C0446042D02D221
:10A9E000002CF4D012E08CB9332204211448FEF775
:10A9F0001FFB04000AD1FEF709FB040006D1104832
:10AA0000104A0021001FFEF7B3FB0446F00712D0E6
:10AA10000120FFF77DFE74B909480B4A00210C386C
:10AA2000FEF7A6FB040006D10548084A01210838B4
:10AA3000FEF79EFB0446204670BD0000C45900206E
:10AA40005053030005AD020075CF0200FB8F0200DA
:10AA50002DE9F05F654C05460026607818B10020AE
:10AA6000607002F06FFA624F4FF47A6B4FF4FA7A2B
:10AA70004FF47A784FF00109182D61D2DFE805F024
:10AA80000C13132F3E4B61666A726A72B37B7B7B39
:10AA90007B7BA1A4A7AAB3B302F054FA3868FEF7EF
:10AAA000E3FB064654E00020FFF782FE00284FF04B
:10AAB000000008D0FFF76CFE022D02D14FF4E160D8
:10AAC00009E0584607E0FFF76BFE022D01D1C820D0
:10AAD00001E04FF4C87025700AEB802129E00020C6
:10AAE000FFF766FE00284FF0000004D0FFF750FE8D
:10AAF0004FF44870EFE7FFF753FEE8E70020FFF759
:10AB000057FE00284FF0000002D0FFF741FED8E7C3
:10AB1000FFF746FEDDE70020FFF74AFE00284FF072
:10AB2000000002D0FFF734FE01E0FFF739FE3149A3
:10AB30002570B1FBF8F100223868FEF747FB0646A6
:10AB40003CE00020FFF70EFE257008E0002047E003
:10AB5000257033E084F801900120FFF703FE002206
:10AB60006621E9E784F801900120FFF7FBFD002250
:10AB70004FF40071E0E77868FEF776FB0646D5F102
:10AB8000110000D02EB10220FFF702FE0020A070BD
:10AB900014E001280DD980B200EBC00101EB0011D7
:10ABA0000AEB413191FBF8F100227868FEF70EFBC9
:10ABB00006460220FFF7F4FD84F802903046BDE817
:10ABC000F09F02F0BFF9C3E702F0BCF9BEE702F064
:10ABD000B9F904E002F0B6F90020FFF7E1FD012029
:10ABE000FFF7DEFDB4E7FFF700FEB1E7C459002030
:10ABF00044530300F4210300012109F083BD000048
:10AC00002DE9F84F0546861C00208DF8000091467E
:10AC10000F464FF0010A6846FEF758FB1B4C04F242
:10AC20001C4860683860D4E90101194F401A39683E
:10AC3000081A0EE00121404602F086FE02F02CFBCD
:10AC40000146404602F080FED4E90101401A39680D
:10AC5000081A401C8642EDD8B9F1000F03D0052038
:10AC600065F3891002E0062065F39F5061683A6839
:10AC7000114004EB8101C8606068304460609DF859
:10AC80000000FEF747FB5046BDE8F88FA03D0320CB
:10AC9000485C002070B50D4604460A2902D10D21FA
:10ACA000FFF7F8FFA0682268411CA1601554D4E9A1
:10ACB0000101814204D32046BDE8704003F0D1B8C1
:10ACC00070BD0000044881684068814201D10120C4
:10ACD0007047002070470000A03D0320034630B5B8
:10ACE000074800210478426806E000BF02EBC1007B
:10ACF00005789D4203D0491CA142F7DB002030BDFE
:10AD0000705B002000780221FFF7B6BD1CB5044639
:10AD100001F040FF00236A46092105F0A9FC05283F
:10AD200005D10348012241792046FFF73FF91CBDB8
:10AD3000405A00201CB504460020009042F6A62090
:10AD4000ADF8000001208DF80200084801AA69460C
:10AD5000006801902046A0DF002805D104480122A8
:10AD600081792046FFF722F91CBD000074530300CF
:10AD7000405A002005494FF0FF32082841F82020B2
:10AD800002D3084480F8582070470000DC380320C4
:10AD9000F0B54FF0FF3512B10023082601E008237B
:10ADA0000C260C4C05E000BF54F823707F1C04D027
:10ADB0005B1CB342F8D32846F0BD26185DB286F876
:10ADC000305044F82310002AF5D1E11881F85800DA
:10ADD000F1E70000DC3803200249084490F9300014
:10ADE00070470000DC3803202DE9F04188B01E4692
:10ADF000DDF8388014460D00074602D10020FEF72A
:10AE000099F914B90020FEF795F920216846FCF75E
:10AE10008EFB9DF80D00ADF8044040F002008DF867
:10AE20000D000848ADF80070ADF8064002958DF8A9
:10AE3000116042466946008800F006F808B0BDE897
:10AE4000F0810000FE5A00202DE9F0438146887809
:10AE500091B090460C4600B901208DF83E00208844
:10AE6000ADF83C0000250095607C694608F01AF8B2
:10AE70006E46A07C711C08F015F8E07B00289DF858
:10AE8000020002D040F0080001E020F008008DF838
:10AE90000200217C11B140F0100001E020F0100010
:10AEA0008DF80200217B11B140F0010001E020F09B
:10AEB00001008DF80200217D09B1022100E001218D
:10AEC00061F342008DF802001C2102A8FCF72FFB61
:10AED000607BC10601D4800617D50E950EAFE07CCD
:10AEE000791C07F0DFFF9DF83800079720F00F006E
:10AEF000401C20F0F00010308DF838009DF83A002A
:10AF000020F00600801C8DF83A00607B8DF8080068
:10AF1000A07B8DF80900142109A8FCF708FB0FA8F5
:10AF2000CDE90906A088ADF83000A06820B1E0881E
:10AF3000ADF82C00A0680D90A06998B30195008829
:10AF4000ADF81000A06901AD01A94088ADF812006C
:10AF5000A069406806950390A069007B07F0A2FFF6
:10AF6000A069691C407B07F09DFFA069807A0028DA
:10AF70009DF8060002D040F0080001E020F0080033
:10AF80008DF80600A169C97A11B140F0100001E006
:10AF900020F010008DF80600A169097A19B140F07F
:10AFA000010002E00DE020F001008DF80600A1692B
:10AFB000897B09B1022100E0012161F342008DF893
:10AFC0000600E06900B10590434609AA02A9484677
:10AFD000AADF11B0BDE8F08370B504464FF6FF75E7
:10AFE0000A462846AC4209D14FF4807421461046E7
:10AFF00002F067FC80B2A0420BD070BDFF2CFCD8E1
:10B000002146104602F04DFC90F0010F01D0204681
:10B0100070BD284670BD000070B5084C050009D011
:10B0200010342168002907D0086820604968284644
:10B030008847F6E70834F4E770BD0000C8380320FD
:10B04000054A012120B1012805D19170FFF7E4BF25
:10B0500051700020FAE77047C838032073B58CB0F0
:10B060000646002000900D9880B100246D462146D0
:10B070000DA802F04BFC30B1009805EB4000848035
:10B080000098401C0090641C142CF0D32C226946BC
:10B090003046FCF725FA0EB070BD2DE9F041178857
:10B0A0000646B81D14460D46984202D90C20BDE84C
:10B0B000F0813188072206290AD34FF4486C4FF6F5
:10B0C000FF73614501D9994202D17088062801D2E7
:10B0D0001046ECE7604501D99842F9D1994203D076
:10B0E000984201D08142F3D80520E85520881221EA
:10B0F000401C80B2208029542088401C80B22080CF
:10B100004119308808F0CDFE2188084480B22080A3
:10B110004119708808F0C5FE21880844208000206D
:10B12000C5E7FEF707B8000038B54A7A0F4B62B1A1
:10B1300000220A725969002906D001228DF80020E8
:10B14000ADF802006846884738BD0A7A62B19B684C
:10B150004C68024619462046FEF738F80028F3D01E
:10B16000BDE8384007F03EBC5B68F1E74C35032092
:10B17000F0B585B016460F4604461D4614220B490D
:10B180006846FCF7ADF90A488DF80870ADF8024042
:10B19000ADF80A608DF80C50017800222046FEF7C9
:10B1A00005FF684600F01EFC05B0F0BDC05403006A
:10B1B000E05A0020FDF784B970B588B0064600203B
:10B1C00005900690ADF81410ADF81610019002909D
:10B1D00001AA05A9304690DF050021D004F092F8BD
:10B1E0000346114811493246401AC108012000EBBC
:10B1F000014004460E4903F046FDBDF8042012B993
:10B20000BDF8060028B1BDF80630204609A103F0BC
:10B210003AFDBDF808201AB12046164903F02CFD6E
:10B2200008B0284670BD0000E8A20300D0A20300C9
:10B23000A08C030054686520726571756573746530
:10B24000642054582F5258207061636B6574206CD1
:10B25000656E67746820697320746F6F206C6F6E01
:10B26000672062792025752F2575206F63746574BA
:10B27000732E0000EC8C030070B5044609480121D0
:10B2800002F07DFBBFF35F8F0025002808D1204628
:10B2900001F07CFF002803D1BFF35F8F01480560F8
:10B2A00070BD00004C5A00202DE9FF410C4620B132
:10B2B0004FF4064004B0BDE8F0812079002748F241
:10B2C000096538B141F61D5601281BD0022826D049
:10B2D000681DEFE70220207102970397E068019054
:10B2E000694601A807F04EF850B102988188E180C4
:10B2F00000882081BDF80010029807F0C1F8D9E756
:10B300002846D7E70A4B6A460021A01D06F0F2FF47
:10B3100038B1074918398F61CF61A842CAD1304688
:10B32000C8E703488188019807F0AAF8F5E700000C
:10B33000A05B0020F0B587B00C46074616461421E6
:10B3400001A8FCF7F4F8A07800B901208DF81A00E4
:10B350002088ADF8180006A80190A079694607F08A
:10B36000A1FD6D46E079691C07F09CFDE07800289E
:10B370009DF8020002D040F0080001E020F0080033
:10B380008DF80200217911B140F0100001E020F0A9
:10B3900010008DF80200617911B140F0010001E068
:10B3A00020F001008DF80200217A09B1022100E0AD
:10B3B000012161F342008DF8020002956089ADF829
:10B3C0000C00A089ADF80E00E089ADF810002069EE
:10B3D0000590324601A93846ABDF07B0F0BD00004A
:10B3E00070B500240F4D10E0686800EBC40630789B
:10B3F00004F0C4F87178012901D0012100E0002196
:10B400004140307800F04CFA641C28788442EBDB31
:10B41000D5E90401084303D0BDE8704008F054B9F1
:10B4200070BD0000705B0020FEB50126089C002561
:10B430008DE8700000F00AF8FEBDFEB50026DDE9DB
:10B4400008458DE8700000F001F8FEBD2DE9F05FC1
:10B450008946824614461946104600F05FFD0546AF
:10B4600000F05AFD0646284600F054FD05F102089A
:10B4700007464FF0010B4FF0000524B347E00024CE
:10B480001DE000BF18F80510C4F107020BFA02F026
:10B49000014207D009EB050001B20AEB040000B23B
:10B4A0000A9A08E00C9840B909EB050001B20AEBD2
:10B4B000040000B20B9A00F08CF8641CE4B2B442B1
:10B4C000E0D36D1CEDB2BD42D9D322E000241AE0D6
:10B4D000082C21D218F81510C4F1070221E000BF92
:10B4E00009EB050001B20AEB040000B20A9A06E07B
:10B4F00009EB050001B20AEB040000B20B9A00F060
:10B5000068F8641CE4B2B442E2D36D1CEDB2BD42F3
:10B51000DCD33046BDE8F09F08EB4500C4F10F02D4
:10B5200041780BFA02F00142DAD10C980028DFD002
:10B53000E7E700002DE9FF5F8A46144683460026B0
:10B540006142012000EB41053FE000BF0AEB04002F
:10B5500001B20BEB060007B288463846039AFCF7A7
:10B56000AEFCAAEB040001B289463846039AFCF708
:10B57000A6FCABEB060007B241463846039AFCF73F
:10B580009EFC49463846039AFCF799FC29194FF06E
:10B59000FF3000EB4101002D05DA002903DC761CA9
:10B5A00005EB46050AE0A91B00EB4100002D07DD75
:10B5B000002805DD641E604205EB40056D1C04E0BB
:10B5C000761C301B05EB4005641E002CBEDABDE87E
:10B5D000FF9FFCF774BC2DE9FF4F83B00446DDE903
:10B5E000109B00270646DDF848A01D468846082027
:10B5F0002B78BBB10A2B0CD00D2B0FD0BAF1000F5A
:10B6000014D0CDF8009041462046059AFFF70CFF74
:10B6100013E008EB00010FFA81F800E034466D1CDE
:10B62000002FE5D007B02046BDE8F08FCDE9009BA4
:10B6300041462046059AFFF700FF204404B22978CE
:10B64000059800F06BFC00F065FC6D1CD0E7FCF782
:10B65000CEBCF0B59DB01C4615460E46074623AB42
:10B66000642103A8229AFCF7F3FE00200121009434
:10B67000CDE9010103AB2A4631463846FFF7ABFF5F
:10B680001DB0F0BD10B50021024802F078F980F33A
:10B69000100010BDBC41032009490120096809B10F
:10B6A000002070470749CA69002AF9D1044A2832A4
:10B6B00012688968491E8A42F3D10220704700004F
:10B6C000B4340320E859002013460A460021FFF74E
:10B6D0004FBD00002DE9F843104D0F4680461E4631
:10B6E00091466946286802F0A5F8040014D01C2190
:10B6F000FBF71DFF01202071C4F81490380BC4F82B
:10B700000080C4E902606946286802F0B4F806F0D7
:10B710005BFD0020BDE8F8830420FBE7A85503008B
:10B7200010B503780022072B06D2DFE803F00504EA
:10B730000610202930000A7010BD01230B70038908
:10B740008B818388CB81C06888600A7410BD022217
:10B750000A7002898A818288CA81C2688A60807D73
:10B76000062802D00020087410BD0120FBE7032248
:10B770000A70C2888A810289CA81C068886010BD47
:10B7800004230B70C0888881CA818A6010BD05209F
:10B79000087010BD70B5064D0646002455F82410FB
:10B7A00009B130468847641C042CF7D370BD0000F3
:10B7B000843A032030B50446006887B00D4680689F
:10B7C00000281FD018216846FBF7B1FE0195A0683C
:10B7D0000590207910B1012810D107E001208DF8E3
:10B7E000000020690290E068039005E002208DF8D7
:10B7F0000000E0680003029060690490206881689E
:10B800006846884707B030BDF0B585B017460C00D4
:10B8100005463AD0112C38D0082C36D01C481D498A
:10B82000401AC6080D2C11D0204603F06BFD0246CD
:10B83000012000EB06402B46174903F024FA2A4664
:10B840000721684601F0AAFF02941BE0022000EBEA
:10B8500006402A46114903F00FFA2A46032168469A
:10B8600001F09CFF27B13878C00701D0012000E02B
:10B8700002208DF8080000208DF80C0041F2011024
:10B88000ADF80A00684600F0BBF805B0F0BD000056
:10B8900018A30300D0A20300109703000096030032
:10B8A0002DE9F84F0E463449804601EB5001C007A0
:10B8B000097801D00F0901E001F00F074FF00009EE
:10B8C000424601204946FBF7F7FDDFF8B0A00446E9
:10B8D0000D46052F4ED2DFE807F003161B282C007B
:10B8E000002E47D00121404607F034FE8DF800902D
:10B8F0006846FDF7EBFC5046D0E904120C431543B3
:10B90000CAE9044532E00EB1022114E0002112E040
:10B910004EB10321404607F01DFE4046BDE8F84FFA
:10B92000012108F0DFBB012105E0002E22D1042116
:10B9300001E02EB103214046BDE8F84F07F00ABEF2
:10B940000021404607F006FE0021404608F0CAFBF1
:10B950008DF800906846FDF7B9FC5046E243D0E907
:10B9600004341A4024EA0501CAE904219DF80000C4
:10B97000FDF7D0FCBDE8F88F3C3A0320705B002057
:10B9800010B50446408801F005F9A080024801681E
:10B990002046BDE810400847485A002010B504462C
:10B9A000808801F041F86080024801682046BDE8C7
:10B9B00010400847585A00202DE9F041074600245E
:10B9C000064E074D05E000BF56F82410384688475C
:10B9D000641CE8788442F7DBBDE8F0817C38032002
:10B9E000705A002010B50446408801F0D3F8A080BA
:10B9F000024801682046BDE8104008478054030013
:10BA00000149096808470000FC540300024900EBA3
:10BA1000001001EB40007047F0610300A0F130011D
:10BA2000092909D800EBC00101EB0010034901EB23
:10BA30004000A0F51660704700207047F0830300B7
:10BA4000A0F13001092907D8044900EB401001EBAF
:10BA50004000A0F54660704700207047E485030071
:10BA6000024900EB800001EB40007047F0570300F3
:10BA700070B586B0044614216846FBF758FDA089CE
:10BA80000125A0F54040ADF8040020782F4E06288F
:10BA900033D2DFE800F0320303032C4AA08900F020
:10BAA000EBF930B9E08943F6FE71A0F540408842D9
:10BAB00023D8A07B8DF80800207803280FD0002021
:10BAC0008DF80900A0680390606850B109208DF8D6
:10BAD000000060680490684604F01CFD0DE0012041
:10BAE000EEE708208DF800008DF81050F3E7A089EC
:10BAF00000F0C2F908B1E08930B17078002801D0B7
:10BB000004F05CFE06B070BD606830B10B208DF8AB
:10BB10000000606802907570DDE70A208DF8000073
:10BB2000BDF8040004F0EEFEF5E7606848B11420AB
:10BB30008DF80000606802904FF6FF70ADF80400C9
:10BB4000C9E713208DF80000F6E700005C5A0020DA
:10BB500038B504460F480078B0B1A4F57F40FF38EF
:10BB60000FD0684606F060FA88B105210170012106
:10BB70000171C480684606F065FA06F017FB0020E4
:10BB800038BD48F2036038BD48F2016038BD48F264
:10BB9000076038BDA85B00200D4808B5007888B163
:10BBA000684606F041FA80B106210170684606F049
:10BBB00049FA0848017809B10121017306F0F6FA43
:10BBC000002008BD48F2016008BD48F2076008BDCA
:10BBD000A85B0020483B0320F0B587B014216846DD
:10BBE000FBF7A5FC304C207818B16846FFF7D2FD72
:10BBF00057E0201D01F0A5FE98BB40F6F8700168E3
:10BC0000481C02D14FF0102041694FF0805002696A
:10BC100040694B1C01D100FB02F124480022016164
:10BC2000A1F54051C160224902F0B0FA002823D1A9
:10BC300021481C238C221F49006801F0E8FD04F014
:10BC4000F5F9050016D0022D14D000270126062D87
:10BC500014D005A806F0E8F998B106700C2D1BD297
:10BC600000E01EE0DFE805F018101810181718178C
:10BC70001812141248F20A6007B0F0BD267067600F
:10BC8000B3E748F20760F7E7077105E0032100E03A
:10BC90000221017100E0067105A806F0D3F906F053
:10BCA00085FA0020E8E70000A85B0020D85C0020AF
:10BCB000B8550300943A03202055030038B504001A
:10BCC00014D0694606F05EFBB0B1BDF8000000EB91
:10BCD00080010B4800EB8100C16851B1A17A41B1EC
:10BCE000C168491EC1600020A07238BD48F20460DE
:10BCF00038BD48F2056038BD48F2096038BD000023
:10BD0000203B03201FB501A9684606F0F3FA04B0F2
:10BD100010BD07B513460A466946002006F0EAFA48
:10BD20000EBD07B513460A460021684606F0E2FA42
:10BD30000EBD20B119B1006808600020704748F2BC
:10BD400004607047F8B50D46040018D0BDB16946CF
:10BD500006F018FBB0B1BDF800000C4900EB800004
:10BD600001EB800001210C30666801F0EDFD2E60D2
:10BD700060680C3068600120A0720020F8BD48F2B5
:10BD80000460F8BD48F20960F8BD0000203B0320C4
:10BD900018B10323002208F001BE48F20460704786
:10BDA0000223002208F0FABD094910B50A69042AE5
:10BDB0000AD0084A096942F82100054801211030DB
:10BDC00001F0C2FD002010BD48F20B6010BD000064
:10BDD000885B0020843A03202DE9F84F044624486C
:10BDE0000078D8B1F4B112212046FBF7A0FB032064
:10BDF000DFF880902080002504F1100804F10E0A7D
:10BE000005EB850109EB810630897189084487B209
:10BE1000706804F095F8032807D009E048F2016043
:10BE2000BDE8F88F48F20460FAE72088401E2080C1
:10BE30006088F16808446080208971890844208105
:10BE4000608938446081C7F58060A18980B28142F1
:10BE500000D2A0815346A21D211D2846CDF80080A6
:10BE600006F02CFB6D1CADB2022DC9D30020D7E724
:10BE7000A85B0020203B032043F6FE71A0F5404064
:10BE8000884201D8012070470020704710B5044651
:10BE90000078182802D1FEF765F8207010BD10B5A3
:10BEA00004460078182802D1FEF75CF8207010BD17
:10BEB0000AB101F036BD01F0E9BC70B50D4604468B
:10BEC000B0F81414D0F810040122FDF7EBFC00B117
:10BED000057004F13C0204F5826104F1540072DF44
:10BEE00070BD000070B5134600220546112900D12F
:10BEF0000122074C33B12179FEF758F8002261780E
:10BF0000284600E06178BDE87040FEF74FB80000B9
:10BF1000E85A00204078704700787047024A52F88B
:10BF2000202008461047000078880300F7B5174620
:10BF30000E0011D00098002560B10024214668460B
:10BF400001F0E4FC18B1A0B23946B0476D1C641C86
:10BF5000142CF3D32846FEBD0020FEBD406806F039
:10BF600083B800000EB517A19DF8080020F00F005F
:10BF7000401C20F0F00010308DF808000C2202A8C0
:10BF80007CDF08B1FDF7D6F8C02078DF08B1FDF7F7
:10BF9000D1F80020009001904FF4A071ADF804009A
:10BFA000ADF800104FF4C8704FF40271ADF8060000
:10BFB000ADF8021068467ADF002801D0FDF7BAF824
:10BFC0000EBD00005A48445F57617463685F4D318D
:10BFD0000000000070B510B14FF4064070BD1C4C5D
:10BFE0000025207B08B1257301E000F0A5F820783A
:10BFF00008282AD2DFE800F02904080C10291422AE
:10C00000BDE8704000F026B8BDE8704000F082B88E
:10C01000BDE8704000F064B8BDE8704000F040B882
:10C020000620207060880A4900EB8000283901EB67
:10C0300080004068BDE8704003F0D8BF0720207042
:10C040006560BDE8704003F0DFBF48F20E6070BD70
:10C05000483B03201149F0B48A1C00200346A1F19B
:10C0600028050C18A67A4EB1A37200EB800405EBEC
:10C070008404E66816B9247C012C0AD0401C80B2E6
:10C080000228EED30B704B804B60F0BC41F61D5084
:10C0900070471080F0BC00F03DB80000483B032022
:10C0A0000C48418801EB8102A0F1280101EB8201DB
:10C0B000CA6852B1052101700748022181800168D8
:10C0C00000230122054801F0C5BF0422027049681F
:10C0D000F6E70000483B0320B05B0020D85C00205E
:10C0E00038B50A49084803240B684268898803EB7D
:10C0F000810153880470DB1C00201B0400909B0B03
:10C10000034802F0FBF838BD483B0320B05B002039
:10C11000D85C0020074910B54888091D06F082F94F
:10C1200018B1BDE81040FFF7DBBFBDE81040FFF7D6
:10C13000B7BF0000483B032070B5194C012120789F
:10C1400008281AD2DFE800F00419191C252929183B
:10C150002089134A401C2081002060802073283AE7
:10C1600000EB800312F8233043B100232518401C54
:10C1700080B2AB720228F3D3217070BD0123F5E7C2
:10C180006068084940888A88C01C10448880022062
:10C1900004E000F009F8062000E00720207070BDE0
:10C1A000483B0320B05B00200A49094849880268DF
:10C1B00001EB81030749283901EB83014B680360D8
:10C1C0004A6082880A8102228280002008747047B7
:10C1D000B05B0020483B03202DE9F04306468088F1
:10C1E0003288DFF85C8185B00746502A37D010DCF2
:10C1F0005449554B06F10A05A1EB03014FEAD10161
:10C200004FF0020303EB0144352A3AD0362A07D116
:10C2100068E0522A02D0542AF9D102E000F05AFF15
:10C2200082E0142249496846FBF75AF9ADF80270DA
:10C23000384600F0AFFCADF8040000F0AFF9002282
:10C24000444698F804103846FDF7B0FE0022E17825
:10C250003846FDF7ABFE6846FFF792FB64E0307BA3
:10C26000012861D1B07A01285ED13089A0F524512E
:10C27000023959D10121384600F080FF07F0C2FE93
:10C2800052E098F80610FDF779FE00284CD0002205
:10C2900098F806103846FDF789FEF288B2F5857FDA
:10C2A00017D012B120462AA10BE02A88012A03D018
:10C2B000204636A102F0E0FC6A88012A04D020461C
:10C2C00041A102F0D9FC04E0A98800223846A1DF90
:10C2D00008B1002125E0012298F807103846FDF743
:10C2E00065FE21E04FF0000998F80710FDF746FEC3
:10C2F000D0B1002298F807103846FDF757FEF288B3
:10C3000012B1204612A104E0AA88012A04D02046D6
:10C310002DA102F0B1FC03E0A87900B10120814613
:10C320004946384607F078F90022364998F8020065
:10C33000FDF7BEFD05B0BDE8F04306F013BC0000FC
:10C34000405A0020D0A20300D0A20300CC53030027
:10C35000556E657870656374656420474154542058
:10C36000737461747573207768696C652067657490
:10C3700074696E6720434152206368617220766160
:10C380006C75653A20307825780000004D756C7426
:10C3900069706C6520282564292043415220636818
:10C3A0006172616374657269737469637320666F27
:10C3B000756E642C207573696E67207468652066DD
:10C3C000697273742E000000556E65787065637431
:10C3D00065642043415220636861726163746572D1
:10C3E00069737469632076616C7565206C656E672E
:10C3F000746820282564292C2073746F726520309E
:10C400002E000000B594020070B5044600780028A4
:10C4100014D1608800F05EFE6588284600F080F93F
:10C4200028B107480122C1782846FDF7BFFD608882
:10C43000FEF76CFCBDE8704007F0E4BD70BD000085
:10C44000405A002070B5204C00252570FDF78AFD6C
:10C450006070FDF787FDA070FDF784FDE070FDF7CB
:10C4600081FD2071FDF77EFD6071FDF77BFDA07100
:10C47000FDF778FDE07162780121182A18D0A278C2
:10C48000182A15D0E278182A12D02279182A0FD04B
:10C490006279182A0CD0A279182A09D0182807D056
:10C4A00004F10C000560BFF35F8F2170002070BDA8
:10C4B0000648074A801AC00801EB0040054902F00F
:10C4C000D7FB032070BD0000405A0020D0A203001B
:10C4D000D0A20300608903007CB5044600780828D8
:10C4E00037D1607A58BB207A1C4E4FF6FF75012871
:10C4F00011D0072802D008282BD121E0A08800F015
:10C5000093FA0446A84224D0012100F037FE2046C9
:10C51000FEF7FCFB1DE0A0886A46012103F01CFF2A
:10C5200068B90198007850B1A08800F07DFAA8425F
:10C530000FD00122F178FDF739FD06F013FB08E07A
:10C54000F068012805D1BFF35F8F044900200C314A
:10C550000860BDE87C4007F055BD0000405A00204F
:10C5600010B5C0B2FEF7BAFB0446007803F006F837
:10C5700001466078012801D0012000E0002090EA07
:10C58000010F08D00449D1E90401084303D1BDE8F3
:10C59000104007F099B810BD705B00201CB5054A2B
:10C5A000D2E90212CDE900120022694604F09AF89D
:10C5B0001CBD0000E453030003484FF6FF71818067
:10C5C0000121017000207047505A00202DE9FC41E4
:10C5D000804600F0DFFA002403250127A0F57F4103
:10C5E0002646FF3908D06A46082103F0B5FE18B97F
:10C5F0000198841D8688056832462B4621464046B0
:10C60000B1DF042804D0082804D00B2808D002E0A9
:10C61000112000E00020002F00D10B20BDE8FC819C
:10C620000027A80701D50125E6E7344303D00024FD
:10C6300026460325E0E7064806494246401AC00858
:10C64000012101EB0040044902F016FBE5E7000080
:10C65000D8A20300D0A20300288C03002DE9FC41DE
:10C66000804600F097FAA0F57F410646FF390ED0CC
:10C6700001252A466D1C0027ADB26B4608213046C5
:10C6800003F0B4FE040006D0072C33D033E043F2AD
:10C690000200BDE8FC81019903230A1D0B6040469E
:10C6A000891DB2DF040004D00C2C09D0052C09D060
:10C6B00009E032460821104603F010FF04461AE054
:10C6C000012700E000240821304603F0FDFE70B190
:10C6D00002F018FE0346094809493246401AC008CC
:10C6E000012101EB0040074902F0CDFA0324002F9D
:10C6F000BFD100E00C242046CBE70000D8A2030005
:10C70000D0A20300A88B030004488088A0F57F41D5
:10C71000FF3901D006F030BA70470000505A0020AF
:10C720000EB502A9019100F035FA6A46012103F025
:10C7300013FE08B100200EBD019800780EBD000068
:10C740002DE9F04107464FF6FF761048B3DF78B188
:10C7500002F0D8FD02460E480E49401AC0080121D9
:10C7600001EB00400C4902F087FA0320BDE8F0819C
:10C77000064C43F20305A41E324661883846AFDFFB
:10C78000A842F3D16088401C6080F5E7525A00202F
:10C79000D8A20300D0A203005C8B0300428800EB08
:10C7A00082020C328A4201D9022070478188A1F5A9
:10C7B0007F42FF3A06D0018821B18068401C01D039
:10C7C0000020704701207047884204D20068401C56
:10C7D00001D00120704700207047000010B51249B9
:10C7E000124806F092F9114C81B2303CA068401C0E
:10C7F000A0600F48FDF780FE58B1082809D0132823
:10C8000007D0112805D043F20141884201D0FCF73E
:10C8100091FCA0680321B0FBF1F201FB120000B112
:10C820000120207010BD0000B4610020A859002034
:10C83000005D00202DE9F041044640799046002536
:10C8400000B1042594F8220008B145F00205CAB2EF
:10C85000FF2908D9090A88F8012045F0010588F860
:10C860000210032602E088F801200226B4F84C00EA
:10C8700008B145F0100500271BE000BF94F84E10EA
:10C88000B21C91420BD2B4F84C0004EB4701C01B20
:10C89000420004F124002431FAF722FE0DE004EBFB
:10C8A000470008EB0601808C0870000A4870D6B279
:10C8B0007F1CB4F84C00B842E0DC34F84C0FC01BCD
:10C8C000208088F800503046BDE8F0813EB50278FF
:10C8D00002230C46B3EB520F17D1B0F80110ADF89C
:10C8E0000010C1788DF802108188ADF804108079AD
:10C8F0008DF8060002AA01A92046FCF755FB032289
:10C9000002A96846FAF725FE08B100203EBD0120C5
:10C910003EBD000070B50D460446142810D2FDF748
:10C9200061FB68B1084904EB840001EB4000D0F8DA
:10C9300002102960C188A980007AA871002070BD0A
:10C9400043F2020070BD0000E435032070B5018899
:10C9500090B0102961D1011D2C226846FAF7C0FD64
:10C960009DF804004FF6FF7603213446B1EB500FDB
:10C970002BD003F075FE9DF804006D4640080ED0E4
:10C9800001280CD0022820D118E00D99281D113162
:10C99000FCF798FA18B100BFBDF82C4015E00CAABE
:10C9A0000BA9072003F030FE0028EED10DE00D9911
:10C9B000281D491CFFF78AFF0028EDD10CAA0BA9FE
:10C9C000072003F021FE0028F1D1BDF80000B44299
:10C9D00000EB8001124820F8114000EB4100019962
:10C9E000C0F80210BDF80810C1809DF80A1001724D
:10C9F00013D0BDF80000ADF82E000020ADF8304097
:10CA0000084E8DF82C000BAD044600BF56F82410DC
:10CA100028468847641C022CF8D310B070BD000073
:10CA2000E4350320F85303002DE9F0414FF6FF767B
:10CA30000546B04213D00B4F002400BF04EB840026
:10CA400037F81000A84206D12046FDF7CBFA10B106
:10CA50002046BDE8F081641CA4B2142CEED330460D
:10CA6000F7E70000E43503203EB50C46054603F029
:10CA7000F7FD0BE0BDF80000A04207D02846029960
:10CA800000F00EF810B1BDF800003EBD01AA6946E5
:10CA9000072003F0B9FD0028ECD14FF6FF703EBD32
:10CAA0002DE9F0410C46054600F1110701F1110690
:10CAB0001022491C401CFAF74CFD48B9681C00F0D4
:10CAC00025FA28B1601C00F021FA08B1012400E029
:10CAD000002431463846FCF7F5F93B780222B2EBE8
