:020000040002F8
:10700000B0460320957402009D740200B572020020
:10701000A1740200A3740200A57402000000000025
:1070200000000000000000000000000015720200D7
:10703000A97402000000000059720200AD74020041
:10704000C5760200AF740200097E0200B577020027
:10705000C5770200AF740200E1750200AF74020050
:10706000AF740200AF740200AF7402001D7702001B
:10707000AF740200AF740200AF740200AF7402007C
:10708000AF7402004D770200AF740200AF740200CB
:10709000AF740200AF740200017C0200AF74020002
:1070A000AF740200AF740200AF740200AF7402004C
:1070B000AF740200AF740200000000000000000086
:1070C000AF740200AF740200AF740200AF7402002C
:1070D000AF740200AF740200AF740200AF7402001C
:1070E000AF740200AF740200AF7402000000000031
:1070F00000000000AF74020000000000D57702001D
:10710000000000000000000000000000000000007F
:10711000000000000000000000000000000000006F
:10712000000000000000000000000000000000005F
:10713000000000000000000000000000000000004F
:10714000000000000000000000000000000000003F
:10715000000000000000000000000000000000002F
:10716000000000000000000000000000000000001F
:10717000000000000000000000000000000000000F
:1071800000000000000000000000000000000000FF
:1071900000000000000000000000000000000000EF
:1071A00000000000000000000000000000000000DF
:1071B00000000000000000000000000000000000CF
:1071C00000000000000000000000000000000000BF
:1071D00000000000000000000000000000000000AF
:1071E000000000000000000000000000000000009F
:1071F000000000000000000000000000000000008F
:10720000DFF80CD000F0AEF90048004725BA0200C4
:10721000B0460320264B19680868B0E8F04F80F3A9
:107220000988BFF36F8F4FF0000080F3118870471B
:10723000000000000748006880F3088862B661B665
:10724000BFF34F8FBFF36F8F4FF4F07080F311884F
:1072500000DF000000700200EFF30980BFF36F8FC2
:10726000134B1A681EF0100F08BF20ED108A20E99A
:10727000F04F106008B44FF0400080F31188BFF366
:107280004F8FBFF36F8F09F0B3F94FF0000080F319
:10729000118808BC19680868B0E8F04F1EF0100F9C
:1072A00008BFB0EC108A80F30988BFF36F8F704776
:1072B000E4590020094B1EF0040F1CBFEFF30980B6
:1072C0001847EFF308800649064A884201D89042E1
:1072D00002D88D464FF00000184700008576020066
:1072E000B0460320B03E032030B450E8012F93B2E3
:1072F000C48923448489A34228BF1B1B0489A34259
:1073000002BFBFF32F8F002007E0C3EA020340E86B
:107310000134002CE9D14FF001000A6030BC704705
:1073200050E8012FC2EA024240E801210029F7D1CA
:10733000704730B450E8022F1FFAA2F3C488A3426A
:1073400002BFBFF32F8F00200DE0C489234484893E
:10735000A34228BF1B1BC2EA034340E80234002CAF
:10736000E8D14FF001000A6030BC704750E8022FAE
:10737000C2EA224240E802210029F7D170470346C1
:1073800053E8022FD988B2EB324F4FF0000017BFFD
:1073900092B241EA014142EA014104E05A68B2EB8B
:1073A000324F08BF012043E80212002AE8D170479B
:1073B00030B4044654E8000F0D4644E80053002B57
:1073C000F8D1156030BC704730B4044654E8000F63
:1073D00040EA010544E80053002BF7D1156030BCAA
:1073E000704730B4044654E8000F00EA010544E851
:1073F0000053002BF7D1156030BC704730B4044601
:1074000054E8000F80EA010544E80053002BF7D14F
:10741000156030BC704730B4044654E8000F00EBF0
:10742000010544E80053002BF7D1156030BC7047CC
:1074300030B4044654E8000FA0EB010544E80053C3
:10744000002BF7D1156030BC704770B404464FF084
:10745000000054E8006F0D68AE4207BF44E8002307
:10746000012044E800630E60002B1CBF0020F0E701
:1074700070BC704730B4044654E8000F88422CBFFB
:10748000451A054644E80053002BF5D1156030BC81
:10749000704700000648804706480047FEE7FEE7C1
:1074A000FEE7FEE7FEE7FEE7FEE7FEE7FEE7FEE7B4
:1074B000357C020001720200202A04DB203A00FA27
:1074C00002F1002070479140C2F1200320FA03F33B
:1074D00019439040704710B5431A934209D283185C
:1074E000881803E010F8011D03F8011D521EF9D29F
:1074F00010BD40EA01039B0703D009E008C9121F31
:1075000008C0042AFAD203E011F8013B00F8013B5D
:10751000521EF9D210BDD2B201E000F8012B491E73
:10752000FBD270470022F6E710B513460A46044620
:107530001946FFF7F0FF204610BD421C10F8011B52
:107540000029FBD1801A704730B50446002003465D
:1075500000E05B1C934203D2E05CCD5C401BF8D0A2
:1075600030BD0000064C074D06E0E06840F0010326
:1075700094E8070098471034AC42F6D3FFF744FE76
:107580006CF705008CF7050070B58C1810F8015BDE
:1075900015F0070301D110F8013B2A1106D110F8AC
:1075A000012B03E010F8016B01F8016B5B1EF9D1B0
:1075B0002B0705D40023521E0DD401F8013BFAE736
:1075C00010F8013BCB1A921C03E013F8015B01F8A1
:1075D000015B521EF9D5A142D8D3002070BD000036
:1075E0002DE9FC410025DFF8948000954FF480766A
:1075F00001242F460195304605F0B0F838B1D8F88F
:107600000403204203D0304605F09EF82543361D82
:1076100064007F1CB6B2082FEDD34FF4BE74204631
:1076200005F09CF848B1204605F08EF845F000457D
:107630006A460221002004F0CDFF15F0FF0F16D09E
:10764000012600242E420ED008EB8401D1F810054B
:10765000D1F81015C0F30520094AC1F3014152F8D1
:10766000242002B190477600641C082CEAD3002D38
:1076700002DA684606F0A6FCBDE8FC810060004026
:10768000D4370320054909680449091D0968002108
:10769000491C1A29FCD300F003F8000028ED00E093
:1076A000BFF34F8F05480168054A01F4E0611143BB
:1076B0000160BFF34F8F00BFFDE700000CED00E05D
:1076C0000400FA0570B54FF48076304604F0A4FD4E
:1076D000114CB50560B1304604F0A5FD0120C5F898
:1076E0000803607920B90120607121680020884773
:1076F0004FF48276304604F08FFD00280AD03046E1
:1077000004F091FD0220C5F808032168BDE870402F
:107710000120084770BD0000FC5A00200948D0F83D
:10772000401100290DD00021C0F8401101218160D5
:1077300005488268C1691144C161C068002800D051
:107740000047704700B000406C5B00202DE9F0411D
:10775000164E4FF4A071304605F00AF80025EFF3FD
:107760001184402080F31188D6F8047581003046DA
:1077700004F0FEFF09F094FB381A20F07F46012E3A
:1077800007D909F07FFB022803D0002609F094FBFB
:107790000543761EFAD225B105494FF080500860A6
:1077A00040BFE0B280F31188BDE8F08100100140D5
:1077B00004ED00E00149024803F0C0BF7C3803201B
:1077C0000030004002494FF0402008F003BA0000AA
:1077D000403803200149024803F0B0BFA03803201D
:1077E00000F0024010B504463A2000F07DF904F0A4
:1077F0007700BDE8104000F091B908B1292000E001
:10780000282000F071B92DE9F0411546069E044686
:10781000F0282BDAF02929DA6019401EF02802DB63
:10782000C4F1F00005B2C818401EF02802DBC1F117
:10783000F00003B288B2CF1816E0411C8846CBB2E4
:107840006119491ECAB2C1B2E0B200F091F92C46EA
:1078500006E03046B61C012100F022F9641E24B275
:10786000002CF6DC1FFA88F08742E6DCBDE8F081E8
:107870001FB50446EF2300211A46084600F078F9A8
:107880004FF461412046FFF74DFE084A01AB07CA9D
:10789000009483E8070000226946054805F050FB84
:1078A00000226946024805F04BFB1FBD9C140300F3
:1078B000945B00202DE9FF470E468046EF23002110
:1078C0001A46084600F054F9174A01AB4FF4E13765
:1078D00007CA009683E8070000254FF6FE79781B5B
:1078E0004C46A04200D20446002001940DE000BFA7
:1078F00000EB550106EB400318F811205A7038F8D8
:107900001110090A06F81010401CB0EB540FEFD309
:10791000002269460548009605F012FB2544BD4249
:10792000DDD3BDE8FF870000AC140300945B0020AA
:1079300070B51C461546F02822DAF02920DA4219E3
:10794000F02A02DDC0F1F00215B20A19F02A02DDB8
:10795000C1F1F00214B20A19521ED3B24219521EDA
:10796000D2B2C9B2C0B200F003F9002614FB05F48C
:1079700004E0012104A800F093F8761CB442F8D882
:1079800070BD08B5F023002100901A460846FFF7A5
:10799000CFFF08BD10B5044604280AD8262000F001
:1079A000A3F80120641EA040BDE81040C0B200F062
:1079B000B5B810BD10B52D2004F02EFE0A2004F03D
:1079C0004BFC2D2004F0A3FEBDE81040962004F0EF
:1079D00043BC10B5282004F03FFCFFF7EBFF00F09C
:1079E00006F9002000F0F6F85520FFF7FBFE0A200C
:1079F00004F032FC012200231146042000F020F89C
:107A00000A2004F029FC012000F014F80220FFF7FE
:107A1000C1FF0A2004F020FC0020FFF7B2FF222063
:107A200004F0FAFD0120FFF7E8FEBDE810406420F5
:107A300004F012BC08B1212000E0202000F054B86E
:107A40002DE9F04100F00705984616460F4636200E
:107A500000F04AF8082D14D2DFE805F00406080A01
:107A60000C0E101200240CE040240AE0802408E0F0
:107A7000C02406E0202404E0602402E0A02400E00A
:107A8000E02407B1102406B10424B8F1000F01D09E
:107A900044F008042046BDE8F04100F03FB8000083
:107AA000F0B585B00C46054604AE0D4F12E02878BF
:107AB0008DF81100288801AB000A8DF8100007F13D
:107AC0002C0007C8009683E8070000226946054895
:107AD00005F036FA641EA4B2E9D205B0F0BD00008C
:107AE00060140300945B002001B584B01E2004F0F4
:107AF00093FD084A01AB07CA83E8070004A8009079
:107B000000226946044805F01BFA1E2004F0FFFD20
:107B100005B000BD6C140300945B002001B5074A5A
:107B200084B001AB07CA83E8070004A800900022D4
:107B30006946034805F004FA05B000BD7C14030053
:107B4000945B002010B5094BD0E90040C3E9024026
:107B5000107818701E20596004F018FD2D2004F0D4
:107B600015FDBDE81040222004F010BD8C5B002004
:107B70002DE9F04114461F460D460646A04210D896
:107B8000F02C0ED82A20FFF7AFFF300AFFF7C6FF10
:107B90003046FFF7C3FF200AFFF7C0FF2046FFF77C
:107BA000BDFF3C46A54210D8F02C0ED82B20FFF785
:107BB0009BFF280AFFF7B2FF2846FFF7AFFF200A16
:107BC000FFF7ACFF2046FFF7A9FFBDE8F0412C20EE
:107BD000FFF78ABF10B508B1102000E01120FFF7B1
:107BE00083FFBDE810404FF4FA7004F035BB10B5C8
:107BF0000120FFF779FFBDE81040822004F02CBB84
:107C000008B50020009009486946006808F052FC59
:107C10000098002808D006494FF08050086040BF07
:107C2000BFF34F8FBFF36F8F08BD0000645B002070
:107C300004ED00E070B54FF080520124D2E94C1001
:107C40000023082906D1CD06C5F80C31C5F810313E
:107C50005E4D2B60082955D15D4D2D685D4E356018
:107C60005B4D2D1D2D68361D3560594D08352D682D
:107C7000361D3560564D0C352D68361D3560544D1A
:107C800010352D68361D3560514D14352D68361D63
:107C900035604F4D18352D684E4E203635604C4DB1
:107CA0001C352D68361D3560494D20352D68361D33
:107CB0003560474D24352D68361D3560444D2835D7
:107CC0002D68361D3560424D2C352D68361D3560CA
:107CD0003F4D30352D683F4E403635603C4D343594
:107CE0002D68361D35603A4D38352D68361D3560A6
:107CF000374D3C352D68361D3560354D40352D6886
:107D0000361D3560082904D1050002D1334E324DAD
:107D10003560082904D1050002D1314EFB253560BC
:107D2000082908D1050006D192F858622D4A156835
:107D300066F303051560082904D1020002D12A4D1B
:107D40008A012A60082906D128480168C90702D09B
:107D50006FF0010101602648016841F47001016083
:107D6000BFF34F8FBFF36F8F4FF01021D1F8000298
:107D7000002803DBD1F80402002822DA1D4A14602F
:107D80001D480468002CFCD01224C1F8004205688C
:107D9000002DFCD0C1F8044201680029FCD013601A
:107DA00001680029FCD0BFF34F8F11487C3801686F
:107DB000124A01F4E06111430160BFF34F8F00BF2D
:107DC000FDE710490E48086070BD0000380500400E
:107DD0000404001020C50040488103008C56004078
:107DE00018F50040E40E00404096024000040040B8
:107DF00088ED00E004E5014000E401400400FA05DC
:107E00000090D003C45B00200148006800470000D8
:107E1000045B00202DE9F04782460F4C10480D4EC0
:107E20000E4F001B4FF0000820F007054FF001092E
:107E300000221146504603F059FC002802D1306858
:107E400010B10020BDE8F0873C60C4E90058C6F8D6
:107E50000090EDE7CC5B0020B43A0320C85B002023
:107E6000B03E032002E008C8121F08C1002AFAD160
:107E700070477047002001E001C1121F002AFBD1AA
:107E8000704700000121202803DA814005480140A5
:107E900003E0402802DA2038814009B10120704710
:107EA00000207047FC06FFBD10B560B159B10278E3
:107EB0000B785208B2EB530F05D10622401C491C27
:107EC000FFF742FB08B1002010BD012010BD800764
:107ED00001D00020704701207047C3688B4206D84C
:107EE00011440069491E814201D8012070470020D9
:107EF000704790F82400012801D01F207047EE2021
:107F0000704710B501220221002001F0FDFB08B1ED
:107F1000072810D107220221012001F0F5FB08B14A
:107F2000072808D100210A22084601F0EDFB08B11C
:107F3000072800D1002010BD10B5007810B105F061
:107F4000CDFF03E00321054800F09EFC002803D08C
:107F5000BDE8104000F0A0B810BD0000685C002033
:107F600070B58CB015460E4600236C46C3F10F0168
:107F7000415CE1545B1C102BF8D30D2104F110007F
:107F8000FFF7D0FA0020C0F10F02315C2244401C00
:107F900011740328F7D3684646DF0020C0F10F01B3
:107FA000214491F820102954401C0328F6D30CB02A
:107FB00070BD022001F0AABA0149C97800F0D4BE10
:107FC000945A002070B50024064D06E0686801212F
:107FD00010F8340004F0A6FD641C28788442F5D320
:107FE000002070BD105B0020F8B516460C46054613
:107FF0000A2A01D20720F8BD04F08CFE18B904F05B
:108000004DFE0028F7D1134F202113487D603C70AE
:10801000BE60FFF787FA0020C7E904000F4E0DE0AD
:1080200005EBC4003168009181788DF8011000786B
:108030000B4A694604F0C2FD0028DCD1641EE4B29C
:10804000EED2BDE8F84005480021064A001D00F0C8
:1080500041B80000105B0020E43803206C130300DB
:10806000BDAF0200A5A0020072B609480068C007B3
:1080700000D000BEBFF34F8F0548E4380168054AC1
:1080800001F4E06111430160BFF34F8F00BFFDE7D2
:10809000F0ED00E00400FA050EB500210091CDE9F5
:1080A00001106A4644F20100FFF7DEFF0EBD10B575
:1080B00006F04EFB017B00290BD0417B39B100213A
:1080C000017301688268BDE810400846104701212D
:1080D000F6E710BD38B5046800251AB110B1207B51
:1080E00020B901E0072038BD606808B1082038BD1C
:1080F00000202060A060E06011B10120002101E0BB
:10810000002001216173A2600649024600912346C6
:108110004FF47A7104A008F0E7FF606000B90E2503
:10812000284638BDAF8002002000000000207047C4
:108130007CB54668044626B1207B002803D0002089
:108140007CBD08207CBDEFF30580226008B30025CC
:108150000A46019501AB09213046009508F0FEFF63
:1081600001282BD108F0A2FE024601AB06213046C1
:10817000009508F0F3FF012820D1019800B31249BF
:108180004FF08050086040BFBFF34F8FBFF36F8F39
:1081900016E002250A46002304213046009508F027
:1081A000DDFF01280AD108F07BFE024600230121F1
:1081B0003046009508F0D2FF012801D004207CBD94
:1081C00001202073BBE7000004ED00E07CB504460D
:1081D0004068002500280CD0EFF30581B9B1019566
:1081E00001AB00220821009508F0B8FF012817D143
:1081F00001E008207CBD0198A0B10C494FF08050EF
:10820000086040BFBFF34F8FBFF36F8F0AE00221BA
:10821000002300911A46032108F0A0FF012801D095
:1082200004207CBD257300207CBD000004ED00E02F
:1082300030B5EFF3108172B60D4A9468012324B172
:108240000370002900D162B630BD93604FF0E02387
:10825000D3F88051074C25401560C3F88041D3F80E
:10826000844154605A17C3F8842100220270E8E761
:1082700004390320FC06FFBD0B498A68002A11D08F
:1082800000280FD1EFF3108072B60B684FF0E02298
:10829000C2F800314B68C2F8043100228A6000281D
:1082A00000D162B6704700000439032038B508F0E9
:1082B000F7FD1D4C02250246009500230121E068D0
:1082C00008F04CFF012802D00420FFF7E5FE08F07B
:1082D000E7FD0246009500230121206908F03EFFDA
:1082E000012802D00420FFF7D7FE08F0D9FD02468E
:1082F000009500230121606908F030FF012802D0B9
:108300000420FFF7C9FE08F0CBFD024600950023CC
:108310000121A06908F022FF012804D0BDE83840FF
:108320000420FFF7B9BE38BD7859002003F03EBBEA
:108330002DE9F04380460588384800268BB0017847
:108340003246284600F028FD98F80500400701D481
:10835000002154E005F58077B8B203AB0122072174
:1083600005F014F8010003D0284606F061FEEFE79F
:10837000284603F003F94FF6FF710446884225D1E1
:108380008946049803F064F804464946484510D0ED
:108390000146284603F0D2F82846FFF70DFEA8B99B
:1083A000284606F017FE2846FFF706FE0028CFD025
:1083B0000CE00E4605F066F90446B04201D10421F6
:1083C000D2E70146284603F0B9F80126B8B22246A2
:1083D000072105F041F8010010D0862913D0284666
:1083E00006F026FE0021404604F012FF002E02D0C7
:1083F000204603F0ADF80BB0BDE8F0830121404604
:1084000004F006FFF7E71422054905A8FFF763F813
:10841000ADF8165005A802F0E7F8EFE7945A0020EF
:108420001813030070B5044690B0087B0D468DF814
:108430003800202105A8FFF775F842F61920ADF89D
:1084400014000120ADF81800ADF81A000EA807902E
:10845000617C9DF82100A21D61F3041040F0020030
:108460008DF82100A87B8DF82700687B8DF825000A
:10847000A08805A901F04EFB00281CD1A968E1B134
:108480000FA800F0F8FF064614216846FFF74AF8E7
:1084900042F60810ADF80000E87B8DF806000FA842
:1084A000ADF80A60ADF80E600490E08804F10E02A9
:1084B000694601F0A1FD10B070BD0020E081FAE72F
:1084C00010B50D490D4806F02AFEC1B24FF6FE72F6
:1084D0000B4800F0F1FA00280DD008280BD0132823
:1084E00009D0112807D043F20141884203D0BDE8EA
:1084F0001040FFF7D1BD10BD9C6000209C590020AA
:10850000E45B00200A4601461046AEDF70472DE9C5
:10851000FC47002517880646158090F82D00144664
:10852000894630B13A462146484600F05BFC051EBC
:1085300009D1B0784FF00C0A18B32088C846001D46
:10854000B84202D95046BDE8FC87684679DF00286A
:10855000F9D12088032108F8001020881921401C37
:1085600080B2208008F800102088401C80B2208053
:1085700000EB0801BDF8000007F014FD2188084455
:108580002080F0780222C8B1218896F9033001F1E9
:10859000030C4846BC45D5D8425421884FF0010C05
:1085A000491C89B2218000F801C02188491C89B288
:1085B000218009F801302088401C20807068B8B103
:1085C000218890F9003001F1030C4846BC45B9D828
:1085D000425421880A22491C89B2218042542188B0
:1085E000491C89B2218009F801302088401C208074
:1085F000308950B1CDE900474B460622022106F1F1
:10860000080007F0A7FD051E9DD1308A50B1CDE9C5
:1086100000474B460722032106F1100007F09AFDA0
:10862000051E90D1308B50B1CDE900474B46152245
:10863000142106F1180007F08DFD051E83D1306A64
:1086400030B13B462246494601F08DFB051EDBD189
:10865000706A30B13B462246494603F007FB051ECF
:10866000D2D196F82C0038B13B46224649463046D6
:1086700006F022FE051EC7D1307838B13B462246AF
:108680004946304603F028FB051EBDD128465AE76F
:1086900018B504460020ADF8000013466A4620468F
:1086A00000F006F8002802D0BDF80000204418BDF4
:1086B00070B5E0B1DAB1002402E0045D2C44A4B24C
:1086C000651C8D4206D21688A642F6D80619767821
:1086D0009E42F2D18C420AD2A31C005D9BB200B133
:1086E000401E0004000C02D01C188C4201D900204E
:1086F00070BD138070BD80F8301070472DE9F041D7
:108700000D00044606D02CB195F87A000026012809
:1087100003D006E00E20BDE8F08195F8980001280E
:1087200021D04FF00108A6702C2205F17801201D00
:10873000FEF7D1FE84F83060D5F8A4006063D5F868
:10874000A800A0634FF6FF70A4F8240404F582602B
:10875000C4F82004C4F82664A4F82A6484F82C64BD
:10876000207810B104E00720D5E7FF2084F85400FA
:1087700004F155072046C4F81074FFF7BAFBA4F8BB
:10878000140404F2144239462846FFF7C0FE0028BC
:10879000C1D104F23120C4F818042046FFF7A9FB28
:1087A000A4F81C0404F21C4205F13C00D4F818148F
:1087B000FFF7ADFE0028AED184F85180208BA4F8DD
:1087C000480084F83C80266484F850606069002189
:1087D0006064454604F13C02781E72DF00289AD19D
:1087E000257098E710B50288102A1BD0112A20D0D6
:1087F000262A1DD1007A0C46012801D0022817D163
:10880000A0780521401CB0FBF1F201FB12012046CB
:1088100000F03AF800280BD0A16B002908D0BDE881
:1088200010400847C27B012A02D18088A1F82404A5
:1088300010BD0C46002184F82E148088B4F824144E
:108840008842F5D120790028F2D10121DFE710B567
:10885000044690F8540074DF012084F82E040020B0
:1088600084F8300484F850000621204602F0F5F820
:10887000002808D1A178204600F006F810B1A16BBD
:1088800001B18847002010BD2DE9F05F0446007853
:108890000F4698B1A7700025C4F82654A4F82A54AE
:1088A00084F82C54A079012608B1012F09D0E07971
:1088B00080B1012F05D0022F03D00BE00820BDE8C6
:1088C000F09F616B21B184F82D640820884701E096
:1088D00084F82D5404F2274100200A5C0AB1304686
:1088E00003E0401C0628F8D300204FF002084FF0A8
:1088F000030B012F06D0022F0CD0032F0FD0042F13
:1089000015D110E0A17929B194F8241011B908B15A
:1089100030460DE0E17911B108B1404608E0207A17
:1089200008B1584604E0607A08B1042000E0284607
:10893000A070616B41B1032801D0042804D1607993
:1089400010B194F82E0498B184F82F5404F13C002F
:1089500018210746FEF7E6FD84F83C6004F12C0080
:1089600004F0B0FF58B194F82C0084F8510008E0EE
:1089700084F8305484F82F6407208847E6E784F8A9
:10898000516094F8240058B104F1280004F09AFFD3
:1089900020B194F8280084F8520001E084F8526075
:1089A00084F85050A27804F2264104F582694FF011
:1089B000060A052A64D2DFE802F07C030F22420097
:1089C00084F83160C4F82054C4E9101584F83C8060
:1089D0008020A4F8480055E084F8318094F82420E1
:1089E000384612B10722027001E080F800B0228AF6
:1089F0008281C4F820544160E168B96042E0606956
:108A0000B860208BB88194F824003D4600282046A9
:108A100002D084F83CA001E084F83C6007F066FBDB
:108A200050B185F814800421204602F016F838BBB6
:108A3000052184F8311021E084F831B01EE0E069AE
:108A4000B860208CB88194F824003D460028204668
:108A500002D084F83CA001E084F83C6007F046FBBB
:108A600048B185F814800421204601F0F6FF38B99A
:108A700084F831A002E0042084F83100C4F8209486
:108A8000A07878B13A4604F15400D4F8201472DF8B
:108A900000287FF414AF94F8301094F8540073DF7A
:108AA0000028F6D1616B11B194F83100884700209D
:108AB00005E784F83150F5E7F7B594B0174605009F
:108AC0003CD0287C9DF854100024884252D00026C7
:108AD0004FF0010E0D9615A8ADF834E00E90ADF8EC
:108AE0003660E9880DAA4FF6FF70ACDF040026D18E
:108AF0009DF854002874687CA0B30F9610961196C8
:108B00001296E888ADF83C00BDF83600ADF840009C
:108B10000DA811900E981290A7F57F408DF83EE0B9
:108B2000FE3805D039460FA8FFF7ECFC044621E0DB
:108B3000684600F09DF800256F460FE00E2017B044
:108B4000F0BD00BF07EB4506B08800F0EFF8022843
:108B500003D144B10FA9B088AEDF6D1C0098A842C4
:108B6000F0D807E005E0B1880FA8FFF7CBFC04467A
:108B7000F3E708242046E2E738B50D46040018D094
:108B8000BDB12868206028796074FF20207401201E
:108B90008DF8020041F60F00ADF80000221D694675
:108BA0000120A8DF002803D129462046FFF73AFC20
:108BB00038BD0E2038BD38B5002924D0002822D079
:108BC0000288502A1FD10546487C0C4600281AD03E
:108BD000E9886289A81D914215D14189022912D1E3
:108BE000216800290FD00C3000F041FC08B10020B2
:108BF00000E001208DF80000A888ADF8020022688E
:108C000069462046904738BD70B5040012D0014631
:108C10001C221448FEF75FFC1248134D05602068C3
:108C200050B17ADF002806D12068016829604068C9
:108C3000686005E00E2070BD0B487BDF0028FAD18C
:108C400008484FF6FF711438084A20F8041B0549FC
:108C5000343901600021FFF73DFA0028EBD00320F2
:108C600070BD000044340320345A00208500030006
:108C70000149496801F058B86034032010B5044632
:108C800000F0A6F8002805D02146BDE810400248B3
:108C900003F038B910BD00007034032070B51546DC
:108CA0000E46044607F02EFA002809D0054800EBCE
:108CB0008400C0692A463146BDE8704001F0FABE22
:108CC00070BD00006034032010B5044600F080F849
:108CD000002805D02146BDE81040024803F012B933
:108CE00010BD00007834032010B5044600F070F881
:108CF000002805D02146BDE81040024803F002B923
:108D000010BD00007434032070B50546002400F047
:108D10005FF838B12946044803F0F4F808B102249A
:108D200000E00124204670BD6C34032070B5054678
:108D3000002400F04DF838B12946044803F0E2F869
:108D400008B1022400E00124204670BD68340320ED
:108D500010B51821034803F0B0F8182800D0C0B2AD
:108D600010BD00006034032070B505460C4608466F
:108D700007F0C8F960B1284600F02AF840B105486C
:108D8000294600EB8400BDE870401C3003F0BAB8FF
:108D9000002070BD6034032070B5054616460C46B1
:108DA000084607F0AFF900280ED0284600F010F86A
:108DB000002809D00548324600EB84002946BDE86A
:108DC00070401C3001F044BE70BD000060340320D0
:108DD000142801D3002070470146014803F092B8DF
:108DE000643403207CB5054608880C46093090425F
:108DF00001D90C207CBD68466DDF0028FAD121889E
:108E00000820685420881B21401C80B220802954EF
:108E10002088401C80B220802844DDF801100160C9
:108E2000BDF8051081802088801D80B220809DF8CB
:108E30000010490800D0012129542088401C2080BE
:108E400000207CBD1FB5044601208DF8060041F6C8
:108E50000A00ADF80400494A01A90120A8DF002852
:108E60007DD122885AB14548801C009094F83C304E
:108E700042F62920616800F01DFE00287BD122897E
:108E80005AB13E480A30009094F83C3042F6242013
:108E9000E16800F00FFE00286DD1228A5AB13748F0
:108EA0001230009094F83C3042F62520616900F0C1
:108EB00001FE00285FD1228B5AB130481A30009051
:108EC00094F83C3042F62720E16900F0F3FD0028D9
:108ED00051D1228C5AB129482230009094F83C306C
:108EE00042F62620616A00F0E5FD002843D1228D7C
:108EF0005AB122482A30009094F83C3042F628209B
:108F0000E16A00F0D7FD002835D1216B79B102A8C4
:108F100006F0E0FD194808223230009094F83C3009
:108F200002A942F6232000F0C5FD002823D1606B82
:108F300060B112493A3100910279016894F83C30ED
:108F400042F62A2000F0B6FD002814D1A16B89B1A9
:108F500002A805F01CF809484230009000E00AE041
:108F600094F83C30072202A942F6502000F0A2FDFE
:108F7000002800D1002004B010BD0000B25A00202B
:108F800038B504460088212822D008DC174D102867
:108F90000DD0112802D14FF6FF70A88038BD3B28B4
:108FA00020D05628FAD1A088132176DF0AE00720C6
:108FB00000F0CCFB08B1FFF76FF8A188A9800C483E
:108FC00003F0B2F80028E9D0BDE83840FFF764B8F4
:108FD00000200090A08869468FDF0028DED0FFF7D0
:108FE0005BF838BDA088132176DFEBE778590020C5
:108FF0005C5C002010B51A4C0188606810290ED006
:1090000011292BD1401E606028D1FEF77AFF00287D
:1090100024D02168002921D0BDE810400847D0B9EC
:1090200000210122084600F06FFB08B107280FD18C
:1090300007220221012000F067FB08B1072807D1B1
:1090400004220221002000F05FFB20B1072802D09B
:10905000216801B188476068401C606010BD000055
:10906000D05900202DE9F04701883B4E40F2F3191A
:109070004FF6FF7510291BD011293ED0122954D06C
:10908000502946D1C188F289841D914241D161891C
:1090900002293ED18688304602F01EFB050038D0FA
:1090A00004F10C0000F0E3F9A8B3294630464EE085
:1090B000C17B8788044601292BD1A846284602F0A7
:1090C0000BFB050017D02F80002028722348434651
:1090D0004A460168C5F80A104068C5F80E0004F158
:1090E000100105F10A0002F059FB6872F0890028AE
:1090F0000FD129462AE0042013E0808802F0ECFA20
:10910000040006D06068FFF761F808B105F074FF4D
:109110002580BDE8F087FFE76868FFF757F800286B
:10912000F7D0BDE8F04705F067BF878806463846A8
:1091300002F0D2FA0400ECD02B464A4606F10801B0
:1091400004F10A0002F02AFB607221463846BDE8AD
:10915000F04700F04FBE000044340320345A002092
:109160002DE9F04F044686880188424897B083462F
:1091700010290CD0112950D0103019296AD01A2981
:1091800074D1217A0C09042C4DD301224CE0394DC5
:10919000083DA868C0430B9069680BA802F0D0FE98
:1091A0000B990CA800F0C0FD2C220CA96846FEF714
:1091B00092F90027E946A84610E000BF09EB4700F6
:1091C0005FF00005B0F804A008EB85005146001DD3
:1091D00002F058FE6D1C1E2DF6D37F1C0098B8427D
:1091E000ECD8142E05D317B00420BDE8F04FFEF7DD
:1091F00053BF3146584602F090FE314608F1040054
:1092000002F08BFEE07B022830D117B03146BDE87A
:10921000F04F1848001D02F080BE17B03146BDE87F
:10922000F04F02F02FBE0022314601F011FC032C5A
:1092300001D3012200E000220E4831460C3001F03B
:1092400007FC022C01D3012200E00022094831462C
:10925000083006E0217A002908D1617AC1F3C00202
:10926000314617B0BDE8F04F01F0F2BB17B0BDE8D2
:10927000F08F00006834032010B5044607480078DA
:1092800000280AD0204602F055F8204606F0D8F80B
:109290002046BDE8104001F063BD10BD6C5A0020AF
:1092A00030B50446008C8BB0A0F57F42FF3A23D046
:1092B00005AA204601F0B2FF0546ADF800000020E7
:1092C00001900290039004902189ADF804100121CF
:1092D000ADF808008DF8061005A8CDF80CD0049064
:1092E000208C01A9AEDF002804D1BDF80010A942EE
:1092F00000D00C200BB030BD0820FBE7F0B50446D1
:109300008FB008682060087960714FF6FF70208484
:10931000002084F82200A4F84C001427012684F8C9
:109320004E708DF8226041F60D000D46ADF820001C
:10933000A21D08A93046A8DF002847D12021684691
:10934000FEF7F0F842F63720ADF80000ADF80470F3
:1093500009AA0021204601F061FFADF8060009A826
:1093600002908DF80C609DF80D0004F1080240F0A9
:1093700010008DF80D00287B8DF81300E0886946F9
:1093800000F0C8FB002821D1A868F0B12021684670
:10939000FEF7C8F842F63820ADF80460ADF80000DA
:1093A000ADF80660A86802909DF80D0004F1100267
:1093B00040F002008DF80D00687B8DF81100E08808
:1093C000694600F0A7FB002800D100200FB0F0BDD7
:1093D00038B50288102A15D0112A15D0502A16D176
:1093E00030F8062F8B899A4211D10C464189022907
:1093F0000DD1216800290AD00C3000F038F838B1BE
:10940000002006E0808801E04FF6FF70088438BD38
:1094100001208DF80000226869462046904738BD3B
:1094200070B50446B0F84C000D4614280AD104F17A
:1094300026012622881EFEF74EF8B4F84C00401E86
:10944000A4F84C00B4F84C0004EB4001401CA4F814
:109450004C008D8470BD80F82210704770B50446B2
:109460000D460846FEF769F82080656070BD0078FB
:1094700000F0010070470A780270497841700220BC
:10948000704700000149085C70470000D0110300DC
:10949000084908B5085C0090684603F0D5F8D0F894
:1094A00010050099C84010F0010000D0012080F0A4
:1094B000010008BDD01103002DE9FC410646C0079C
:1094C0004FF000050ED0104F00240122385D0095AA
:1094D00000231146019503F004F8641C042CF4D316
:1094E00000F04EF8B0070DD5074E0024361D0022BF
:1094F000305D032300951146019502F0F2FF641CD4
:10950000042CF4D3BDE8FC81CC110300094908B553
:10951000085C0090684603F097F8D0F80425009B9B
:109520000121994021EA0203C0F808351140C0F832
:109530000C1508BDCC1103000249085C012103F0A1
:10954000F0B80000CC1103000249085C002103F0D0
:10955000E8B80000CC110300084908B5085C009089
:10956000684603F071F8D0F804050099C84010F07F
:10957000010000D0012080F0010008BDCC110300E3
:1095800010B500242046FFF7D7FF641C042CF9D344
:1095900010BD10B500242046FFF7D6FF641C042C34
:1095A000F9D310BD10B50246064B4FF0FF30002135
:1095B0005C5C944201D1084610BD491C0429F7D3D4
:1095C00010BD0000D011030070B50C4E0C004FF020
:1095D000000530600BD0012000F06AF808B10220CD
:1095E00004E0002000F064F800B10B2020707068E7
:1095F00010B9FEF786FC0546284670BDD0590020FC
:1096000010B5002000F0CCF908B1062806D10120E1
:1096100000F0C6F908B1062800D1002010BD0000F6
:109620002DE9F0470D468146FFF7BCFF04460428AC
:1096300036D2DFF874801B481C4EA8F10C0725B306
:10964000012D0ED0022D2BD104EB4400304445787F
:10965000002D25D0B968002922D02846BDE8F04762
:10966000084704EB4401755C0E44717849B10E4A19
:109670004FF48061093A8068FEF75AFD08B987F80F
:109680000390B17808F80410E2E78068FEF79EFDC9
:1096900004EB4401314418F804008D78A842D7D077
:1096A000BDE8F087D4110300CC5900200C2303201F
:1096B000042801D2FFF7ECBE002070470146104895
:1096C00010B58088042907D007290ED00A2915D1A2
:1096D000BDE8104005F0A0BE132176DF0CE00028A5
:1096E0000CD0BDE81040FEF7D7BCA0F57F41FF3994
:1096F00004D10448FFF7ABF80828F0D110BD0000F2
:1097000078590020685C002070B50023042810D22E
:109710000D4D00EB4004012A02D101290CD000229A
:10972000094E00EB4000304461B1012906D0022906
:1097300006D00723184670BD0E30C2B22A55F9E78D
:109740004270F7E78270F5E70C230320044A0146D4
:1097500000201279D20702D0084600F04DB87047B9
:10976000C059002070B506461E480024C0E90161BA
:10977000B0071FD50025012211462846FFF7C4FF78
:109780006D1C0446042D02D2002CF4D012E08CB9DA
:10979000332204211448FEF727FC04000AD1FEF707
:1097A00011FC040006D11048104A0021001FFEF7EA
:1097B00091FC0446F00712D00120FFF77DFE74B93A
:1097C00009480B4A00210C38FEF784FC040006D13E
:1097D0000548084A01210838FEF77CFC044620466B
:1097E00070BD0000C0590020E0110300D1990200B3
:1097F00049B80200B37F02002DE9F05F654C0546D1
:109800000026607818B10020607002F005F8624F01
:109810004FF47A6B4FF4FA7A4FF47A784FF00109EB
:10982000182D61D2DFE805F00C13132F3E4B616653
:109830006A726A72B37B7B7B7B7BA1A4A7AAB3B35A
:1098400001F0EAFF3868FEF7C1FC064654E000204C
:10985000FFF782FE00284FF0000008D0FFF76CFEF3
:10986000022D02D14FF4E16009E0584607E0FFF70E
:109870006BFE022D01D1C82001E04FF4C8702570A5
:109880000AEB802129E00020FFF766FE00284FF058
:10989000000004D0FFF750FE4FF44870EFE7FFF7E9
:1098A00053FEE8E70020FFF757FE00284FF00000C6
:1098B00002D0FFF741FED8E7FFF746FEDDE70020C4
:1098C000FFF74AFE00284FF0000002D0FFF734FEF9
:1098D00001E0FFF739FE31492570B1FBF8F10022B4
:1098E0003868FEF725FC06463CE00020FFF70EFE38
:1098F000257008E0002047E0257033E084F80190EF
:109900000120FFF703FE00226621E9E784F80190B9
:109910000120FFF7FBFD00224FF40071E0E77868BB
:10992000FEF754FC0646D5F1110000D02EB10220FE
:10993000FFF702FE0020A07014E001280DD980B2CC
:1099400000EBC00101EB00110AEB413191FBF8F192
:1099500000227868FEF7ECFB06460220FFF7F4FDD4
:1099600084F802903046BDE8F09F01F055FFC3E750
:1099700001F052FFBEE701F04FFF04E001F04CFFA1
:109980000020FFF7E1FD0120FFF7DEFDB4E7FFF760
:1099900000FEB1E7C0590020D4110300F4210300F8
:1099A000012106F047BE0000034630B507480021FC
:1099B0000478426806E000BF02EBC10005789D42D2
:1099C00003D0491CA142F7DB002030BD105B002012
:1099D00000780221FFF724BE1CB5044601F0CEFD3D
:1099E00000236A46092103F0C9FD052805D1034873
:1099F000012241792046FFF7CFF91CBD3C5A0020D7
:109A00001CB504460020009042F6A620ADF80000E8
:109A100001208DF80200084801AA694600680190FB
:109A20002046A0DF002805D1044801228179204684
:109A3000FFF7B2F91CBD0000041203003C5A0020DD
:109A400005494FF0FF32082841F8202002D308448E
:109A500080F8582070470000D4370320F0B54FF04D
:109A6000FF3512B10023082601E008230C260C4C18
:109A700005E000BF54F823707F1C04D05B1CB34288
:109A8000F8D32846F0BD26185DB286F8305044F869
:109A90002310002AF5D1E11881F85800F1E7000001
:109AA000D43703200249084490F930007047000081
:109AB000D43703202DE9F04188B01E46DDF8388008
:109AC00014460D00074602D10020FEF7E5FA14B94E
:109AD0000020FEF7E1FA20216846FDF723FD9DF8FE
:109AE0000D00ADF8044040F002008DF80D0008486C
:109AF000ADF80070ADF8064002958DF81160424651
:109B00006946008800F006F808B0BDE8F081000062
:109B1000B25A00202DE9F0438146887891B09046F2
:109B20000C4600B901208DF83E002088ADF83C00BD
:109B300000250095607C694605F056FC6E46A07CC9
:109B4000711C05F051FCE07B00289DF8020002D05A
:109B500040F0080001E020F008008DF80200217CB0
:109B600011B140F0100001E020F010008DF802006B
:109B7000217B11B140F0010001E020F001008DF8DF
:109B80000200217D09B1022100E0012161F34200C0
:109B90008DF802001C2102A8FDF7C4FC607BC10601
:109BA00001D4800617D50E950EAFE07C791C05F028
:109BB0001BFC9DF83800079720F00F00401C20F098
:109BC000F00010308DF838009DF83A0020F00600C3
:109BD000801C8DF83A00607B8DF80800A07B8DF822
:109BE0000900142109A8FDF79DFC0FA8CDE909067D
:109BF000A088ADF83000A06820B1E088ADF82C0056
:109C0000A0680D90A06998B301950088ADF8100088
:109C1000A06901AD01A94088ADF81200A0694068B3
:109C200006950390A069007B05F0DEFBA069691C26
:109C3000407B05F0D9FBA069807A00289DF80600DA
:109C400002D040F0080001E020F008008DF8060086
:109C5000A169C97A11B140F0100001E020F01000B4
:109C60008DF80600A169097A19B140F0010002E0FF
:109C70000DE020F001008DF80600A169897B09B193
:109C8000022100E0012161F342008DF80600E06945
:109C900000B10590434609AA02A94846AADF11B0BF
:109CA000BDE8F08370B504464FF6FF750A462846B6
:109CB000AC4209D14FF480742146104602F0FDF801
:109CC00080B2A0420BD070BDFF2CFCD821461046BC
:109CD00002F0E3F890F0010F01D0204670BD284655
:109CE00070BD000070B5084C050009D01034216823
:109CF000002907D008682060496828468847F6E7A9
:109D00000834F4E770BD0000C0370320054A012184
:109D100020B1012805D19170FFF7E4BF51700020F8
:109D2000FAE77047C037032073B58CB006460020B1
:109D300000900D9880B100246D4621460DA802F0D8
:109D4000E1F830B1009805EB400084800098401C99
:109D50000090641C142CF0D32C2269463046FDF789
:109D6000BAFB0EB070BD2DE9F04117880646B81D4C
:109D700014460D46984202D90C20BDE8F081318886
:109D8000072206290AD34FF4486C4FF6FF7361454A
:109D900001D9994202D17088062801D21046ECE719
:109DA000604501D99842F9D1994203D0984201D037
:109DB0008142F3D80520E85520881221401C80B24A
:109DC000208029542088401C80B22080411930888E
:109DD00006F0E8F82188084480B220804119708894
:109DE00006F0E0F82188084420800020C5E7FEF74F
:109DF00053B9000038B54A7A0F4B62B100220A729B
:109E00005969002906D001228DF80020ADF8020022
:109E10006846884738BD0A7A62B19B684C6802463A
:109E200019462046FEF784F90028F3D0BDE83840F3
:109E300005F0E2B85B68F1E744340320F0B585B083
:109E400016460F4604461D4614220B496846FDF788
:109E500042FB0A488DF80870ADF80240ADF80A6080
:109E60008DF80C50017800222046FEF795FF6846D9
:109E700000F0BAFB05B0F0BD2C130300945A00208B
:109E800038B5044643F2020559B9694603F0BEFDF0
:109E9000A84202D008B1FEF7FFF89DF80000800745
:109EA00014D40021204603F0BBFD00280ED0112859
:109EB0000CD00D2807D00B2808D0A84206D0BDE84A
:109EC0003840FEF7E9B81321204676DF38BD1FB5CC
:109ED00000220092ADF800100192ADF8021002923B
:109EE000039202AA694690DF04B010BD70B5044623
:109EF00086B01C48012102F033F8BFF35F8F0026C3
:109F0000002821D10025204601F0C3F868B11128AE
:109F100012D086281AD0A0F54051023903D001464C
:109F2000204605F071F8294607E006B0294620468C
:109F3000BDE8704001F06EBD0121204601F06AFDD0
:109F4000BFF35F8F0748066006B070BD1422064954
:109F50006846FDF7C0FAADF80240684600F012FB13
:109F6000E1E70000485A0020341203002DE9FF41C8
:109F70000C4620B14FF4064004B0BDE8F0812079D2
:109F8000002748F2096538B141F61D5601281BD05B
:109F9000022826D0681DEFE7022020710297039760
:109FA000E0680190694601A804F08EFD50B1029866
:109FB0008188E18000882081BDF80010029804F0BB
:109FC00001FED9E72846D7E70A4B6A460021A01DC3
:109FD00004F032FD38B1074918398F61CF61A842CA
:109FE000CAD13046C8E703488188019804F0EAFDE9
:109FF000F5E70000405B0020F0B587B00C4607464F
:10A000001646142101A8FDF78DFAA07800B90120A9
:10A010008DF81A002088ADF8180006A80190A079E4
:10A02000694605F0E1F96D46E079691C05F0DCF957
:10A03000E07800289DF8020002D040F0080001E01E
:10A0400020F008008DF80200217911B140F01000D5
:10A0500001E020F010008DF80200617911B140F0AC
:10A06000010001E020F001008DF80200217A09B121
:10A07000022100E0012161F342008DF80200029507
:10A080006089ADF80C00A089ADF80E00E089ADF84C
:10A09000100020690590324601A93846ABDF07B0B1
:10A0A000F0BD000070B500240F4D10E0686800EBB3
:10A0B000C406307802F0EAFD7178012901D001214F
:10A0C00000E000214140307800F0ECF9641C287871
:10A0D0008442EBDBD5E90401084303D0BDE87040BE
:10A0E00005F01ABD70BD0000105B00202DE9F04F97
:10A0F00014468346527BD4F80A00D4F8125062F317
:10A100001F60627DD4F8166062F31F65627EADF257
:10A11000B44D9A4662F31F6680460F4632E000BF98
:10A1200005EB4500C01C20F00302914604EB08013A
:10A130006846FDF7D0F90020C84401461DE000BF85
:10A140001DF800C0401C1DF80030401C03F0FC034B
:10A150001DF80020401C02F0F802120242EAC3027D
:10A1600042EADC020DF5347CC7EB07132CF81B2008
:10A1700001EB031C491C2AF81C20A94201D2F0293A
:10A18000DED37F1CB74201D2F02FC9D30DF2B44DFC
:10A19000BDE8F08F2DE9FF4FF82000EA1229FC20DE
:10A1A00000EAD207D006F9B0060E1D468B46002401
:10A1B0000DF1040A2EE0002051461FE004FB02537B
:10A1C000821C9B5C13FB09FCFF22BCFBF2FC0CF025
:10A1D000F80C4FEA0C2C13FB07F8B8FBF2F808F068
:10A1E000FC084CEAC80C13FB06F3B3FBF2F2C2F313
:10A1F000C4024CEA020C21F810C0401C2A788242AA
:10A20000DCDC0BEB0400009101B20123799800F033
:10A210005DF8641C6878A042CDDC7DB0BDE8F08FAD
:10A220002DE9FF4FF82101EA122BFC2101EAD20AA5
:10A23000254CD1064FEA116954F8231000220D78FD
:10A240004F783CE0002137E00E18F02E33DA019E03
:10A250001644F02E2FDA54F8236002FB056C8E1C96
:10A260001CF806E01EFB0BFCFF26BCFBF6F606F016
:10A27000F8064FEA06281EFB0AFCFF26BCFBF6F692
:10A2800006F0FC0648EAC60C1EFB09F8FF26B8FBE0
:10A29000F6F6C6F3C4064CEA060CC2EB021601EB56
:10A2A000061606EB0008019EC6EB061608EB06181C
:10A2B0000D9E26F818C0491CA942C5DB521CBA42A3
:10A2C000C0DBBDE8FF8F00009C5B002038B5049C1C
:10A2D0000094FDF798FA38BDFDF753BB09490120FA
:10A2E000096809B1002070470749CA69002AF9D1F5
:10A2F000044A283212688968491E8A42F3D1022032
:10A3000070470000AC330320E459002013460A468E
:10A310000021FFF793BD00002DE9F843104D0F46D3
:10A3200080461E4691466946286801F07FFD04007C
:10A3300014D01C21FDF7F6F801202071C4F8149008
:10A34000380BC4F80080C4E902606946286801F04F
:10A350008EFD04F0EDFA0020BDE8F8830420FBE751
:10A360008C13030010B503780022072B06D2DFE818
:10A3700003F005040610202930000A7010BD0123E7
:10A380000B7003898B818388CB81C06888600A74D5
:10A3900010BD02220A7002898A818288CA81C2683D
:10A3A0008A60807D062802D00020087410BD01203C
:10A3B000FBE703220A70C2888A810289CA81C068C9
:10A3C000886010BD04230B70C0888881CA818A60B0
:10A3D00010BD0520087010BD70B5064D064600245E
:10A3E00055F8241009B130468847641C042CF7D373
:10A3F00070BD00002C39032030B50446006887B0DA
:10A400000D46806800281FD018216846FDF78AF89D
:10A410000195A0680590207910B1012810D107E0BE
:10A4200001208DF8000020690290E068039005E0AB
:10A4300002208DF80000E06800030290606904903B
:10A44000206881686846884707B030BD10B586B07F
:10A450001446002924D0112922D0082920D00D2902
:10A46000024606D00C460721684601F093FC029490
:10A4700013E00321684601F08DFC24B12078C00769
:10A4800001D0012000E002208DF8080000208DF8A6
:10A490000C0041F20110ADF80A00684600F0B2F875
:10A4A00006B010BD2DE9F84F0E463449804601EB49
:10A4B0005001C007097801D00F0901E001F00F0732
:10A4C0004FF00009424601204946FCF7F5FFDFF84E
:10A4D000B0A004460D46052F4ED2DFE807F0031664
:10A4E0001B282C00002E47D00121404605F0B8FA69
:10A4F0008DF800906846FDF79BFE5046D0E90412A7
:10A500000C431543CAE9044532E00EB1022114E0C0
:10A51000002112E04EB10321404605F0A1FA404669
:10A52000BDE8F84F012105F005BE012105E0002E30
:10A5300022D1042101E02EB103214046BDE8F84FAD
:10A5400005F08EBA0021404605F08AFA0021404607
:10A5500005F0F0FD8DF800906846FDF769FE504665
:10A56000E243D0E904341A4024EA0501CAE904218F
:10A570009DF80000FDF780FEBDE8F88FE438032069
:10A58000105B002010B50446408800F0F7FFA08063
:10A59000024801682046BDE810400847445A0020A0
:10A5A00010B50446808800F033FF608002480168DF
:10A5B0002046BDE810400847545A00202DE9F041DC
:10A5C00007460024064E074D05E000BF56F824104C
:10A5D00038468847641CE8788442F7DBBDE8F081A0
:10A5E000743703206C5A002010B50446408800F0F0
:10A5F000C5FFA080024801682046BDE8104008471A
:10A60000EC120300014909680847000058130300D1
:10A6100070B586B0044614216846FCF783FFA08914
:10A620000125A0F54040ADF8040020782F4E062803
:10A6300033D2DFE800F0320303032C4AA08900F094
:10A64000EBF930B9E08943F6FE71A0F5404088424D
:10A6500023D8A07B8DF80800207803280FD0002095
:10A660008DF80900A0680390606850B109208DF84A
:10A67000000060680490684602F00AFF0DE00120C7
:10A68000EEE708208DF800008DF81050F3E7A08960
:10A6900000F0C2F908B1E08930B17078002801D02B
:10A6A00003F002F806B070BD606830B10B208DF881
:10A6B0000000606802907570DDE70A208DF80000E8
:10A6C000BDF8040003F082F8F5E7606848B1142093
:10A6D0008DF80000606802904FF6FF70ADF804003E
:10A6E000C9E713208DF80000F6E70000585A002053
:10A6F00038B504460F480078B0B1A4F57F40FF3864
:10A700000FD0684604F044F888B10521017001219A
:10A710000171C480684604F049F804F0FBF8002099
:10A7200038BD48F2036038BD48F2016038BD48F2D8
:10A73000076038BD485B00200D4808B5007888B137
:10A74000684604F025F880B106210170684604F0DF
:10A750002DF80848017809B10121017304F0DAF8F5
:10A76000002008BD48F2016008BD48F2076008BD3E
:10A77000485B0020F0390320F0B587B0142168460B
:10A78000FCF7D0FE304C207818B16846FFF724FE65
:10A7900057E0201D01F0CBFB98BB40F6F870016834
:10A7A000481C02D14FF0102041694FF080500269DF
:10A7B00040694B1C01D100FB02F1244800220161D9
:10A7C000A1F54051C160224901F0E1FD002823D1EB
:10A7D00021481C238C221F49006801F014FB02F061
:10A7E00079FC050016D0022D14D000270126062D75
:10A7F00014D005A803F0CCFF98B106700C2D1BD225
:10A8000000E01EE0DFE805F0181018101817181700
:10A810001812141248F20A6007B0F0BD2670676083
:10A82000B3E748F20760F7E7077105E0032100E0AE
:10A830000221017100E0067105A803F0B7FF04F0E2
:10A8400069F80020E8E70000485B0020D05B0020AA
:10A850009C1303003C3903207413030038B5040033
:10A8600014D0694604F030F9B0B1BDF8000000EB37
:10A8700080010B4800EB8100C16851B1A17A41B160
:10A88000C168491EC1600020A07238BD48F2046052
:10A8900038BD48F2056038BD48F2096038BD000097
:10A8A000C83903201FB501A9684604F0C5F804B0F3
:10A8B00010BD07B513460A466946002004F0BCF8EF
:10A8C0000EBD07B513460A460021684604F0B4F8E9
:10A8D0000EBD20B119B1006808600020704748F231
:10A8E00004607047F8B50D46040018D0BDB1694644
:10A8F00004F0EAF8B0B1BDF800000C4900EB8000AC
:10A9000001EB800001210C30666801F013FB2E6022
:10A9100060680C3068600120A0720020F8BD48F229
:10A920000460F8BD48F20960F8BD0000C839032092
:10A9300018B10323002205F077BF48F20460704786
:10A940000223002205F070BF094910B50A69042AE4
:10A950000AD0084A096942F821000548012110304F
:10A9600001F0E8FA002010BD48F20B6010BD0000B5
:10A97000285B00202C3903202DE9F84F0446244899
:10A980000078D8B1F4B112212046FCF7CBFD0320AA
:10A99000DFF880902080002504F1100804F10E0AF1
:10A9A00005EB850109EB810630897189084487B27E
:10A9B000706802F019FB032807D009E048F2016033
:10A9C000BDE8F88F48F20460FAE72088401E208036
:10A9D0006088F1680844608020897189084420817A
:10A9E000608938446081C7F58060A18980B2814266
:10A9F00000D2A0815346A21D211D2846CDF800801B
:10AA000004F0FEF86D1CADB2022DC9D30020D7E7CB
:10AA1000485B0020C839032043F6FE71A0F5404092
:10AA2000884201D8012070470020704710B50446C5
:10AA30000078182802D1FEF78BF9207010BD10B5F0
:10AA400004460078182802D1FEF782F9207010BD64
:10AA50000AB101F062BA01F015BA70B50D460446AC
:10AA6000B0F81414D0F810040122FDF711FE00B163
:10AA7000057004F13C0204F5826104F1540072DFB8
:10AA800070BD000070B5134600220546112900D1A3
:10AA90000122074C33B12179FEF77EF9002261785B
:10AAA000284600E06178BDE87040FEF775B9000007
:10AAB0009C5A0020F7B517460E0011D000980025CB
:10AAC00060B100242146684601F01CFA18B1A0B21A
:10AAD0003946B0476D1C641C142CF3D32846FEBDC8
:10AAE0000020FEBD406803F073BE00000EB517A144
:10AAF0009DF8080020F00F00401C20F0F0001030FE
:10AB00008DF808000C2202A87CDF08B1FDF7C4FA1A
:10AB1000C02078DF08B1FDF7BFFA00200090019057
:10AB20004FF4A071ADF80400ADF800104FF4C870F8
:10AB30004FF40271ADF80600ADF8021068467ADFF6
:10AB4000002801D0FDF7A8FA0EBD00005A48445F66
:10AB500057617463685F4D310000000070B510B13B
:10AB60004FF4064070BD1C4C0025207B08B12573B6
:10AB700001E000F0A5F8207808282AD2DFE800F0EC
:10AB80002904080C10291422BDE8704000F026B8F2
:10AB9000BDE8704000F082B8BDE8704000F064B8D5
:10ABA000BDE8704000F040B80620207060880A4977
:10ABB00000EB8000283901EB80004068BDE8704060
:10ABC00002F068BA072020706560BDE8704002F0AE
:10ABD0006FBA48F20E6070BDF03903201149F0B42D
:10ABE0008A1C00200346A1F128050C18A67A4EB154
:10ABF000A37200EB800405EB8404E66816B9247C9C
:10AC0000012C0AD0401C80B20228EED30B704B807E
:10AC10004B60F0BC41F61D5070471080F0BC00F056
:10AC20003DB80000F03903200C48418801EB810257
:10AC3000A0F1280101EB8201CA6852B1052101701F
:10AC4000074802218180016800230122054801F0A4
:10AC500077BB042202704968F6E70000F039032050
:10AC6000505B0020D05B002038B50A490848032417
:10AC70000B684268898803EB810153880470DB1CF0
:10AC800000201B0400909B0B034801F0F7FB38BD2C
:10AC9000F0390320505B0020D05B0020074910B53D
:10ACA0004888091D03F060FF18B1BDE81040FFF7A8
:10ACB000DBBFBDE81040FFF7B7BF0000F03903204D
:10ACC00070B5194C0121207808281AD2DFE800F06D
:10ACD0000419191C252929182089134A401C208190
:10ACE000002060802073283A00EB800312F82330A4
:10ACF00043B100232518401C80B2AB720228F3D365
:10AD0000217070BD0123F5E76068084940888A8892
:10AD1000C01C10448880022004E000F009F80620DE
:10AD200000E00720207070BDF0390320505B002048
:10AD30000A4909484988026801EB81030749283913
:10AD400001EB83014B6803604A6082880A8102221A
:10AD50008280002008747047505B0020F039032087
:10AD60002DE9F04101888688434C86B0054650297C
:10AD70002CD006DC05F10A00352939D0362971D1ED
:10AD800056E0522902D054296CD103E0304600F03D
:10AD90000DFE67E0142239496846FCF79CFBADF8CC
:10ADA0000260304600F0EAFBADF8040000F024F940
:10ADB000002221793046FDF7EFFF0022E17830468E
:10ADC000FDF7EAFF6846FFF7DDFB4BE0287B012833
:10ADD00048D1A87A012845D12889A0F52451023903
:10ADE00040D10121304600F015FE05F033F939E07D
:10ADF0000746A1793046FDF7B7FF98B30022A17945
:10AE00003046FDF7C9FFE888B0F5857F08D038B92E
:10AE10007888012804D1B98800223046A1DF08B122
:10AE200000211CE00122E1793046FDF7B5FF19E071
:10AE300007464FF00008E1793046FDF795FF88B1ED
:10AE40000022E1793046FDF7A7FFE88830B9B888DD
:10AE5000012803D1B87900B101208046414630462F
:10AE600004F016FE00220649A078FDF717FF06B091
:10AE7000BDE8F04104F060B93C5A00205C120300C8
:10AE80002D83020070B504460078002814D1608834
:10AE900000F08CFD6588284600F048F928B1074885
:10AEA0000122C1782846FDF777FF6088FEF794FD00
:10AEB000BDE8704005F0CEB870BD00003C5A0020DF
:10AEC00070B51B4C00252570FDF742FF6070FDF743
:10AED0003FFFA070FDF73CFFE070FDF739FF2071E8
:10AEE000FDF736FF6071FDF733FFA071FDF730FF0E
:10AEF000E0716178182919D0A178182916D0E17865
:10AF0000182913D02179182910D0617918290DD06A
:10AF1000A17918290AD0182808D004F10C0005607E
:10AF2000BFF35F8F01202070002070BD032070BD33
:10AF30003C5A00207CB504460078082837D1607A56
:10AF400058BB207A1C4E4FF6FF75012811D00728F8
:10AF500002D008282BD121E0A08800F059FA04463D
:10AF6000A84224D0012100F055FD2046FEF734FD13
:10AF70001DE0A0886A46012102F0E8F968B901984D
:10AF8000007850B1A08800F043FAA8420FD0012207
:10AF9000F178FDF701FF04F0CFF808E0F068012830
:10AFA00005D1BFF35F8F044900200C310860BDE874
:10AFB0007C4005F04FB800003C5A002010B5C0B2EC
:10AFC000FEF7F2FC0446007801F060FE014660786E
:10AFD000012801D0012000E0002090EA010F08D0F4
:10AFE0000449D1E90401084303D1BDE8104004F04D
:10AFF00093BD10BD105B00201CB5054AD2E90212BA
:10B00000CDE900120022694602F0F2FA1CBD0000F0
:10B010007412030003484FF6FF7181800121017013
:10B02000002070474C5A00202DE9FC41804600F07A
:10B03000A5FA002403250127A0F57F412646FF3904
:10B0400008D06A46082102F081F918B90198841DD8
:10B050008688056832462B4621464046B1DF0428E3
:10B0600004D0082804D00B2808D002E0112000E00A
:10B070000020002F00D10B20BDE8FC810027A8078D
:10B0800001D50125E6E73443F5D000242646032503
:10B09000E0E72DE9FC41804600F070FA0646A0F595
:10B0A0007F40FF380ED001252A466D1C0027ADB227
:10B0B0006B460821304602F069F9040006D0072CDF
:10B0C00025D025E043F20200BDE8FC81019903236D
:10B0D0000A1D0B604046891DB2DF040004D00C2C11
:10B0E00009D0052C09D009E032460821104602F0AB
:10B0F000B3F904460CE0012700E0002408213046A3
:10B1000002F0A0F900B10324002FCDD100E00C24FF
:10B110002046D9E704488088A0F57F41FF3901D057
:10B1200004F014B8704700004C5A00200EB502A974
:10B13000019100F023FA6A46012102F007F908B1F3
:10B1400000200EBD019800780EBD00002DE9F041F1
:10B1500007464FF6FF760A48B3DF10B10320BDE87B
:10B16000F081074C43F20305A41E3246618838463D
:10B17000AFDFA842F3D16088401C6080F5E7000093
:10B180004E5A0020428800EB82020C328A4201D9DA
:10B19000022070478188A1F57F42FF3A06D00188DE
:10B1A00021B18068401C01D0002070470120704709
:10B1B000884204D20068401C01D001207047002062
:10B1C0007047000010B51249124803F0A8FF114C57
:10B1D00081B22C3CA068401CA0600F48FEF760F8CC
:10B1E00058B1082809D0132807D0112805D043F2F8
:10B1F0000141884201D0FCF74FFFA0680321B0FB5A
:10B20000F1F201FB120000B10120207010BD00001E
:10B21000AC600020A4590020F85B00202DE9F0412B
:10B22000044640799046002500B1042594F8220098
:10B2300008B145F00205CAB2FF2908D9090A88F801
:10B24000012045F0010588F80210032602E088F885
:10B2500001200226B4F84C0008B145F01005002783
:10B260001BE000BF94F84E10B21C91420BD2B4F810
:10B270004C0004EB4701C01B420004F124002431C0
:10B28000FCF729F90DE004EB470008EB0601808C80
:10B290000870000A4870D6B27F1CB4F84C00B8425F
:10B2A000E0DC34F84C0FC01B208088F8005030469A
:10B2B000BDE8F0813EB5027802230C46B3EB520F95
:10B2C00017D1B0F80110ADF80010C1788DF8021058
:10B2D0008188ADF8041080798DF8060002AA01A9D2
:10B2E0002046FCF73DFE032202A96846FCF72CF934
:10B2F00008B100203EBD01203EBD000070B50D46E6
:10B300000446142810D2FDF763FD68B1084904EB28
:10B31000840001EB4000D0F802102960C188A980A8
:10B32000007AA871002070BD43F2020070BD0000D9
:10B33000DC34032070B5018890B0102961D1011D63
:10B340002C226846FCF7C7F89DF804004FF6FF76FC
:10B3500003213446B1EB500F2BD002F007F99DF8D2
:10B3600004006D4640080ED001280CD0022820D1E0
:10B3700018E00D99281D1131FCF796FD18B100BF9A
:10B38000BDF82C4015E00CAA0BA9072002F0C2F86A
:10B390000028EED10DE00D99281D491CFFF78AFF0A
:10B3A0000028EDD10CAA0BA9072002F0B3F8002861
:10B3B000F1D1BDF80000B44200EB8001124820F842
:10B3C000114000EB41000199C0F80210BDF80810CF
:10B3D000C1809DF80A10017213D0BDF80000ADF8CD
:10B3E0002E000020ADF83040084E8DF82C000BAD3B
:10B3F000044600BF56F8241028468847641C022CD7
:10B40000F8D310B070BD0000DC34032088120300B4
:10B410002DE9F0414FF6FF760546B04213D00B4FB1
:10B42000002400BF04EB840037F81000A84206D1C6
:10B430002046FDF7CDFC10B12046BDE8F081641C2C
:10B44000A4B2142CEED33046F7E70000DC3403201E
:10B450003EB50C46054602F089F80BE0BDF8000049
:10B46000A04207D02846029900F00EF810B1BDF8AE
:10B4700000003EBD01AA6946072002F04BF80028F3
:10B48000ECD14FF6FF703EBD2DE9F0410C4605466C
:10B4900000F1110701F111061022491C401CFCF7B4
:10B4A00053F848B9681C00F09BF928B1601C00F003
:10B4B00097F908B1012400E0002431463846FCF732
:10B4C000F3FC3B780222B2EB530F0CD00321B1EB1B
:10B4D000530F08D03378B2EB530F04D0B1EB530FB6
:10B4E00001D0012100E00021084201D18C4302D0AB
:10B4F0000120BDE8F0810020FBE7018811B9421866
:10B5000092780AB101207047491C0829F7D300201E
:10B51000704710B50C460346FFF7EFFF00280AD02E
:10B5200018882188884205D10822A11C981CFCF7A4
:10B530000BF808B1002010BD012010BD142804D262
:10B54000024A00EB800022F810107047DC34032020
:10B5500070B50546FFF75CFF0446284601F0F9FE8A
:10B56000002808D1142C06D2034B04EB84024FF6BA
:10B57000FF7123F8121070BDDC34032010B50446AF
:10B58000142808D2FDF724FC28B1044904EB8400F8
:10B5900031F8100010BD4FF6FF7010BDDC340320F1
:10B5A0003EB5044601F0E2FF0EE001992046463127
:10B5B000FFF7AFFF28B9019920462A31FFF7A9FF0D
:10B5C00010B1BDF808003EBD6A4602A9072001F08F
:10B5D000A1FF0028E9D14FF6FF703EBD10B50A4922
:10B5E00041600A4800F0A3FC58B901F0DBF90749B3
:10B5F0001C238C22087404488C39001F006800F05A
:10B6000002FC002010BD0000901303009C3A0320B0
:10B610002DE9F0412D4F002520B17D604FF406400B
:10B62000BDE8F0810879012258B1294E01280CD0DB
:10B63000264C4FF002080834022820D0032841D1BC
:10B6400027E00A7101F034FD3AE0002000EB8001B0
:10B6500016F82110022908D0401C80B20228F5D328
:10B660003A707D6041F61D50DAE700EB800006F885
:10B67000205006EB8000406801F00CFD20E00D71C9
:10B68000A4F80480002301221248216800F058FE2B
:10B6900016E00D71206801F0FDFC0D49236828318A
:10B6A000498801EB810206EB8201D1F804C0C4F89D
:10B6B00000C04B60A3880B81A4F8048006F82250D8
:10B6C0000028ADD07D6048F20D60A9E7485B0020FE
:10B6D000C8390320D05B00200146034802888A4213
:10B6E00000D0002070470000303403202DE9F041E5
:10B6F0000B3020F00706104D19E02068B04215D33A
:10B70000B0420AD9871B201DD4F80480FBF7E3FE62
:10B71000A019C0E90078286004E060682860201D56
:10B72000FBF7D9FE201D2660BDE8F081251D2C68A1
:10B73000002CE2D10020F7E7C85B0020F8B50E46E8
:10B7400004464FF48C7101F086F900281DD00025C5
:10B75000C4F81851D4F81801009096F82000344627
:10B76000FF2808D0A17F31B9E17F11B100F04AFF75
:10B7700001E000F0C2FF65772572D4E9002101B035
:10B7800004F10800BDE8F0401047F8BD0248007A17
:10B79000002800D0012070479C3A0320F0B584882F
:10B7A000A518944200D82246A41AC288D6189A42F4
:10B7B00000D81346D21A4B880788BB420CD3408866
:10B7C000834209D88888A04206D3A84204D8C888F2
:10B7D000904201D3B04201D90020F0BD0120F0BD5C
:10B7E0000021425C0AB101207047491C1029F8D39E
:10B7F00000207047800701D000207047012070476B
:10B800000268134602E08A4204D01268002AFAD184
:10B810000B600160704700000A4810B5807860B185
:10B82000002401E0022C06D02046FDF785FE641CB2
:10B83000042CF7D310BD0324F6E7BDE81040FDF754
:10B840009FBE0000C059002003480179C90702D0FB
:10B850000078FDF7D1BF7047C05900201721018043
:10B8600041800021017141711B218171C1717047BB
:10B870002DE9FE4F254F984691460D00824601D096
:10B8800000260DE0684600F07BFA6A46002150462B
:10B8900001F0D8FC3878009E10B99DF8090098B1E5
:10B8A0004A463146504603F05DFF044601460022F9
:10B8B0005046FFF7E7F80D2C26D008DC24B3082CFF
:10B8C00022D00B2C09D11FE00520BDE8FE8F112CE2
:10B8D0000ED0A4F54050023816D00325B8F1000F61
:10B8E00004D0324621465046FEF7B0FD2846ECE72C
:10B8F0002A46F9785046FDF74FFA4A46B97850463D
:10B90000FDF74AFA0025E9E72546E7E79C5A0020BB
:10B910002DE9F041194F0E46154604463978FDF7DA
:10B9200023FA002827D0204601F06CFCE0B1204625
:10B93000B978FDF719FA08B1012700E0022704F5EC
:10B94000807080B2072101F07DFD010004D005293F
:10B9500002D0204603F06CFB2B4632463946204687
:10B96000BDE8F041FEF76ABA2A4631462046BDE8F6
:10B97000F041FEF7CBBCBDE8F0810000945A0020F6
:10B9800070B5094D0646A978FDF7EEF90446E97849
:10B990003046FDF7E9F9014622463046BDE87040E1
:10B9A0000123FFF765BF00009C5A002030B585B029
:10B9B0000546002414216846FBF7B4FDA5F57F4039
:10B9C000ADF80250FF3815D02846FFF72DFB98B18F
:10B9D0000B2815D0112811D0A0F54051023903D001
:10B9E0000146284603F010FB094822468178284684
:10B9F000FDF7D2F905B030BD0E2002E00124F3E7D7
:10BA00000F208DF800006846FEF7BCFDECE7000053
:10BA10003C5A00200A4602494978FDF7BDB90000AA
:10BA20003C5A0020ACB01C200090684600F0FEFD9F
:10BA30000099032500EB8100C0F800571C200090FE
:10BA4000684600F0F3FD009A012404FA02F1C0F800
:10BA50000C154FF42F7000F0EFFB00F00DFC08B157
:10BA6000FCF71AFB03F070FF7348016841F0040112
:10BA7000016000F031FF08B1FCF70EFB00266946BB
:10BA80000120009600F084FE08B1FCF705FB684633
:10BA900000F0C0FE08B1FCF7FFFA04F049F867496E
:10BAA0000320FDF75FFE08B1FCF7F6FA69460020B7
:10BAB000FDF78AFD08B1FCF7EFFA9DF800000228B7
:10BAC0007ED000208DF8AC00FFF710F800215C4814
:10BAD00000F05FFA08B1FCF7DFFAAC216846FBF72B
:10BAE00021FD02208DF800008DF8024006208DF81F
:10BAF000030054480590ADF810504FF49670229012
:10BB000044F2506023908DF87C404F4829904C4877
:10BB100069462030FCF7F2FD08B1FCF7BDFA484851
:10BB200001212030FCF7E7FD03F00AFC03F0A0FA46
:10BB30001C216846FBF7F6FC41F28830CDE9006035
:10BB400047F2305002903E488DF80C5050388089B2
:10BB5000ADF80E003D4805903D4806908DF8106008
:10BB60006846FDF751F808B1FCF796FA01F074FE4B
:10BB7000FCF79CFB334A37493A3A02F11A00FBF7CB
:10BB8000E1FFFBF726FF1F20FEF7A6FB0021324B4B
:10BB9000324A0846FEF7AAFA2E492F48FBF78AFEDA
:10BBA0004FF6FF752E4B2A4664210020FEF7F2FA6D
:10BBB0002C4B2A4696210020FEF7ECFA0A2000E0E2
:10BBC00037E0FCF727F94FF47A68404600F034FB81
:10BBD0002048FBF74DFE4FF47840FEF77DFB4FF415
:10BBE000167000F029FB1C4E00244FF4E137394653
:10BBF0001948FBF797FCE1B2E0B202232A4600960F
:10BC0000FEF70EFB13491448FBF754FE641C962CF8
:10BC1000EDDB404600F010FBC82000F00DFB2BA927
:10BC2000114800F0A5FE04F0ABFC0F20FCF734FA3D
:10BC3000FBE7012046E7000010ED00E0BD960200A2
:10BC4000485C0020B4590020A9CF0200CDCF0200EB
:10BC5000EF9D0200CC220220CC600020B81403002B
:10BC600032E00500F0E70500397F020070B51446A8
:10BC700082880E4605462088111D0144921C994277
:10BC800001D8FE2A01D90C2070BD521C32542088E4
:10BC9000FF21401C80B2208031542088401C80B29B
:10BCA00020808119288804F07DF92188084480B219
:10BCB0002080AA8842B1A96841B13044FBF70BFC4F
:10BCC0002088A98808442080002070BD072070BD0E
:10BCD000BFF35F8F00F016B9F8B50F460178144630
:10BCE0000546012901D1687830B12088821C9A422A
:10BCF00032D8012902D006E00720F8BD6978014456
:10BD0000891C994228D8181A801E86B2ADF80060A6
:10BD10002188B81C084469467DDF0028EDD12978C8
:10BD2000022904D06878BDF80020904205D3BDF800
:10BD30000000B04201D809200AE00820012905D1FD
:10BD40006978B14202D8ADF8001001E0ADF80060AA
:10BD5000BDF80010FE2901D90C20F8BD2288491C2D
:10BD6000B9542188491C89B2218078542088401C0C
:10BD70002080BDF80010084420800020F8BD00009D
:10BD8000034A00219268C0E90021816070470000E9
:10BD90009C5A002070B586B00D4606461446142104
:10BDA0006846FBF7BFFB8DF80050ADF80240204617
:10BDB000FFF7E4FBADF80400142269463046FBF7B8
:10BDC0008AFB06B070BD70B54FF6FF750E46A842EF
:10BDD00001D1002000E0401C84B208E0214630463A
:10BDE00000F090F808B1204670BD641CA4B2FF2C8E
:10BDF000F4D9284670BD10B5FBF7C1FA08B1002090
:10BE000010BD112010BD10B531B1B2FBF3F403FB2E
:10BE100014241CB1092010BD0E2010BD01600021AA
:10BE2000416081608281C381084610BD70B50C46B7
:10BE30000546FBF759FA002802D0218828680844F3
:10BE400070BD10B50A8849888A4203D1FBF78EFA83
:10BE5000012010BD002010BD70B50C460546FBF753
:10BE600068FA002802D061882868084470BD10B5BF
:10BE70000A8849888A4203D1FBF752FA012010BD93
:10BE8000002010BD01F01F0301229A40D24349094E
:10BE900000EB8100114600F053B80A4601F01F0381
:10BEA0000121994010B552090C4600EB820000F0C8
:10BEB00052F8204000D0012010BD2DE9F04180460D
:10BEC0000D460024481E012101EB501716E058F8DA
:10BED0002400C04390FAA0F0B0FA80F020280CD2E1
:10BEE00000EB4416AE4208D231464046FFF7D5FF7C
:10BEF0000028ECD13046BDE8F081641CA742E6D8AA
:10BF00002846F8E74A0950F8220001F01F020121F3
:10BF10009140084000D00120704701F01F0301222A
:10BF20009A40490900EB8100114600F01EB801213A
:10BF300000F011B808B56A46FBF76DFA009808BD25
:10BF400008B56A46FBF74DFA009808BD08B56A4681
:10BF5000FBF761FA08BD08B56A46FBF735FA08BD7C
:10BF600008B56A46FBF724FA08BD08B56A46FBF730
:10BF70002BFA009808BD08B56A46FBF759FA0098F5
:10BF800008BDC20800F007030120895C9840084002
:10BF9000704710B560B10161172120F8021B20F82D
:10BFA000021B1B2100F8021BFFF758FC002010BDEC
:10BFB0000E2010BD2DE9F047B0F804A08EB00C465D
:10BFC0005FEA0A0957D10188564E01270025242926
:10BFD0007BD006DC102909D0112929D0232926D1AC
:10BFE00099E03A2928D0552921D147E021792173B8
:10BFF000C07BA61D012802D0022804D101E02088C0
:10C0000000E06088308031887088814208D94846D5
:10C01000A5DF10B1112802D002E0777100E037717E
:10C02000B179F07981426BD94846FDF750FF67E05E
:10C03000A01DFFF713FC63E02246408934F8061F79
:10C04000814200D808466080172800D217206080FF
:10C05000106970B1607960B1D6E90001CDE90001E5
:10C06000ADF802906088ADF8040013696946104687
:10C070009847657125710EB0BDE8F087C08804F15E
:10C080000608172800D21720B8F80010814200D8FF
:10C090000846A8F8020088F804502846B8F80010AE
:10C0A000B5DF98F8050058BB206948B3D6E902010E
:10C0B000CDE90001ADF80290B8F80200ADF8040037
:10C0C0002046694622691AE0FFE7011D2C226846D6
:10C0D000FBF701FABDF80000BDF8042004EBC00135
:10C0E0004A73226962B1D6E90423CDE90B23ADF886
:10C0F0002E00487B8DF83000226920460BA990471E
:10C10000A07A0028B7D0E1885046A5DF0028B2D138
:10C11000A572E772AFE7017A207B884284D201469C
:10C1200082E700009012030020B10278DE2A03D0DB
:10C13000082070470E20704741800020704760B192
:10C1400059B10278DE2A0AD009684160DE21017007
:10C150004FF6FF714180002070470E207047082085
:10C1600070477FB5054600294DD0002D4BD008788B
:10C170000C46DE2847D1A8886188884202D1204633
:10C1800003F0C6FF2888012825D002283BD01128BB
:10C190003AD0512837D135F8040F6188884232D11E
:10C1A000A978A81C02292ED1017A042903D00629D6
:10C1B00001D0052927D10021009102228DF800200D
:10C1C00001914FF4C07202910391ADF80420007AFE
:10C1D00005280FD010E0297A2046012913D1A9881B
:10C1E000428891420FD10121017204B0BDE8704034
:10C1F00003F08EBFADF8041028886946B0DF002830
:10C2000001D0616888477FBDA88861888842FAD1DB
:10C210004FF6FF7060807FBD00F18040006800280D
:10C2200000D00120704708B500F180400021016076
:10C230000068009008BD00002DE9F041040007D01F
:10C24000044E4FF47A47751C3846A847641EFAD14D
:10C25000BDE8F081B01103002DE9F041040007D0E2
:10C26000044E4FF47A47751C3846A847641EFAD12D
:10C27000BDE8F0816014030070B50D4C01252078F5
:10C2800008B185260EE00020A06060602061E060BB
:10C29000084800F00FFC064600F084FB08B900F0E7
:10C2A000F3FB257000F0E8FB00B1A570304670BDCF
:10C2B000C03703200D9D020038B500258DF80050D1
:10C2C0006846FBF7B5FF084CE068401EE060E06898
:10C2D00028B900F0D1FB10B900F00CFCA5709DF856
:10C2E0000000FBF7C9FF38BDC0370320F8B5134D78
:10C2F0000446A878002648B114B161680120884737
:10C300008DF800606846FBF793FF0EE08DF8006043
:10C310006846FBF78DFF24B1084821461030FFF72F
:10C320006FFAE86808B900F0D5FBE868401CE860DF
:10C330009DF80000FBF7A0FFF8BD0000C037032008
:10C340002DE9F0411F46164604000D4616D0206820
:10C35000B8B1C6B160680268501E284215D1724358
:10C360002046FBF7BAFD80B120683B463246D0F844
:10C3700010C029462046BDE8F04160470E20BDE8C8
:10C38000F0810820FBE70920F9E71020F7E720B14A
:10C3900019B101600B68114618470E207047000064
:10C3A000044801214174007A08B10020704701203F
:10C3B000704700009C3A0320012801D0032808D1CF
:10C3C0000449002201284A7400D00020087402F0B9
:10C3D00051BA70479C3A032070B50246022801D03A
:10C3E000032A45D1234C207A002841D0012833D09C
:10C3F000022831D120480023022A006802D0032AF3
:10C400002AD11BE0E360017911B1012924D10DE0AB
:10C41000D0E90565711B4FF48056B14200D3314617
:10C42000294481614569A9420ED015E00169491C82
:10C430000161426991420FD1237213E0E168491C06
:10C44000E160082908D9E3602372022A0AD00D218D
:10C45000FDF7D2FF02F0B2F9607C28B1BDE8704070
:10C4600000F0A6BA0021F3E7BDE8704002F002BA7E
:10C4700070BD00009C3A0320585B00202DE9F84372
:10C480001D46089F1646884604000DD066B12068F8
:10C4900060B135B160684068B5FBF0F100FB115048
:10C4A00030B10920BDE8F8830E20FBE70820F9E74A
:10C4B0004046FBF70CFD90B13046FBF708FD70B12C
:10C4C0002A4641462046FBF708FD40B10097206808
:10C4D0002B463246C76841462046B847E2E710205F
:10C4E000E0E72DE9FF411C46DDE90A7815460E46D6
:10C4F000684600F0A9F846EA450141EA840141EAAC
:10C50000072242EA0841009A00EB8200C0F80017B7
:10C51000BDE8FF812DE9FF411C46DDE90A7815469B
:10C520000E46684600F09EF846EA450141EA84015D
:10C5300041EA072242EA0841009A00EB8200C0F873
:10C540000017BDE8FF812DE9FF411C46DDE90A78AF
:10C5500015460E46684600F093F846EA450141EA62
:10C56000840141EA072242EA0841009A00EB820076
:10C57000C0F80017BDE8FF811CB5002100910B46F3
:10C58000012201911146FFF7DEFF1CBD08B50090A6
:10C59000684600F083F8009A032100EB8200C0F89F
:10C5A000001708BD13B50C46684600F05BF800990B
:10C5B00000EB8101D1F8002722F44032C1F80027B6
:10C5C000009900EB8100D0F8001741EA0441C0F85F
:10C5D00000171CBD3CB50A4CD4E90034CDE9003449
:10C5E0006B46441808E000BF53F82010D1F82055DE
:10C5F00020C2C1F82055401C8442F5D83CBD000043
:10C600005C13030001B5684600F03AF8009A012176
:10C610009140C0F80C1508BD01B5684600F03EF821
:10C62000009A01219140C0F80C1508BD016820292D
:10C6300002D24FF0A040704701F01F010160014895
:10C6400070470000000300500168202902D24FF01B
:10C65000A040704701F01F010160014870470000D1
:10C66000000300500168202902D24FF0A04070471B
:10C6700001F01F01016001487047000000030050F5
:10C680000168202902D24FF0A040704701F01F013D
:10C690000160014870470000000300500168202934
:10C6A00002D24FF0A040704701F01F010160014825
:10C6B000704700000003005042094FF0000102D013
:10C6C000012A05D102E04FF0FF3101E04FF6FF7182
:10C6D00000F01F00012282400A4201D00120704771
:10C6E0000020704701B56846FFF7BCFFD0F8100581
:10C6F0000099C84000F0010008BD01B56846FFF789
:10C70000BFFF009A01219140C0F8081508BD01B58E
:10C710006846FFF7C3FF009A01219140C0F8081551
:10C7200008BD38B501240090684631B1FFF78CFF91
:10C7300000998C40C0F8084538BDFFF785FF009987
:10C740008C40C0F80C4538BD034908B508440021A9
:10C7500001600068009008BD006000400249405838
:10C76000012800D00020704700600040FBF794BC17
:10C7700008B5002242504058009008BD20B103493E
:10C7800009680160002070470E20704734140300D0
:10C79000FEB502460D460846FFF7F0FF002838D1E7
:10C7A000002400940194012606208DF80020ADF8A5
:10C7B000040002948DF80260694620202A6869DF2F
:10C7C00000948DF801608DF80240019402948DF878
:10C7D0000340694640202A6869DF0094019402946E
:10C7E0008DF80040694601202A6869DF4FF4B06087
:10C7F0000090019402946946A1202A6869DF0094A0
:10C80000019402948DF800606946A0202A6869DFCF
:10C810000020FEBD60DF002802D1024A0121117014
:10C8200070470000635B002030B5144891B0007879
:10C83000002820D05FF03405ADF8405010A903A8BF
:10C8400061DF30B1052816D011B0BDE83040FBF7EC
:10C8500023BC03AC0A49684600F0D6F807E000BFE5
:10C86000D0E9002120469047684600F0E4F802989D
:10C870000028E1D0F4E711B030BD0000635B002078
:10C8800038140300F8B5134C2078C0B10120A07013
:10C8900002F05AFA112814D0022002F06DFA002595
:10C8A0008DF800506846FBF7C3FC11DF0646257083
:10C8B0009DF80000FBF7E0FC2EB13046F8BD0820E3
:10C8C000F8BD0020F8BDA57002F0E2FF032002F0E1
:10C8D00053FAF6E7605B00207CB5194C207808B16C
:10C8E00008207CBD0120A070002002F02DFA112844
:10C8F00019D0002002F040FA12480026006801908A
:10C900008DF800606846FBF793FC0F4901A810DF23
:10C9100005000AD0002020709DF80000FBF7ACFC59
:10C920002DB128467CBD00207CBD0120F3E7A67018
:10C93000667002F0DDFF012002F01EFAF3E700004E
:10C94000605B0020CC130300698002000EB507492C
:10C95000684600F059F805E0D0E9001088476846BD
:10C9600000F069F802980028F6D10EBDE813030024
:10C970001CB5094A0B4609A150600220CDE900020E
:10C98000C201074804F052FA012804D0BDE81C4057
:10C990000420FBF781BB1CBD645B0020424C4500BA
:10C9A000D1F802000148007870470000605B002069
:10C9B0000548817819B1007818B1FFF763BF0820E6
:10C9C0007047FFF789BF0000605B00201FB5684615
:10C9D0004BDF30B1052814D004B0BDE81040FBF7A0
:10C9E0005BBB084901A800F00FF806E0D0E9002180
:10C9F0000098904701A800F01EF803980028E6D0A0
:10CA0000F4E71FBD54140300016009684160AFF3EF
:10CA1000008010B5D0E900215368994201D100216E
:10CA200004E0D1E90034A34202D01946816010BD70
:10CA300008314160F0E7816800290BD002689268F4
:10CA40000A44826041684B689A4203D108314160D0
:10CA5000FFF7DFBF70474058002800D00120704723
:10CA60004058002800D00120704708B500224250ED
:10CA70004058009008BD000002480068002800D01F
:10CA8000012070470004014008480068012110F0AF
:10CA9000010F06D14FF0E020C02280F8002484303E
:10CAA000C1670349012008607047000000E100E011
:10CAB000180500400649024600200B790BB185207D
:10CAC00070470A6001220A7100224A717047000013
:10CAD000FC5A002010B54FF48270FFF7A4FB02202F
