:020000040002F8
:1070000088840120957402009D740200B57202000C
:10701000A1740200A3740200A57402000000000025
:1070200000000000000000000000000015720200D7
:10703000A97402000000000059720200AD74020041
:10704000C17B0200AF740200AD820200B17C02007D
:10705000C17C0200AF740200DD7A0200AF7402004E
:10706000AF740200AF740200AF740200197C02001A
:10707000AF740200AF740200AF740200AF7402007C
:10708000AF740200497C0200AF740200AF740200CA
:10709000AF740200AF740200A5800200AF7402005A
:1070A000AF740200AF740200AF740200AF7402004C
:1070B000AF740200AF740200000000000000000086
:1070C000AF740200AF740200AF740200AF7402002C
:1070D000AF740200AF740200AF740200AF7402001C
:1070E000AF740200AF740200AF7402000000000031
:1070F00000000000AF74020000000000D17C02001C
:10710000000000000000000000000000000000007F
:10711000000000000000000000000000000000006F
:10712000000000000000000000000000000000005F
:10713000000000000000000000000000000000004F
:10714000000000000000000000000000000000003F
:10715000000000000000000000000000000000002F
:10716000000000000000000000000000000000001F
:10717000000000000000000000000000000000000F
:1071800000000000000000000000000000000000FF
:1071900000000000000000000000000000000000EF
:1071A00000000000000000000000000000000000DF
:1071B00000000000000000000000000000000000CF
:1071C00000000000000000000000000000000000BF
:1071D00000000000000000000000000000000000AF
:1071E000000000000000000000000000000000009F
:1071F000000000000000000000000000000000008F
:10720000DFF80CD000F02CFC00480047E5C8020075
:1072100088840120264B19680868B0E8F04F80F395
:107220000988BFF36F8F4FF0000080F3118870471B
:10723000000000000748006880F3088862B661B665
:10724000BFF34F8FBFF36F8F4FF4F07080F311884F
:1072500000DF000000700200EFF30980BFF36F8FC2
:10726000134B1A681EF0100F08BF20ED108A20E99A
:10727000F04F106008B44FF0400080F31188BFF366
:107280004F8FBFF36F8F0AF079F94FF0000080F352
:10729000118808BC19680868B0E8F04F1EF0100F9C
:1072A00008BFB0EC108A80F30988BFF36F8F704776
:1072B000E4590020094B1EF0040F1CBFEFF30980B6
:1072C0001847EFF308800649064A884201D89042E1
:1072D00002D88D464FF0000018470000817B020065
:1072E00088840120887C012030B450E8012F93B2BB
:1072F000C48923448489A34228BF1B1B0489A34259
:1073000002BFBFF32F8F002007E0C3EA020340E86B
:107310000134002CE9D14FF001000A6030BC704705
:1073200050E8012FC2EA024240E801210029F7D1CA
:10733000704730B450E8022F1FFAA2F3C488A3426A
:1073400002BFBFF32F8F00200DE0C489234484893E
:10735000A34228BF1B1BC2EA034340E80234002CAF
:10736000E8D14FF001000A6030BC704750E8022FAE
:10737000C2EA224240E802210029F7D170470346C1
:1073800053E8022FD988B2EB324F4FF0000017BFFD
:1073900092B241EA014142EA014104E05A68B2EB8B
:1073A000324F08BF012043E80212002AE8D170479B
:1073B00030B4044654E8000F0D4644E80053002B57
:1073C000F8D1156030BC704730B4044654E8000F63
:1073D00040EA010544E80053002BF7D1156030BCAA
:1073E000704730B4044654E8000F00EA010544E851
:1073F0000053002BF7D1156030BC704730B4044601
:1074000054E8000F80EA010544E80053002BF7D14F
:10741000156030BC704730B4044654E8000F00EBF0
:10742000010544E80053002BF7D1156030BC7047CC
:1074300030B4044654E8000FA0EB010544E80053C3
:10744000002BF7D1156030BC704770B404464FF084
:10745000000054E8006F0D68AE4207BF44E8002307
:10746000012044E800630E60002B1CBF0020F0E701
:1074700070BC704730B4044654E8000F88422CBFFB
:10748000451A054644E80053002BF5D1156030BC81
:10749000704700000648804706480047FEE7FEE7C1
:1074A000FEE7FEE7FEE7FEE7FEE7FEE7FEE7FEE7B4
:1074B000D980020001720200202A04DB203A00FA7F
:1074C00002F1002070479140C2F1200320FA03F33B
:1074D00019439040704710B5431A934209D283185C
:1074E000881803E010F8011D03F8011D521EF9D29F
:1074F00010BD40EA01039B0703D009E008C9121F31
:1075000008C0042AFAD203E011F8013B00F8013B5D
:10751000521EF9D210BDD2B201E000F8012B491E73
:10752000FBD270470022F6E710B513460A46044620
:107530001946FFF7F0FF204610BD421C10F8011B52
:107540000029FBD1801A704730B50446002003465D
:1075500000E05B1C934203D2E05CCD5C401BF8D0A2
:1075600030BD2DE9FE4F804681EA0300C00F0C4676
:10757000009021F0004123F00045B8EB0200A94142
:1075800005D24046214690461C460B46024623F053
:107590000040104347D0270DC7F30A00C3F30A5138
:1075A0000290401A019040286BDAC3F3130040F4B4
:1075B000801B0098924620B10023D2EB030A63EBB4
:1075C0000B0B01985946C0F140025046FFF774FF7B
:1075D00006460D4650465946019A00F0A1F910EBB7
:1075E00008006141002487EA115284EAE7731A43D4
:1075F00040D0009A62B3019A012A4FEA075215DC83
:10760000001B61EB02014FF0004202EA0752CDE994
:107610000042001C41F5801132462B4600F0A1F9D2
:1076200003B0BDE8F08F40462146F9E7001B61EB4F
:107630000201001C41F5801300185B412018A2F5DF
:10764000001747EB030140EAD570B6196D4111E010
:107650006D084FEA360645EAC0754FEA0752001B2F
:1076600061EB0201001C41F5801149084FEA30002E
:107670000019514132462B4603B0BDE8F04F00F0EF
:1076800061B90098012240000023D0EB020263EBB5
:10769000E073009821464FEAE074B8EB000061EB1C
:1076A0000401E9E783F000435BE781F0004158E71C
:1076B0002DE9FE4F81EA030404F0004421F000416B
:1076C00000944FF0000B23F0004350EA01045ED019
:1076D00052EA03045BD0C3F30A54C1F30A552C44A5
:1076E000A4F2F3340194A0FB0254C1F3130141F45A
:1076F0008011C3F3130343F4801301FB024400FB26
:10770000034E840A970A44EA815447EA8357A4FB4C
:10771000076802958D0A05FB07854FEA932C04FB49
:107720000C542705029D4FEA065847EA1637B5EB79
:1077300008056EEB070C870E920E47EA811742EAA6
:107740008312A7FB0201B6EB0B0164EB00042B0DC7
:1077500043EA0C335E1844EB1C50DA465146E7FB13
:107760000201C5F313044FEA0B3343EA14534FEA03
:107770000432019C43EA0603A4F10C040294009C29
:10778000CDE900B400F0EDF803B0BDE8F08F0020C3
:107790000146F9E72DE9F04D81EA030404F0004BBE
:1077A00021F0004514464FF0000A23F0004150EA52
:1077B000050220D054EA01021DD0C5F30A57024643
:1077C000C5F31303C1F31300C1F30A5640F4801547
:1077D00043F48013A7EB0608101BD64608F2FD38C9
:1077E00073EB050002D308F1010801E092185B4138
:1077F000B8F1000F03DA00200146BDE8F08D00204B
:107800004FF48011064684460EE0171B73EB050704
:1078100005D3121B63EB050306434CEA010C490830
:107820004FEA300092185B4150EA0107EDD152EA6D
:10783000030012D082EA040083EA0501084305D060
:10784000101BAB4106D20122002306E000224FF0BC
:10785000004302E06FF0010253101AEB06004CEBFC
:10786000085110EB0A0041EB0B01BDE8F04D00F0B0
:1078700069B830B50B46014600202022012409E0FA
:1078800021FA02F59D4205D303FA02F5491B04FAD9
:1078900002F52844151EA2F10102F1DC30BD2DE9EC
:1078A000F05F0546002092469B4688460646814684
:1078B00040241BE0284641464746224600F020F877
:1078C00053465A46C01A914110D3114618462246D3
:1078D000FFF7F2FD2D1A67EB01084F462246012003
:1078E0000021FFF7E9FD17EB00094E41201EA4F12E
:1078F0000104DFDC484631462A464346BDE8F09F96
:10790000202A04DB203A21FA02F00021704721FAF4
:1079100002F3D040C2F1200291400843194670475B
:10792000202A06DBCB17203A41FA02F043EAE07343
:1079300006E041FA02F3D040C2F120029140084330
:107940001946704710B5141E73F1000408DA401C84
:1079500041F1000192185B411A4301D120F001006E
:1079600010BD2DE9F04D92469B4611B1B1FA81F25E
:1079700002E0B0FA80F220329046FFF79DFD044607
:107980000F4640EA0A0041EA0B0153465A460843B3
:1079900013D0114653EA010019D0C8F140025046F5
:1079A000FFF7AEFF05460E46504659464246FFF7E2
:1079B00083FD084305D0012004E020463946BDE898
:1079C000F08D0020054346EAE0762C4337430A98C1
:1079D0006305E40AA0EB08000022FD0A44EA4754CC
:1079E0000A3002D500200146E9E701051019694176
:1079F000DDE9084500196941BDE8F04DA2E7C1F392
:107A00000A52C1F3130140F2FF3341F480119A424C
:107A100002DA00200146704740F233439A42A2F254
:107A2000334202DC5242FFF76BBFFFF745BD000057
:107A300030B5041E71F1000404DB4FF000444042F5
:107A400064EB0101141E73F1000405DB1C464FF0CA
:107A50000043524263EB0403994208BF904230BD99
:107A6000064C074D06E0E06840F0010394E807008B
:107A700098471034AC42F6D3FFF7C6FB08F8050070
:107A800028F8050070B58C1810F8015B15F0070395
:107A900001D110F8013B2A1106D110F8012B03E0A7
:107AA00010F8016B01F8016B5B1EF9D12B0705D4AF
:107AB0000023521E0DD401F8013BFAE710F8013BF8
:107AC000CB1A921C03E013F8015B01F8015B521E14
:107AD000F9D5A142D8D3002070BD00002DE9FC41AA
:107AE0000025DFF8948000954FF4807601242F461E
:107AF0000195304605F0F8FD38B1D8F8040320426E
:107B000003D0304605F0E6FD2543361D64007F1C9A
:107B1000B6B2082FEDD34FF4BE74204605F0E4FD55
:107B200048B1204605F0D6FD45F000456A460221E1
:107B3000002005F015FD15F0FF0F16D001260024DA
:107B40002E420ED008EB8401D1F81005D1F81015A3
:107B5000C0F30520094AC1F3014152F8242002B1C3
:107B600090477600641C082CEAD3002D02DA6846A0
:107B700007F0EEF9BDE8FC8100600040A875012027
:107B8000054909680449091D09680021491C1A2989
:107B9000FCD300F003F8000028ED00E0BFF34F8FA6
:107BA00005480168054A01F4E06111430160BFF333
:107BB0004F8F00BFFDE700000CED00E00400FA0568
:107BC00070B54FF48076304605F0ECFA114CB505EF
:107BD00060B1304605F0EDFA0120C5F80803607980
:107BE00020B9012060712168002088474FF4827617
:107BF000304605F0D7FA00280AD0304605F0D9FA09
:107C00000220C5F808032168BDE87040012008473C
:107C100070BD0000FC5A00200948D0F8401100292E
:107C20000DD00021C0F84011012181600548826813
:107C3000C1691144C161C068002800D00047704785
:107C400000B000406C5B00202DE9F041164E4FF46F
:107C5000A071304605F052FD0025EFF3118440205D
:107C600080F31188D6F804758100304605F046FD92
:107C70000AF0DCF8381A20F07F46012E07D90AF006
:107C8000C7F8022803D000260AF0DCF80543761E68
:107C9000FAD225B105494FF08050086040BFE0B2EC
:107CA00080F31188BDE8F0810010014004ED00E090
:107CB0000149024804F0A2BC507601200030004087
:107CC00002494FF0402008F04BBF0000147601201D
:107CD0000149024804F092BC7476012000F0024091
:107CE00010B504463A2000F051F904F07700BDE8E1
:107CF000104000F065B908B1292000E0282000F00C
:107D000045B92DE9F0411546069E0446F0282BDAC8
:107D1000F02929DA6019401EF02802DBC4F1F000D6
:107D200005B2C818401EF02802DBC1F1F00003B212
:107D300088B2CF1816E0411C8846CBB26119491EA3
:107D4000CAB2C1B2E0B200F065F92C4606E0304696
:107D5000B61C012100F0F6F8641E24B2002CF6DCFB
:107D60001FFA88F08742E6DCBDE8F08107B5F0280D
:107D70000DD200290BDBF02909DACBB2C2B2C9B2AD
:107D8000C0B200F047F9012102A800F0DBF80EBDF7
:107D90001FB50446EF2300211A46084600F03AF9C1
:107DA0004FF461412046FFF7BDFB084A01AB07CA0B
:107DB000009483E8070000226946054806F086F82B
:107DC00000226946024806F081F81FBDFCF7050055
:107DD000905B002070B51C461546F02822DAF02989
:107DE00020DA4219F02A02DDC0F1F00215B20A19B8
:107DF000F02A02DDC1F1F00214B20A19521ED3B208
:107E00004219521ED2B2C9B2C0B200F003F9002624
:107E100014FB05F404E0012104A800F093F8761C9B
:107E2000B442F8D870BD08B5F023002100901A467E
:107E30000846FFF7CFFF08BD10B5044604280AD84E
:107E4000262000F0A3F80120641EA040BDE81040E9
:107E5000C0B200F0B5B810BD10B52D2005F0A2FBE2
:107E60000A2005F0BFF92D2005F017FCBDE81040F1
:107E7000962005F0B7B910B5282005F0B3F9FFF743
:107E8000EBFF00F006F9002000F0F6F85520FFF7B0
:107E900027FF0A2005F0A6F901220023114604203D
:107EA00000F020F80A2005F09DF9012000F014F8F8
:107EB0000220FFF7C1FF0A2005F094F90020FFF728
:107EC000B2FF222005F06EFB0120FFF714FFBDE892
:107ED0001040642005F086B908B1212000E0202080
:107EE00000F054B82DE9F04100F007059846164619
:107EF0000F46362000F04AF8082D14D2DFE805F0CE
:107F00000406080A0C0E101200240CE040240AE0BB
:107F1000802408E0C02406E0202404E0602402E07D
:107F2000A02400E0E02407B1102406B10424B8F135
:107F3000000F01D044F008042046BDE8F04100F0F5
:107F40003FB80000F0B585B00C46054604AE0D4FB5
:107F500012E028788DF81100288801AB000A8DF80E
:107F6000100007F12C0007C8009683E807000022E4
:107F70006946054805F0AAFF641EA4B2E9D205B01F
:107F8000F0BD0000C0F70500905B002001B584B093
:107F90001E2005F007FB084A01AB07CA83E807006B
:107FA00004A8009000226946044805F08FFF1E20B7
:107FB00005F073FB05B000BDCCF70500905B002019
:107FC00001B5074A84B001AB07CA83E8070004A8DB
:107FD000009000226946034805F078FF05B000BD17
:107FE000DCF70500905B002010B50949D0E90030AE
:107FF000C1E90130107808701E2005F08DFA2D209F
:1080000005F08AFABDE81040222005F085BA00008C
:108010008C5B00202DE9F04114461F460D460646B4
:10802000A04210D8F02C0ED82A20FFF7AFFF300A5C
:10803000FFF7C6FF3046FFF7C3FF200AFFF7C0FF78
:108040002046FFF7BDFF3C46A54210D8F02C0ED8C5
:108050002B20FFF79BFF280AFFF7B2FF2846FFF708
:10806000AFFF200AFFF7ACFF2046FFF7A9FFBDE8EE
:10807000F0412C20FFF78ABF10B508B1102000E0B6
:108080001120FFF783FFBDE810404FF4FA7005F0B0
:10809000A9B810B50120FFF779FFBDE81040822094
:1080A00005F0A0B808B500200090094869460068AE
:1080B00009F0C6F90098002808D006494FF0805012
:1080C000086040BFBFF34F8FBFF36F8F08BD000044
:1080D000645B002004ED00E070B54FF08052012495
:1080E000D2E94C100023082906D1CD06C5F80C3181
:1080F000C5F810315E4D2B60082955D15D4D2D68B6
:108100005D4E35605B4D2D1D2D68361D3560594D1A
:1081100008352D68361D3560564D0C352D68361DD9
:108120003560544D10352D68361D3560514D143570
:108130002D68361D35604F4D18352D684E4E203652
:1081400035604C4D1C352D68361D3560494D203548
:108150002D68361D3560474D24352D68361D356038
:10816000444D28352D68361D3560424D2C352D681F
:10817000361D35603F4D30352D683F4E40363560F9
:108180003C4D34352D68361D35603A4D38352D68F7
:10819000361D3560374D3C352D68361D3560354D03
:1081A00040352D68361D3560082904D1050002D1FF
:1081B000334E324D3560082904D1050002D1314ECD
:1081C000FB253560082908D1050006D192F85862D0
:1081D0002D4A156866F303051560082904D10200CD
:1081E00002D12A4D8A012A60082906D1284801684F
:1081F000C90702D06FF0010101602648016841F40F
:1082000070010160BFF34F8FBFF36F8F4FF01021EC
:10821000D1F80002002803DBD1F80402002822DA9A
:108220001D4A14601D480468002CFCD01224C1F8BB
:1082300000420568002DFCD0C1F804420168002905
:10824000FCD0136001680029FCD0BFF34F8F1148A8
:108250007C380168124A01F4E06111430160BFF308
:108260004F8F00BFFDE710490E48086070BD000049
:10827000380500400404001020C500404881030078
:108280008C56004018F50040E40E00404096024035
:108290000004004088ED00E004E5014000E40140F6
:1082A0000400FA050090D003985B002001480068A4
:1082B00000470000045B00200FB4084B10B504A970
:1082C00002AA039800F02EF9044602A9002000F04B
:1082D000CBFC204610BC5DF814FB0000698C02004A
:1082E0007CB5044600201D46164600290BD0491EC9
:1082F000CDE90041044B6A462946304600F012F9A8
:10830000009A002111707CBD538C02002DE9F047CA
:1083100082460F4C10480D4E0E4F001B4FF00008C8
:1083200020F007054FF0010900221146504604F0E5
:108330003DF9002802D1306810B10020BDE8F08777
:108340003C60C4E90058C6F80090EDE7A05B00204F
:108350008C7801209C5B0020887C012002E008C80A
:10836000121F08C1002AFAD170477047002001E0AF
:1083700001C1121F002AFBD17047000001212028F3
:1083800003DA81400548014003E0402802DA203842
:10839000814009B10120704700207047FC06FFBDF5
:1083A0002DE9FF5F82B00021DDE90430020DDDF828
:1083B00040B0034318D044F61050A2F2FF324243BB
:1083C0001514119801281FD0A5EB0B00401C5FEA83
:1083D000000A4FF000064E4FDFF83891B046504685
:1083E00015D5CAF1000413E0119801244AA301280D
:1083F00001D16FEA0B010298119AC0E90031C0E97E
:10840000024206B0BDE8F09FCBF10000DFE7044672
:108410000021404A491842EB0450CDE9001012E017
:10842000E00707D032463B4640464946FFF740F951
:108430008046894632463B4610461946FFF738F9D2
:1084400006460F466410002CEAD1DDE90401DDE99F
:108450000023BAF1000F06DAFFF72AF942464B462D
:10846000FFF726F905E0FFF795F942464B46FFF77F
:1084700091F904460E460022284BFFF7D9FA03D89B
:108480004FF0FF30014607E00022254B20463146E1
:10849000FFF767F8FFF7B3FA102409E0002C0ADBB6
:1084A0000A220023FFF7FBF9039B30321A55641EA2
:1084B00050EA0102F2D1641C039AC4F1110314447E
:1084C000119A012A03D0012208430DD10AE0084382
:1084D00004D000204FF0110B119072E7A3EB0B05B5
:1084E0006D1E0DE05B4504DD4FF0000205F1010556
:1084F00004E003DA4FF00002A5F10105002AECD0F8
:1085000002981199C0E90231C0E9004579E70000FD
:10851000000014400000F03F300000000000F04375
:108520000000E03F2DE9FF4F95B09B468946064687
:1085300000250FE2252877D100242746F84A01219B
:10854000059400E0044316F8013F203B01FA03F0D4
:108550001042F7D130782A2811D06FF02F033078ED
:10856000A0F13002092A16D8059A44F0020402EB61
:10857000820203EB42021044761C0590EFE759F8A3
:10858000042B0592002A03DA504244F4005405906B
:1085900044F00204761C30782E2816D116F8010F0C
:1085A00044F004042A280DD06FF02F023078A0F197
:1085B0003003092B09D807EB870302EB4303C718E5
:1085C000761CF3E759F8047B761C30786C280FD0C2
:1085D00006DC4C2817D068280DD06A2814D104E096
:1085E000742810D07A280FD10DE044F400140AE06A
:1085F00044F4801401E044F440147278824202D1C1
:1086000004F58014761C761C307866280BD013DCB9
:10861000582877D009DC002875D04528F6D04628A0
:10862000F4D047281AD19DE118E0632835D064289A
:1086300079D0652812D195E1702873D008DC6728BD
:10864000F1D069286FD06E280DD06F2806D1B5E023
:1086500073282CD0752875D0782874D05A4617996D
:1086600090476D1C75E1C4F30250022809D003281D
:108670000DD0D9F8001004280DD00D6009F10409BF
:1086800067E1D9F80010EA17C1E90052F6E7D9F816
:1086900000100D80F2E70D70F0E719F8041B8DF85B
:1086A000001000208DF80100EA46012003E059F88F
:1086B00004AB4FF0FF3061074FF0000102D40DE032
:1086C00008F101018846B9420FDA8045F8DB1AF853
:1086D00008100029F4D108E008F101018846814220
:1086E000FADB1AF808100029F6D105985B46A0EBD2
:1086F000080721463846179A00F094FA284400EB00
:10870000080507E04DE029E10DE01AF8010B5A4693
:1087100017999047B8F10108F7D25B4621463846D1
:10872000179A13E142E00A220092C4F302524FF07A
:10873000000A022A08D059F804CB032A4FEAEC7148
:108740000AD00DE029E02AE009F1070121F0070233
:10875000F2E802C1914609E00FFA8CFC4FEAEC7195
:10876000042A03D14FFA8CFC4FEAEC71002907DA96
:108770000A460021DCF1000C61EB02012D2202E02F
:10878000220504D52B228DF80420012203E0E20704
:1087900001D02022F7E7904659E00A2102E010229A
:1087A0000DE010214FF0000A00910BE010224FF075
:1087B000000A44F004040827009203E008224FF066
:1087C000000A0092C4F30252022A05D059F804CBE1
:1087D0000021032A08D009E009F1070121F007026E
:1087E000F2E802C1914605E01FFA8CFC042A01D18F
:1087F0000CF0FF0C4FF00008220728D5702806D097
:10880000009B83F0100353EA0A0305D00EE04022D8
:108810008DF80420012208E05CEA010206D0302233
:108820008DF804208DF8050002229046009B83F00D
:10883000080353EA0A030AD15CEA010201D1620784
:1088400005D530228DF804204FF001087F1E5828EE
:1088500004D034A003900EA802900DE036A0F9E7F2
:1088600053466046009AFFF71AF884460398825CE4
:108870000298401E029002705CEA0100F0D102985A
:1088800006A9081A00F1200A600702D524F48034F2
:1088900000E00127574502DDA7EB0A0000E00020B9
:1088A00000EB0A01009005984144401A0590E0034E
:1088B00006D45B462146179A059800F0B3F90544A3
:1088C000002706E001A85A46C05D179990476D1C25
:1088D0007F1C4745F6DBE0030CD55B462146179A23
:1088E000059800F09FF9054404E030205A46179996
:1088F00090476D1C0099481E00900029F5DC08E0A7
:10890000029802995A460078491C0291179990479B
:108910006D1CBAF10001AAF1010AF1DC65E1000069
:108920000928010030313233343536373839616245
:108930006364656600000000303132333435363709
:1089400038394142434445460000000000F058F9E0
:108950000544761C307800287FF4ECAD19B0284629
:10896000BDE8F08F620700D4062709F1070222F064
:10897000070CFCE80223E14603F000485FEA080C1C
:1089800002D00FF2702C0DE05FEA045C02D50FF20A
:10899000682C07E05FEAC47C02D00FF2602C01E093
:1089A000AFF2700C4FF0FF3823F00043CDF850C009
:1089B00065280CD006DC452809D046281DD047285C
:1089C0003DD13DE0662818D067287ED138E00021EF
:1089D000112F01DB112000E0781CCDE9000106A970
:1089E0000EA8FFF7DDFCDDE90F010E9A03910021CF
:1089F000009207F1010A04914DE04FF0004000970A
:108A0000CDE9011006A90EA8FFF7CAFCDDE90F02A7
:108A100003920E9B11990022DDF80CA000930492A2
:108A200011B9791C00EB010AB7EB0A0004D4C0F1BC
:108A3000FF3007F1010A0490AAEB0700019044E01F
:108A4000012F00DA01270021112F01DD112000E0A4
:108A50003846CDE9000106A90EA8FFF7A1FCDDE923
:108A60000F010E9A0391002104910092BA4621074A
:108A70000CD40399514500DA8A46BAF1010F05DD9D
:108A8000009AAAF10101515C302908D0B84202DAFB
:108A900010F1040F06DA0121CDE9011015E0AAF169
:108AA0000101E9E7002805DC049901440491AAEBDF
:108AB000000102E0411C514500DD8A460499401A3C
:108AC000401C01904FF000400290200704D4019810
:108AD000504501DBCDF8048000208DF84F0002984E
:108AE0000DF14F07B0F1004F25D02B200E900298CA
:108AF0004FF0020800280CDA404202902D200E9020
:108B000007E00A210298FEF7B4FE3031029007F820
:108B1000011DB8F10001A8F10108F2DC029800285B
:108B2000EFD1791E0E980870307800F0200040F0E8
:108B3000450007F8020D12A8C01B00F107081498A1
:108B4000007800B1012000EB0A01019801EBE0710F
:108B500005984144401A401E0590E00306D45B4648
:108B60002146179A059800F05DF80544149800789E
:108B700018B15A46179990476D1CE00324D55B46FF
:108B80002146179A059800F04DF805441CE004981A
:108B9000002807DBDDE90301884203DD0098405C23
:108BA000179901E0179930205A469047049805F12B
:108BB0000105401C04900198401E019004D12E2014
:108BC0005A46179990476D1CBAF10001AAF1010AA3
:108BD000DDDC05E017F8010B5A46179990476D1C2C
:108BE000B8F10001A8F10108F4DC5B462146179AB0
:108BF0000598ABE62D0000002B00000020000000CF
:108C00002DE9F041044600251E461746880404D489
:108C100005E039462020B0476D1C641EF9D5284672
:108C2000BDE8F0812DE9F041044600251E4690463E
:108C3000C80301D5302700E02027880404D505E0CB
:108C400041463846B0476D1C641EF9D52846BDE83C
:108C5000F0814A68002A06D00A68531C0B60107025
:108C60004868401E486070470A68531C0B601070CB
:108C7000704710B560B159B102780B785208B2EB69
:108C8000530F05D10622401C491CFEF75DFC08B1BC
:108C9000002010BD012010BD800701D000207047CA
:108CA00001207047C3688B4206D811440069491EF1
:108CB000814201D8012070470020704790F82400BD
:108CC000012801D01F207047EE20704710B5012207
:108CD0000221002001F0FEFB08B1072810D1072275
:108CE0000221012001F0F6FB08B1072808D100217C
:108CF0000A22084601F0EEFB08B1072800D1002047
:108D000010BD000010B5007810B106F0ADF803E01A
:108D10000321054800F09EFC002803D0BDE8104068
:108D200000F0A0B810BD00003C5C002070B58CB015
:108D300015460E4600236C46C3F10F01415CE15419
:108D40005B1C102BF8D30D2104F11000FEF7EAFB99
:108D50000020C0F10F02315C2244401C1174032832
:108D6000F7D3684646DF0020C0F10F01214491F897
:108D700020102954401C0328F6D30CB070BD0220EB
:108D800001F0AABA0149C97800F0D4BE945A002073
:108D900070B50024064D06E06868012110F8340023
:108DA00004F086FE641C28788442F5D3002070BD50
:108DB000105B0020F8B516460C4605460A2A01D27B
:108DC0000720F8BD04F06CFF18B904F02DFF00284F
:108DD000F7D1134F202113487D603C70BE60FEF731
:108DE000A1FB0020C7E904000F4E0DE005EBC40015
:108DF0003168009181788DF8011000780B4A69463E
:108E000004F0A2FE0028DCD1641EE4B2EED2BDE87C
:108E1000F84005480021064A001D00F041B8000056
:108E2000105B0020B876012030C605007DBE020030
:108E300071AE020072B609480068C00700D000BEDB
:108E4000BFF34F8F0548E4380168054A01F4E0613B
:108E500011430160BFF34F8F00BFFDE7F0ED00E06D
:108E60000400FA050EB500210091CDE901106A4613
:108E700044F20100FFF7DEFF0EBD10B506F02EFC38
:108E8000017B00290BD0417B39B1002101730168BE
:108E90008268BDE81040084610470121F6E710BD82
:108EA00038B5046800251AB110B1207B20B901E063
:108EB000072038BD606808B1082038BD0020206058
:108EC000A060E06011B10120002101E0002001213B
:108ED0006173A26006490246009123464FF47A71FD
:108EE00004A009F0C7F8606000B90E25284638BD17
:108EF0007B8E020020000000002070477CB5466891
:108F0000044626B1207B002803D000207CBD082029
:108F10007CBDEFF30580226008B300250A46019569
:108F200001AB09213046009509F0DEF801282BD16C
:108F300008F082FF024601AB06213046009509F099
:108F4000D3F8012820D1019800B312494FF0805086
:108F5000086040BFBFF34F8FBFF36F8F16E002254D
:108F60000A46002304213046009509F0BDF8012887
:108F70000AD108F05BFF024600230121304600952C
:108F800009F0B2F8012801D004207CBD0120207333
:108F9000BBE7000004ED00E07CB504464068002516
:108FA00000280CD0EFF30581B9B1019501AB002287
:108FB0000821009509F098F8012817D101E0082050
:108FC0007CBD0198A0B10C494FF08050086040BFB3
:108FD000BFF34F8FBFF36F8F0AE002210023009190
:108FE0001A46032109F080F8012801D004207CBD35
:108FF000257300207CBD000004ED00E030B5EFF3E8
:10900000108172B60D4A9468012324B103700029BF
:1090100000D162B630BD93604FF0E023D3F88051A9
:10902000074C25401560C3F88041D3F88441546053
:109030005A17C3F8842100220270E8E7D87601208D
:10904000FC06FFBD0B498A68002A11D000280FD109
:10905000EFF3108072B60B684FF0E022C2F80031D7
:109060004B68C2F8043100228A60002800D162B641
:1090700070470000D876012038B508F0D7FE1D4CA7
:1090800002250246009500230121E06809F02CF832
:10909000012802D00420FFF7E5FE08F0C7FE0246D3
:1090A000009500230121206909F01EF8012802D053
:1090B0000420FFF7D7FE08F0B9FE02460095002312
:1090C0000121606909F010F8012802D00420FFF79F
:1090D000C9FE08F0ABFE0246009500230121A069FD
:1090E00009F002F8012804D0BDE838400420FFF759
:1090F000B9BE38BD7859002003F0B8BB2DE9F04364
:1091000080460588384800268BB0017832462846CC
:1091100000F028FD98F80500400701D4002154E034
:1091200005F58077B8B203AB0122072105F0F4F80A
:10913000010003D0284606F041FFEFE7284603F080
:109140007DF94FF6FF710446884225D1894604987F
:1091500003F0DEF804464946484510D0014628464B
:1091600003F04CF92846FFF70DFEA8B9284606F093
:10917000F7FE2846FFF706FE0028CFD00CE00E468B
:1091800005F046FA0446B04201D10421D2E7014677
:10919000284603F033F90126B8B22246072105F02C
:1091A00021F9010010D0862913D0284606F006FFC9
:1091B0000021404604F0F2FF002E02D0204603F0CA
:1091C00027F90BB0BDE8F0830121404604F0E6FF2B
:1091D000F7E71422054905A8FEF77DF9ADF816500A
:1091E00005A802F023F9EFE7945A0020DCC505003A
:1091F00070B5044690B0087B0D468DF838002021EC
:1092000005A8FEF78FF942F61920ADF814000120E9
:10921000ADF81800ADF81A000EA80790617C9DF813
:109220002100A21D61F3041040F002008DF821001E
:10923000A87B8DF82700687B8DF82500A08805A9FC
:1092400001F04EFB00281CD1A968E1B10FA800F085
:10925000F8FF064614216846FEF764F942F6081046
:10926000ADF80000E87B8DF806000FA8ADF80A60A5
:10927000ADF80E600490E08804F10E02694601F03A
:10928000A1FD10B070BD0020E081FAE710B50D49D6
:109290000D4806F00AFFC1B24FF6FE720B4800F00F
:1092A000F1FA00280DD008280BD0132809D0112876
:1092B00007D043F20141884203D0BDE81040FFF7D8
:1092C000D1BD10BD706000209C590020B85B00200B
:1092D0000A4601461046AEDF70472DE9FC470025DF
:1092E00017880646158090F82D001446894630B13F
:1092F0003A462146484600F05BFC051E09D1B0788D
:109300004FF00C0A18B32088C846001DB84202D995
:109310005046BDE8FC87684679DF0028F9D12088EF
:10932000032108F8001020881921401C80B22080F9
:1093300008F800102088401C80B2208000EB080153
:10934000BDF8000007F0F4FD218808442080F07883
:109350000222C8B1218896F9033001F1030C484676
:10936000BC45D5D8425421884FF0010C491C89B224
:10937000218000F801C02188491C89B2218009F8A8
:1093800001302088401C20807068B8B1218890F995
:10939000003001F1030C4846BC45B9D8425421883D
:1093A0000A22491C89B2218042542188491C89B271
:1093B000218009F801302088401C2080308950B17C
:1093C000CDE900474B460622022106F1080007F0CE
:1093D00087FE051E9DD1308A50B1CDE900474B462E
:1093E0000722032106F1100007F07AFE051E90D136
:1093F000308B50B1CDE900474B461522142106F1C0
:10940000180007F06DFE051E83D1306A30B13B466F
:109410002246494601F08DFB051EDBD1706A30B152
:109420003B462246494603F0E7FB051ED2D196F89B
:109430002C0038B13B4622464946304606F002FF32
:10944000051EC7D1307838B13B46224649463046E2
:1094500003F008FC051EBDD128465AE718B504469E
:109460000020ADF8000013466A46204600F006F8DA
:10947000002802D0BDF80000204418BD70B5E0B14E
:10948000DAB1002402E0045D2C44A4B2651C8D42D4
:1094900006D21688A642F6D8061976789E42F2D1F0
:1094A0008C420AD2A31C005D9BB200B1401E000496
:1094B000000C02D01C188C4201D9002070BD138012
:1094C00070BD80F8301070472DE9F0410D00044662
:1094D00006D02CB195F87A000026012803D006E0CA
:1094E0000E20BDE8F08195F89800012821D04FF0BA
:1094F0000108A6702C2205F17801201DFDF7EBFF75
:1095000084F83060D5F8A4006063D5F8A800A063A3
:109510004FF6FF70A4F8240404F58260C4F8200418
:10952000C4F82664A4F82A6484F82C64207810B166
:1095300004E00720D5E7FF2084F8540004F1550724
:109540002046C4F81074FFF7B9FBA4F8140404F221
:10955000144239462846FFF7C0FE0028C1D104F264
:109560003120C4F818042046FFF7A8FBA4F81C0417
:1095700004F21C4205F13C00D4F81814FFF7ADFECC
:109580000028AED184F85180208BA4F8480084F8DC
:109590003C80266484F85060606900216064454620
:1095A00004F13C02781E72DF00289AD1257098E7FA
:1095B00010B50288102A1BD0112A20D0262A1DD1CE
:1095C000007A0C46012801D0022817D1A078052185
:1095D000401CB0FBF1F201FB1201204600F03AF80A
:1095E00000280BD0A16B002908D0BDE81040084727
:1095F000C27B012A02D18088A1F8240410BD0C4648
:10960000002184F82E148088B4F824148842F5D1FF
:1096100020790028F2D10121DFE710B5044690F847
:10962000540074DF012084F82E04002084F83004F4
:1096300084F850000621204602F063F9002808D182
:10964000A178204600F006F810B1A16B01B188475F
:10965000002010BD2DE9F05F044600780F4698B158
:10966000A7700025C4F82654A4F82A5484F82C5472
:10967000A079012608B1012F09D0E07980B1012F2E
:1096800005D0022F03D00BE00820BDE8F09F616BEE
:1096900021B184F82D640820884701E084F82D5416
:1096A00004F2274100200A5C0AB1304603E0401C66
:1096B0000628F8D300204FF002084FF0030B012FCB
:1096C00006D0022F0CD0032F0FD0042F15D110E09D
:1096D000A17929B194F8241011B908B130460DE0F0
:1096E000E17911B108B1404608E0207A08B1584646
:1096F00004E0607A08B1042000E02846A070616BA5
:1097000041B1032801D0042804D1607910B194F844
:109710002E0498B184F82F5404F13C001821074618
:10972000FDF700FF84F83C6004F12C0005F090F890
:1097300058B194F82C0084F8510008E084F83054B3
:1097400084F82F6407208847E6E784F8516094F88E
:10975000240058B104F1280005F07AF820B194F8FB
:10976000280084F8520001E084F8526084F85050D8
:10977000A27804F2264104F582694FF0060A052A10
:1097800064D2DFE802F07C030F22420084F83160EB
:10979000C4F82054C4E9101584F83C808020A4F853
:1097A000480055E084F8318094F82420384612B1FE
:1097B0000722027001E080F800B0228A8281C4F89A
:1097C00020544160E168B96042E06069B860208B74
:1097D000B88194F824003D460028204602D084F841
:1097E0003CA001E084F83C6007F046FC50B185F8ED
:1097F00014800421204602F084F838BB052184F847
:10980000311021E084F831B01EE0E069B860208CAE
:10981000B88194F824003D460028204602D084F800
:109820003CA001E084F83C6007F026FC48B185F8D4
:1098300014800421204602F064F838B984F831A07D
:1098400002E0042084F83100C4F82094A07878B1B4
:109850003A4604F15400D4F8201472DF00287FF453
:1098600014AF94F8301094F8540073DF0028F6D148
:10987000616B11B194F831008847002005E784F846
:109880003150F5E7F7B594B0174605003CD0287C79
:109890009DF854100024884252D000264FF0010E4B
:1098A0000D9615A8ADF834E00E90ADF83660E98855
:1098B0000DAA4FF6FF70ACDF040026D19DF85400CE
:1098C0002874687CA0B30F96109611961296E888BB
:1098D000ADF83C00BDF83600ADF840000DA8119081
:1098E0000E981290A7F57F408DF83EE0FE3805D027
:1098F00039460FA8FFF7ECFC044621E0684600F06B
:109900009DF800256F460FE00E2017B0F0BD00BF98
:1099100007EB4506B08800F0EFF8022803D144B108
:109920000FA9B088AEDF6D1C0098A842F0D807E000
:1099300005E0B1880FA8FFF7CBFC0446F3E7082445
:109940002046E2E738B50D46040018D0BDB12868BE
:10995000206028796074FF20207401208DF80200B7
:1099600041F60F00ADF80000221D69460120A8DF76
:10997000002803D129462046FFF73AFC38BD0E20C7
:1099800038BD38B5002924D0002822D00288502ABA
:109990001FD10546487C0C4600281AD0E988628908
:1099A000A81D914215D14189022912D121680029AF
:1099B0000FD00C3000F041FC08B1002000E0012085
:1099C0008DF80000A888ADF802002268694620469C
:1099D000904738BD70B5040012D001461C221448CF
:1099E000FDF779FD1248134D0560206850B17ADF0C
:1099F000002806D12068016829604068686005E099
:109A00000E2070BD0B487BDF0028FAD108484FF6C6
:109A1000FF711438084A20F8041B054934390160E5
:109A20000021FFF73DFA0028EBD0032070BD0000B5
:109A300018720120345A00201110030001494968AE
:109A400001F058B83472012010B5044600F0A6F8B1
:109A5000002805D02146BDE81040024803F018BA9E
:109A600010BD00004472012070B515460E46044634
:109A700007F00EFB002809D0054800EB8400C06900
:109A80002A463146BDE8704001F074BF70BD000049
:109A90003472012010B5044600F080F8002805D08B
:109AA0002146BDE81040024803F0F2B910BD0000A5
:109AB0004C72012010B5044600F070F8002805D063
:109AC0002146BDE81040024803F0E2B910BD000095
:109AD0004872012070B50546002400F05FF838B1E7
:109AE0002946044803F0D4F908B1022400E0012417
:109AF000204670BD4072012070B50546002400F07C
:109B00004DF838B12946044803F0C2F908B10224DF
:109B100000E00124204670BD3C72012010B51821E0
:109B2000034803F090F9182800D0C0B210BD00001F
:109B30003472012070B505460C46084607F0A8FAB5
:109B400060B1284600F02AF840B10548294600EBEC
:109B50008400BDE870401C3003F09AB9002070BD4D
:109B60003472012070B5054616460C46084607F0CB
:109B70008FFA00280ED0284600F010F8002809D0EF
:109B80000548324600EB84002946BDE870401C3091
:109B900001F0B2BE70BD000034720120142801D360
:109BA000002070470146014803F072B93872012065
:109BB0007CB5054608880C460930904201D90C2036
:109BC0007CBD68466DDF0028FAD1218808206854E2
:109BD00020881B21401C80B2208029542088401CF2
:109BE00080B220802844DDF801100160BDF8051026
:109BF00081802088801D80B220809DF80010490857
:109C000000D0012129542088401C208000207CBDE8
:109C10001FB5044601208DF8060041F60A00ADF894
:109C20000400494A01A90120A8DF00287DD122882B
:109C30005AB14548801C009094F83C3042F62920E7
:109C4000616800F01DFE00287BD122895AB13E4890
:109C50000A30009094F83C3042F62420E16800F08D
:109C60000FFE00286DD1228A5AB137481230009079
:109C700094F83C3042F62520616900F001FE00288E
:109C80005FD1228B5AB130481A30009094F83C30A2
:109C900042F62720E16900F0F3FD002851D1228C23
:109CA0005AB129482230009094F83C3042F62620E0
:109CB000616A00F0E5FD002843D1228D5AB12248A7
:109CC0002A30009094F83C3042F62820E16A00F0F7
:109CD000D7FD002835D1216B79B102A806F0C0FE6E
:109CE000194808223230009094F83C3002A942F61C
:109CF000232000F0C5FD002823D1606B60B112491C
:109D00003A3100910279016894F83C3042F62A20F9
:109D100000F0B6FD002814D1A16B89B102A805F0AE
:109D2000FCF809484230009000E00AE094F83C302A
:109D3000072202A942F6502000F0A2FD002800D11F
:109D4000002004B010BD0000B25A002038B504460F
:109D50000088212822D008DC174D10280DD01128AA
:109D600002D14FF6FF70A88038BD3B2820D056287E
:109D7000FAD1A088132176DF0AE0072000F0CCFB9F
:109D800008B1FFF76FF8A188A9800C4803F092F999
:109D90000028E9D0BDE83840FFF764B80020009003
:109DA000A08869468FDF0028DED0FFF75BF838BD5A
:109DB000A088132176DFEBE778590020305C002083
:109DC00010B51A4C0188606810290ED011292BD1CA
:109DD000401E606028D1FEF779FF002824D021685A
:109DE000002921D0BDE810400847D0B90021012248
:109DF000084600F06FFB08B107280FD107220221A7
:109E0000012000F067FB08B1072807D104220221D6
:109E1000002000F05FFB20B1072802D0216801B1CB
:109E200088476068401C606010BD0000D059002069
:109E30002DE9F04701883B4E40F2F3194FF6FF75CC
:109E400010291BD011293ED0122954D0502946D1B7
:109E5000C188F289841D914241D1618902293ED194
:109E60008688304602F098FB050038D004F10C00DB
:109E700000F0E3F9A8B3294630464EE0C17B87885D
:109E8000044601292BD1A846284602F085FB05008F
:109E900017D02F8000202872234843464A46016885
:109EA000C5F80A104068C5F80E0004F1100105F16C
:109EB0000A0002F0D3FB6872F08900280FD129460E
:109EC0002AE0042013E0808802F066FB040006D03C
:109ED0006068FFF761F808B106F054F82580BDE826
:109EE000F087FFE76868FFF757F80028F7D0BDE86C
:109EF000F04706F047B887880646384602F04CFB24
:109F00000400ECD02B464A4606F1080104F10A0091
:109F100002F0A4FB607221463846BDE8F04700F02D
:109F20004FBE000018720120345A00202DE9F04F76
:109F3000044686880188424897B0834610290CD091
:109F4000112950D0103019296AD01A2974D1217AD8
:109F50000C09042C4DD301224CE0394D083DA86872
:109F6000C0430B9069680BA802F0B0FF0B990CA8D6
:109F700000F0C0FD2C220CA96846FDF7ACFA0027C2
:109F8000E946A84610E000BF09EB47005FF0000576
:109F9000B0F804A008EB85005146001D02F038FF20
:109FA0006D1C1E2DF6D37F1C0098B842ECD8142EE1
:109FB00005D317B00420BDE8F04FFEF753BF31467C
:109FC000584602F070FF314608F1040002F06BFFC2
:109FD000E07B022830D117B03146BDE8F04F184879
:109FE000001D02F060BF17B03146BDE8F04F02F02F
:109FF0000FBF0022314601F07FFC032C01D3012268
:10A0000000E000220E4831460C3001F075FC022CB5
:10A0100001D3012200E0002209483146083006E061
:10A02000217A002908D1617AC1F3C002314617B004
:10A03000BDE8F04F01F060BC17B0BDE8F08F000044
:10A040003C72012010B504460748007800280AD069
:10A05000204602F0CFF8204606F0B8F92046BDE8C9
:10A06000104001F0DDBD10BD6C5A002030B5044633
:10A07000008C8BB0A0F57F42FF3A23D005AA204682
:10A0800002F02CF80546ADF8000000200190029087
:10A09000039004902189ADF804100121ADF8080067
:10A0A0008DF8061005A8CDF80CD00490208C01A9DD
:10A0B000AEDF002804D1BDF80010A94200D00C206A
:10A0C0000BB030BD0820FBE7F0B504468FB0086840
:10A0D0002060087960714FF6FF702084002084F8BA
:10A0E0002200A4F84C001427012684F84E708DF845
:10A0F000226041F60D000D46ADF82000A21D08A912
:10A100003046A8DF002847D120216846FDF70AFA2B
:10A1100042F63720ADF80000ADF8047009AA00211E
:10A12000204601F0DBFFADF8060009A802908DF88B
:10A130000C609DF80D0004F1080240F010008DF84D
:10A140000D00287B8DF81300E088694600F0C8FBFD
:10A15000002821D1A868F0B120216846FDF7E2F976
:10A1600042F63820ADF80460ADF80000ADF80660A6
:10A17000A86802909DF80D0004F1100240F0020062
:10A180008DF80D00687B8DF81100E088694600F0BD
:10A19000A7FB002800D100200FB0F0BD38B5028821
:10A1A000102A15D0112A15D0502A16D130F8062FB2
:10A1B0008B899A4211D10C46418902290DD121681F
:10A1C00000290AD00C3000F038F838B1002006E041
:10A1D000808801E04FF6FF70088438BD01208DF8BB
:10A1E0000000226869462046904738BD70B5044695
:10A1F000B0F84C000D4614280AD104F1260126229D
:10A20000881EFDF768F9B4F84C00401EA4F84C0015
:10A21000B4F84C0004EB4001401CA4F84C008D84C1
:10A2200070BD80F82210704770B504460D46084690
:10A23000FDF783F92080656070BD007800F00100B3
:10A2400070470A7802704978417002207047000018
:10A250000149085C7047000094C40500084908B52E
:10A26000085C0090684603F0B5F9D0F81005009935
:10A27000C84010F0010000D0012080F0010008BDAE
:10A2800094C405002DE9FC410646C0074FF00005C7
:10A290000ED0104F00240122385D00950023114696
:10A2A000019503F0E4F8641C042CF4D300F04EF89C
:10A2B000B0070DD5074E0024361D0022305D032364
:10A2C00000951146019503F0D2F8641C042CF4D3D8
:10A2D000BDE8FC8190C40500094908B5085C009000
:10A2E000684603F077F9D0F80425009B01219940D6
:10A2F00021EA0203C0F808351140C0F80C1508BD6A
:10A3000090C405000249085C012103F0D0B90000A7
:10A3100090C405000249085C002103F0C8B90000A0
:10A3200090C40500084908B5085C0090684603F031
:10A3300051F9D0F804050099C84010F0010000D090
:10A34000012080F0010008BD90C4050010B5002474
:10A350002046FFF7D7FF641C042CF9D310BD10B5BD
:10A3600000242046FFF7D6FF641C042CF9D310BD4F
:10A3700010B50246064B4FF0FF3000215C5C944262
:10A3800001D1084610BD491C0429F7D310BD0000B7
:10A3900094C4050070B50C4E0C004FF00005306001
:10A3A0000BD0012000F06AF808B1022004E0002080
:10A3B00000F064F800B10B202070706810B9FEF74F
:10A3C00085FC0546284670BDD059002010B50020F8
:10A3D00000F0CCF908B1062806D1012000F0C6F93A
:10A3E00008B1062800D1002010BD00002DE9F0477B
:10A3F0000D468146FFF7BCFF0446042836D2DFF83D
:10A4000074801B481C4EA8F10C0725B3012D0ED0FB
:10A41000022D2BD104EB440030444578002D25D08B
:10A42000B968002922D02846BDE8F047084704EB68
:10A430004401755C0E44717849B10E4A4FF4806155
:10A44000093A8068FEF75AFD08B987F80390B17899
:10A4500008F80410E2E78068FEF79EFD04EB440173
:10A46000314418F804008D78A842D7D0BDE8F087B1
:10A4700098C40500CC590020E0600120042801D2D6
:10A48000FFF7ECBE002070470146104810B58088E9
:10A49000042907D007290ED00A2915D1BDE810409C
:10A4A00005F080BF132176DF0CE000280CD0BDE85A
:10A4B0001040FEF7D7BCA0F57F41FF3904D1044816
:10A4C000FFF7ABF80828F0D110BD00007859002044
:10A4D0003C5C002070B50023042810D20D4D00EB29
:10A4E0004004012A02D101290CD00022094E00EBC0
:10A4F0004000304461B1012906D0022906D007236B
:10A50000184670BD0E30C2B22A55F9E74270F7E71F
:10A510008270F5E7E0600120044A014600201279CC
:10A52000D20702D0084600F04DB87047C05900204D
:10A5300070B506461E480024C0E90161B0071FD56A
:10A540000025012211462846FFF7C4FF6D1C044672
:10A55000042D02D2002CF4D012E08CB93322042155
:10A560001448FEF727FC04000AD1FEF711FC040092
:10A5700006D11048104A0021001FFEF791FC044646
:10A58000F00712D00120FFF77DFE74B909480B4A8D
:10A5900000210C38FEF784FC040006D10548084A67
:10A5A00001210838FEF77CFC0446204670BD0000FF
:10A5B000C0590020A4C405009DA7020009C70200DD
:10A5C0007F8D02002DE9F05F654C0546002660781E
:10A5D00018B10020607002F07FF8624F4FF47A6B80
:10A5E0004FF4FA7A4FF47A784FF00109182D61D2BE
:10A5F000DFE805F00C13132F3E4B61666A726A7236
:10A60000B37B7B7B7B7BA1A4A7AAB3B302F064F8E6
:10A610003868FEF7C1FC064654E00020FFF782FED2
:10A6200000284FF0000008D0FFF76CFE022D02D189
:10A630004FF4E16009E0584607E0FFF76BFE022D9A
:10A6400001D1C82001E04FF4C87025700AEB8021C9
:10A6500029E00020FFF766FE00284FF0000004D03C
:10A66000FFF750FE4FF44870EFE7FFF753FEE8E7BF
:10A670000020FFF757FE00284FF0000002D0FFF740
:10A6800041FED8E7FFF746FEDDE70020FFF74AFE70
:10A6900000284FF0000002D0FFF734FE01E0FFF782
:10A6A00039FE31492570B1FBF8F100223868FEF718
:10A6B00025FC06463CE00020FFF70EFE257008E072
:10A6C000002047E0257033E084F801900120FFF777
:10A6D00003FE00226621E9E784F801900120FFF7DC
:10A6E000FBFD00224FF40071E0E77868FEF754FCB0
:10A6F0000646D5F1110000D02EB10220FFF702FE70
:10A700000020A07014E001280DD980B200EBC00138
:10A7100001EB00110AEB413191FBF8F1002278685E
:10A72000FEF7ECFB06460220FFF7F4FD84F80290EA
:10A730003046BDE8F09F01F0CFFFC3E701F0CCFF4A
:10A74000BEE701F0C9FF04E001F0C6FF0020FFF7FB
:10A75000E1FD0120FFF7DEFDB4E7FFF700FEB1E702
:10A76000C059002098C40500F4210300012106F01F
:10A7700027BF0000034630B507480021047842682F
:10A7800006E000BF02EBC10005789D4203D0491CE2
:10A79000A142F7DB002030BD105B002000780221D1
:10A7A000FFF724BE1CB5044601F048FE00236A46AC
:10A7B000092103F0A9FE052805D1034801224179AA
:10A7C0002046FFF7CFF91CBD3C5A00201CB50446BB
:10A7D0000020009042F6A620ADF8000001208DF880
:10A7E0000200084801AA6946006801902046A0DFDF
:10A7F000002805D10448012281792046FFF7B2F9EB
:10A800001CBD0000C8C405003C5A002005494FF09B
:10A81000FF32082841F8202002D3084480F858204D
:10A8200070470000A8750120F0B54FF0FF3512B158
:10A830000023082601E008230C260C4C05E000BF8D
:10A8400054F823707F1C04D05B1CB342F8D3284615
:10A85000F0BD26185DB286F8305044F82310002A67
:10A86000F5D1E11881F85800F1E70000A875012042
:10A870000249084490F9300070470000A875012093
:10A880002DE9F04188B01E46DDF8388014460D00F1
:10A89000074602D10020FEF7E5FA14B90020FEF7C2
:10A8A000E1FA20216846FCF73DFE9DF80D00ADF869
:10A8B000044040F002008DF80D000848ADF800702B
:10A8C000ADF8064002958DF8116042466946008851
:10A8D00000F006F808B0BDE8F0810000B25A002090
:10A8E0002DE9F0438146887891B090460C4600B936
:10A8F00001208DF83E002088ADF83C000025009531
:10A90000607C694605F036FD6E46A07C711C05F042
:10A9100031FDE07B00289DF8020002D040F00800E5
:10A9200001E020F008008DF80200217C11B140F018
:10A93000100001E020F010008DF80200217B11B121
:10A9400040F0010001E020F001008DF80200217DBF
:10A9500009B1022100E0012161F342008DF80200FB
:10A960001C2102A8FCF7DEFD607BC10601D4800635
:10A9700017D50E950EAFE07C791C05F0FBFC9DF819
:10A980003800079720F00F00401C20F0F000103036
:10A990008DF838009DF83A0020F00600801C8DF8F4
:10A9A0003A00607B8DF80800A07B8DF80900142127
:10A9B00009A8FCF7B7FD0FA8CDE90906A088ADF8F6
:10A9C0003000A06820B1E088ADF82C00A0680D90A0
:10A9D000A06998B301950088ADF81000A06901AD99
:10A9E00001A94088ADF81200A0694068069503905F
:10A9F000A069007B05F0BEFCA069691C407B05F0E6
:10AA0000B9FCA069807A00289DF8060002D040F0C9
:10AA1000080001E020F008008DF80600A169C97A5D
:10AA200011B140F0100001E020F010008DF8060098
:10AA3000A169097A19B140F0010002E00DE020F0AF
:10AA400001008DF80600A169897B09B1022100E0AF
:10AA5000012161F342008DF80600E06900B1059024
:10AA6000434609AA02A94846AADF11B0BDE8F0830F
:10AA700070B504464FF6FF750A462846AC4209D128
:10AA80004FF480742146104602F0DDF980B2A042F6
:10AA90000BD070BDFF2CFCD82146104602F0C3F944
:10AAA00090F0010F01D0204670BD284670BD000017
:10AAB00070B5084C050009D010342168002907D072
:10AAC00008682060496828468847F6E70834F4E7B4
:10AAD00070BD000094750120054A012120B10128B4
:10AAE00005D19170FFF7E4BF51700020FAE770477D
:10AAF0009475012073B58CB00646002000900D9827
:10AB000080B100246D4621460DA802F0C1F930B194
:10AB1000009805EB400084800098401C0090641C65
:10AB2000142CF0D32C2269463046FCF7D4FC0EB02E
:10AB300070BD2DE9F04117880646B81D14460D4634
:10AB4000984202D90C20BDE8F081318807220629FD
:10AB50000AD34FF4486C4FF6FF73614501D999420F
:10AB600002D17088062801D21046ECE7604501D971
:10AB70009842F9D1994203D0984201D08142F3D84A
:10AB80000520E85520881221401C80B220802954DD
:10AB90002088401C80B220804119308806F0C8F916
:10ABA0002188084480B220804119708806F0C0F9DD
:10ABB0002188084420800020C5E7FEF753B9000033
:10ABC00038B54A7A0F4B62B100220A7259690029DE
:10ABD00006D001228DF80020ADF8020068468847B3
:10ABE00038BD0A7A62B19B684C6802461946204615
:10ABF000FEF784F90028F3D0BDE8384005F0C2B96B
:10AC00005B68F1E718720120F0B585B016460F4673
:10AC100004461D4614220B496846FCF75CFC0A48B2
:10AC20008DF80870ADF80240ADF80A608DF80C5050
:10AC3000017800222046FEF795FF684600F0F6FBFB
:10AC400005B0F0BDF0C50500945A002038B50446A3
:10AC500043F2020559B9694603F09EFEA84202D0AC
:10AC600008B1FEF7FFF89DF80000800714D400211A
:10AC7000204603F09BFE00280ED011280CD00D2892
:10AC800007D00B2808D0A84206D0BDE83840FEF710
:10AC9000E9B81321204676DF38BD1FB500220092A7
:10ACA000ADF800100192ADF802100292039202AAD0
:10ACB000694690DF04B010BD70B5044686B01C48EC
:10ACC000012102F013F9BFF35F8F0026002821D184
:10ACD0000025204601F03DF968B1112812D08628E0
:10ACE0001AD0A0F54051023903D00146204605F0A4
:10ACF00051F9294607E006B029462046BDE87040D4
:10AD000001F0E8BD0121204601F0E4FDBFF35F8FB3
:10AD10000748066006B070BD142206496846FCF775
:10AD2000DAFBADF80240684600F04EFBE1E70000B8
:10AD3000485A0020F8C405002DE9FF410C4620B117
:10AD40004FF4064004B0BDE8F0812079002748F2B6
:10AD5000096538B141F61D5601281BD0022826D0BE
:10AD6000681DEFE70220207102970397E0680190C9
:10AD7000694601A804F06EFE50B102988188E18016
:10AD800000882081BDF80010029804F0E1FED9E7A8
:10AD90002846D7E70A4B6A460021A01D04F012FEA0
:10ADA00038B1074918398F61CF61A842CAD13046FE
:10ADB000C8E703488188019804F0CAFEF5E700005F
:10ADC000405B0020F0B587B00C46074616461421BC
:10ADD00001A8FCF7A7FBA07800B901208DF81A00A4
:10ADE0002088ADF8180006A80190A079694605F002
:10ADF000C1FA6D46E079691C05F0BCFAE0780028DC
:10AE00009DF8020002D040F0080001E020F00800A8
:10AE10008DF80200217911B140F0100001E020F01E
:10AE200010008DF80200617911B140F0010001E0DD
:10AE300020F001008DF80200217A09B1022100E022
:10AE4000012161F342008DF8020002956089ADF89E
:10AE50000C00A089ADF80E00E089ADF81000206963
:10AE60000590324601A93846ABDF07B0F0BD0000BF
:10AE700070B500240F4D10E0686800EBC406307810
:10AE800002F0CAFE7178012901D0012100E0002101
:10AE90004140307800F028FA641C28788442EBDBCB
:10AEA000D5E90401084303D0BDE8704005F0FABDC0
:10AEB00070BD0000105B0020FEB50126089C002537
:10AEC0008DE8700000F00AF8FEBDFEB50026DDE951
:10AED00008458DE8700000F001F8FEBD2DE9F05F37
:10AEE0008946824614461946104600F03BFD054649
:10AEF00000F036FD0646284600F030FD05F1020858
:10AF000007464FF0010B4FF0000524B347E0002443
:10AF10001DE000BF18F80510C4F107020BFA02F09B
:10AF2000014207D009EB050001B20AEB040000B2B0
:10AF30000A9A08E00C9840B909EB050001B20AEB47
:10AF4000040000B20B9A00F092F8641CE4B2B44220
:10AF5000E0D36D1CEDB2BD42D9D322E000241AE04B
:10AF6000082C21D218F81510C4F1070221E000BF07
:10AF700009EB050001B20AEB040000B20A9A06E0F0
:10AF800009EB050001B20AEB040000B20B9A00F0D5
:10AF90006EF8641CE4B2B442E2D36D1CEDB2BD4263
:10AFA000DCD33046BDE8F09F08EB4500C4F10F024A
:10AFB00041780BFA02F00142DAD10C980028DFD078
:10AFC000E7E700002DE9FF5F8A4614468346002626
:10AFD0006142012000EB41053FE000BF0AEB0400A5
:10AFE00001B20BEB060007B288463846039AFCF71D
:10AFF000BDFEAAEB040001B289463846039AFCF76D
:10B00000B5FEABEB060007B241463846039AFCF7A3
:10B01000ADFE49463846039AFCF7A8FE29194FF0C1
:10B02000FF3000EB4101002D05DA002903DC761C1E
:10B0300005EB46050AE0A91B00EB4100002D07DDEA
:10B04000002805DD641E604205EB40056D1C04E030
:10B05000761C301B05EB4005641E002CBEDABDE8F3
:10B06000FF9F38B5049C0094FCF74BFE38BDFCF7FD
:10B070007DBE2DE9FF4F83B00446DDE9109B00271C
:10B080000646DDF848A01D46884608202B78BBB14F
:10B090000A2B0CD00D2B0FD0BAF1000F14D0CDF825
:10B0A000009041462046059AFFF706FF13E008EBA3
:10B0B00000010FFA81F800E034466D1C002FE5D046
:10B0C00007B02046BDE8F08FCDE9009B4146204601
:10B0D000059AFFF7FAFE204404B22978059800F09B
:10B0E00041FC00F03BFC6D1CD0E7FCF79CBEF0B5CA
:10B0F0009DB01C4615460E46074623AB642103A8A7
:10B10000229AFDF7EDF8002001210094CDE901011C
:10B1100003AB2A4631463846FFF7ABFF1DB0F0BD02
:10B1200009490120096809B1002070470749CA6927
:10B13000002AF9D1044A283212688968491E8A42D5
:10B14000F3D102207047000080710120E4590020F3
:10B1500013460A460021FFF757BD00002DE9F843CA
:10B16000104D0F4680461E4691466946286801F0FC
:10B1700023FE040014D01C21FCF7D4F90120207117
:10B18000C4F81490380BC4F80080C4E90260694622
:10B19000286801F032FE04F091FB0020BDE8F8833E
:10B1A0000420FBE750C6050010B503780022072BEA
:10B1B00006D2DFE803F005040610202930000A70EB
:10B1C00010BD01230B7003898B818388CB81C068FC
:10B1D00088600A7410BD02220A7002898A818288FE
:10B1E000CA81C2688A60807D062802D00020087467
:10B1F00010BD0120FBE703220A70C2888A81028900
:10B20000CA81C068886010BD04230B70C088888123
:10B21000CA818A6010BD0520087010BD70B5064D4A
:10B220000646002455F8241009B130468847641CAE
:10B23000042CF7D370BD00000077012030B5044620
:10B24000006887B00D46806800281FD01821684626
:10B25000FCF768F90195A0680590207910B10128E4
:10B2600010D107E001208DF8000020690290E0680D
:10B27000039005E002208DF80000E06800030290D2
:10B2800060690490206881686846884707B030BDCF
:10B2900010B586B01446002924D0112922D00829DF
:10B2A00020D00D29024606D00C460721684601F041
:10B2B00037FD029413E00321684601F031FD24B10B
:10B2C0002078C00701D0012000E002208DF808009E
:10B2D00000208DF80C0041F20110ADF80A0068461C
:10B2E00000F0B2F806B010BD2DE9F84F0E46344913
:10B2F000804601EB5001C007097801D00F0901E039
:10B3000001F00F074FF00009424601204946FCF7C3
:10B31000D3F8DFF8B0A004460D46052F4ED2DFE883
:10B3200007F003161B282C00002E47D001214046B1
:10B3300005F05CFB8DF800906846FDF75FFE504617
:10B34000D0E904120C431543CAE9044532E00EB1BA
:10B35000022114E0002112E04EB10321404605F025
:10B3600045FB4046BDE8F84F012105F0A9BE01218B
:10B3700005E0002E22D1042101E02EB10321404638
:10B38000BDE8F84F05F032BB0021404605F02EFB2A
:10B390000021404605F094FE8DF800906846FDF7C8
:10B3A0002DFE5046E243D0E904341A4024EA050158
:10B3B000CAE904219DF80000FDF744FEBDE8F88FBE
:10B3C000B8760120105B002010B50446408801F0DB
:10B3D00035F8A080024801682046BDE810400847C3
:10B3E000445A002010B50446808800F071FF608048
:10B3F000024801682046BDE810400847545A002022
:10B400002DE9F04107460024064E074D05E000BF38
:10B4100056F8241038468847641CE8788442F7DBE5
:10B42000BDE8F081487501206C5A002010B5044633
:10B43000408801F003F8A080024801682046BDE87A
:10B4400010400847B0C505000149096808470000D9
:10B450001CC60500024900EB001001EB40007047DC
:10B4600024D10500A0F13001092909D800EBC00161
:10B4700001EB0010034901EB4000A0F51660704796
:10B480000020704724F30500A0F13001092907D8F6
:10B49000044900EB401001EB4000A0F54660704706
:10B4A0000020704718F50500024900EB800001EB11
:10B4B0004000704724C7050070B586B004461421CB
:10B4C0006846FCF72FF8A0890125A0F54040ADF8AB
:10B4D000040020782F4E062833D2DFE800F0320334
:10B4E00003032C4AA08900F0EBF930B9E08943F658
:10B4F000FE71A0F54040884223D8A07B8DF808005B
:10B50000207803280FD000208DF80900A068039050
:10B51000606850B109208DF80000606804906846AA
:10B5200002F07CFF0DE00120EEE708208DF800001E
:10B530008DF81050F3E7A08900F0C2F908B1E08956
:10B5400030B17078002801D003F074F806B070BDF7
:10B55000606830B10B208DF8000060680290757053
:10B56000DDE70A208DF80000BDF8040003F0F4F8D0
:10B57000F5E7606848B114208DF80000606802901B
:10B580004FF6FF70ADF80400C9E713208DF80000F6
:10B59000F6E70000585A002038B504460F480078F6
:10B5A000B0B1A4F57F40FF380FD0684604F0B6F87C
:10B5B00088B10521017001210171C480684604F041
:10B5C000BBF804F06DF9002038BD48F2036038BDC7
:10B5D00048F2016038BD48F2076038BD485B002082
:10B5E0000D4808B5007888B1684604F097F880B136
:10B5F00006210170684604F09FF80848017809B1F7
:10B600000121017304F04CF9002008BD48F20160EB
:10B6100008BD48F2076008BD485B0020C4770120E0
:10B62000F0B587B014216846FBF77CFF304C2078DA
:10B6300018B16846FFF7F2FD57E0201D01F03DFC10
:10B6400098BB40F6F8700168481C02D14FF01020FA
:10B6500041694FF08050026940694B1C01D100FBE9
:10B6600002F1244800220161A1F54051C160224944
:10B6700001F053FE002823D121481C238C221F49AE
:10B68000006801F086FB02F0EBFC050016D0022DED
:10B6900014D000270126062D14D005A804F03EF88A
:10B6A00098B106700C2D1BD200E01EE0DFE805F01B
:10B6B00018101810181718171812141248F20A60E8
:10B6C00007B0F0BD26706760B3E748F20760F7E7A0
:10B6D000077105E0032100E00221017100E006711D
:10B6E00005A804F029F804F0DBF80020E8E70000E2
:10B6F000485B0020A45B002060C605001077012095
:10B7000038C6050038B5040014D0694604F0A2F923
:10B71000B0B1BDF8000000EB80010B4800EB8100E8
:10B72000C16851B1A17A41B1C168491EC160002010
:10B73000A07238BD48F2046038BD48F2056038BDDB
:10B7400048F2096038BD00009C7701201FB501A9AF
:10B75000684604F037F904B010BD07B513460A4631
:10B760006946002004F02EF90EBD07B513460A46BF
:10B770000021684604F026F90EBD20B119B1006819
:10B7800008600020704748F204607047F8B50D4625
:10B79000040018D0BDB1694604F05CF9B0B1BDF841
:10B7A00000000C4900EB800001EB800001210C300F
:10B7B000666801F085FB2E6060680C3068600120CF
:10B7C000A0720020F8BD48F20460F8BD48F209609C
:10B7D000F8BD00009C77012018B10323002205F07A
:10B7E000E9BF48F2046070470223002205F0E2BF7F
:10B7F000094910B50A69042A0AD0084A096942F8B9
:10B80000210005480121103001F05AFB002010BD35
:10B8100048F20B6010BD0000285B0020007701207B
:10B820002DE9F84F044624480078D8B1F4B112212C
:10B830002046FBF777FE0320DFF88090208000256C
:10B8400004F1100804F10E0A05EB850109EB8106ED
:10B8500030897189084487B2706802F08BFB032835
:10B8600007D009E048F20160BDE8F88F48F20460B3
:10B87000FAE72088401E20806088F16808446080D4
:10B880002089718908442081608938446081C7F526
:10B890008060A18980B2814200D2A0815346A21D5E
:10B8A000211D2846CDF8008004F070F96D1CADB262
:10B8B000022DC9D30020D7E7485B00209C770120E8
:10B8C00043F6FE71A0F54040884201D80120704740
:10B8D0000020704710B504460078182802D1FEF702
:10B8E0001DF9207010BD10B504460078182802D14B
:10B8F000FEF714F9207010BD0AB101F0D4BA01F0BE
:10B9000087BA70B50D460446B0F81414D0F8100488
:10B910000122FDF7A3FD00B1057004F13C0204F51E
:10B92000826104F1540072DF70BD000070B51346EF
:10B9300000220546112900D10122074C33B121799B
:10B94000FEF710F900226178284600E06178BDE832
:10B950007040FEF707B900009C5A002040787047FD
:10B9600000787047024A52F820200846104700002D
:10B97000ACF70500F7B517460E0011D0009800256A
:10B9800060B100242146684601F082FA18B1A0B2E5
:10B990003946B0476D1C641C142CF3D32846FEBDF9
:10B9A0000020FEBD406803F0D9BE00000EB517A10F
:10B9B0009DF8080020F00F00401C20F0F00010302F
:10B9C0008DF808000C2202A87CDF08B1FDF74AFAC6
:10B9D000C02078DF08B1FDF745FA00200090019003
:10B9E0004FF4A071ADF80400ADF800104FF4C8702A
:10B9F0004FF40271ADF80600ADF8021068467ADF28
:10BA0000002801D0FDF72EFA0EBD00005A48445F11
:10BA100057617463685F4D310000000070B510B16C
:10BA20004FF4064070BD1C4C0025207B08B12573E7
:10BA300001E000F0A5F8207808282AD2DFE800F01D
:10BA40002904080C10291422BDE8704000F026B823
:10BA5000BDE8704000F082B8BDE8704000F064B806
:10BA6000BDE8704000F040B80620207060880A49A8
:10BA700000EB8000283901EB80004068BDE8704091
:10BA800002F0CEBA072020706560BDE8704002F079
:10BA9000D5BA48F20E6070BDC47701201149F0B4E8
:10BAA0008A1C00200346A1F128050C18A67A4EB185
:10BAB000A37200EB800405EB8404E66816B9247CCD
:10BAC000012C0AD0401C80B20228EED30B704B80B0
:10BAD0004B60F0BC41F61D5070471080F0BC00F088
:10BAE0003DB80000C47701200C48418801EB810279
:10BAF000A0F1280101EB8201CA6852B10521017051
:10BB0000074802218180016800230122054801F0D5
:10BB1000DDBB042202704968F6E70000C47701200B
:10BB2000505B0020A45B002038B50A490848032474
:10BB30000B684268898803EB810153880470DB1C21
:10BB400000201B0400909B0B034801F05DFC38BDF6
:10BB5000C4770120505B0020A45B0020074910B58A
:10BB60004888091D03F0C6FF18B1BDE81040FFF773
:10BB7000DBBFBDE81040FFF7B7BF0000C47701206E
:10BB800070B5194C0121207808281AD2DFE800F09E
:10BB90000419191C252929182089134A401C2081C1
:10BBA000002060802073283A00EB800312F82330D5
:10BBB00043B100232518401C80B2AB720228F3D396
:10BBC000217070BD0123F5E76068084940888A88C4
:10BBD000C01C10448880022004E000F009F8062010
:10BBE00000E00720207070BDC4770120505B00206A
:10BBF0000A4909484988026801EB81030749283945
:10BC000001EB83014B6803604A6082880A8102224B
:10BC10008280002008747047505B0020C4770120A8
:10BC20002DE9F04101888688434C86B005465029AD
:10BC30002CD006DC05F10A00352939D0362971D11E
:10BC400056E0522902D054296CD103E0304600F06E
:10BC50000DFE67E0142239496846FBF73CFCADF85D
:10BC60000260304600F0EAFBADF8040000F024F971
:10BC7000002221793046FDF775FF0022E178304639
:10BC8000FDF770FF6846FFF79FFB4BE0287B01281C
:10BC900048D1A87A012845D12889A0F52451023934
:10BCA00040D10121304600F015FE05F099F939E048
:10BCB0000746A1793046FDF73DFF98B30022A179F0
:10BCC0003046FDF74FFFE888B0F5857F08D038B9DA
:10BCD0007888012804D1B98800223046A1DF08B154
:10BCE00000211CE00122E1793046FDF73BFF19E01D
:10BCF00007464FF00008E1793046FDF71BFF88B199
:10BD00000022E1793046FDF72DFFE88830B9B88888
:10BD1000012803D1B87900B1012080464146304660
:10BD200004F07CFE00220649A078FDF79DFE06B0D7
:10BD3000BDE8F04104F0C6B93C5A002020C505001A
:10BD4000F990020070B504460078002814D160888C
:10BD500000F08CFD6588284600F048F928B10748B6
:10BD60000122C1782846FDF7FDFE6088FEF71AFD26
:10BD7000BDE8704005F034B970BD00003C5A0020A9
:10BD800070B51B4C00252570FDF7C8FE6070FDF7EF
:10BD9000C5FEA070FDF7C2FEE070FDF7BFFE20718A
:10BDA000FDF7BCFE6071FDF7B9FEA071FDF7B6FEB0
:10BDB000E0716178182919D0A178182916D0E17896
:10BDC000182913D02179182910D0617918290DD09C
:10BDD000A17918290AD0182808D004F10C000560B0
:10BDE000BFF35F8F01202070002070BD032070BD65
:10BDF0003C5A00207CB504460078082837D1607A88
:10BE000058BB207A1C4E4FF6FF75012811D0072829
:10BE100002D008282BD121E0A08800F059FA04466E
:10BE2000A84224D0012100F055FD2046FEF7BAFCBF
:10BE30001DE0A0886A46012102F04EFA68B9019817
:10BE4000007850B1A08800F043FAA8420FD0012238
:10BE5000F178FDF787FE04F035F908E0F068012875
:10BE600005D1BFF35F8F044900200C310860BDE8A5
:10BE70007C4005F0B5B800003C5A002010B5C0B2B7
:10BE8000FEF778FC0446007801F0C6FE01466078B3
:10BE9000012801D0012000E0002090EA010F08D025
:10BEA0000449D1E90401084303D1BDE8104004F07E
:10BEB000F9BD10BD105B00201CB5054AD2E9021285
:10BEC000CDE900120022694602F058FB1CBD0000BB
:10BED00038C5050003484FF6FF71818001210170CC
:10BEE000002070474C5A00202DE9FC41804600F0AC
:10BEF000A5FA002403250127A0F57F412646FF3936
:10BF000008D06A46082102F0E7F918B90198841DA3
:10BF10008688056832462B4621464046B1DF042814
:10BF200004D0082804D00B2808D002E0112000E03B
:10BF30000020002F00D10B20BDE8FC810027A807BE
:10BF400001D50125E6E73443F5D000242646032534
:10BF5000E0E72DE9FC41804600F070FA0646A0F5C6
:10BF60007F40FF380ED001252A466D1C0027ADB258
:10BF70006B460821304602F0CFF9040006D0072CAA
:10BF800025D025E043F20200BDE8FC81019903239E
:10BF90000A1D0B604046891DB2DF040004D00C2C42
:10BFA00009D0052C09D009E032460821104602F0DC
:10BFB00019FA04460CE0012700E00024082130466D
:10BFC00002F006FA00B10324002FCDD100E00C24CA
:10BFD0002046D9E704488088A0F57F41FF3901D089
:10BFE00004F07AB8704700004C5A00200EB502A940
:10BFF000019100F023FA6A46012102F06DF908B1BF
:10C0000000200EBD019800780EBD00002DE9F04122
:10C0100007464FF6FF760A48B3DF10B10320BDE8AC
:10C02000F081074C43F20305A41E3246618838466E
:10C03000AFDFA842F3D16088401C6080F5E70000C4
:10C040004E5A0020428800EB82020C328A4201D90B
:10C05000022070478188A1F57F42FF3A06D001880F
:10C0600021B18068401C01D000207047012070473A
:10C07000884204D20068401C01D001207047002093
:10C080007047000010B51249124804F00EF8114C28
:10C0900081B22C3CA068401CA0600F48FDF7E6FF71
:10C0A00058B1082809D0132807D0112805D043F229
:10C0B0000141884201D0FCF7D5FEA0680321B0FB06
:10C0C000F1F201FB120000B10120207010BD000050
:10C0D00080600020A4590020CC5B00202DE9F041B5
:10C0E000044640799046002500B1042594F82200CA
:10C0F00008B145F00205CAB2FF2908D9090A88F833
:10C10000012045F0010588F80210032602E088F8B6
:10C1100001200226B4F84C0008B145F010050027B4
:10C120001BE000BF94F84E10B21C91420BD2B4F841
:10C130004C0004EB4701C01B420004F124002431F1
:10C14000FBF7C9F90DE004EB470008EB0601808C12
:10C150000870000A4870D6B27F1CB4F84C00B84290
:10C16000E0DC34F84C0FC01B208088F800503046CB
:10C17000BDE8F0813EB5027802230C46B3EB520FC6
:10C1800017D1B0F80110ADF80010C1788DF8021089
:10C190008188ADF8041080798DF8060002AA01A903
:10C1A0002046FCF7C3FD032202A96846FBF7CCF941
:10C1B00008B100203EBD01203EBD000070B50D4617
:10C1C0000446142810D2FDF7E9FC68B1084904EBD5
:10C1D000840001EB4000D0F802102960C188A980DA
:10C1E000007AA871002070BD43F2020070BD00000B
:10C1F000B072012070B5018890B0102961D1011D85
:10C200002C226846FBF767F99DF804004FF6FF768D
:10C2100003213446B1EB500F2BD002F06DF99DF89D
:10C2200004006D4640080ED001280CD0022820D111
:10C2300018E00D99281D1131FCF71BFD18B100BF46
:10C24000BDF82C4015E00CAA0BA9072002F028F934
:10C250000028EED10DE00D99281D491CFFF78AFF3B
:10C260000028EDD10CAA0BA9072002F019F900282B
:10C27000F1D1BDF80000B44200EB8001124820F873
:10C28000114000EB41000199C0F80210BDF8081000
:10C29000C1809DF80A10017213D0BDF80000ADF8FE
:10C2A0002E000020ADF83040084E8DF82C000BAD6C
:10C2B000044600BF56F8241028468847641C022C08
:10C2C000F8D310B070BD0000B07201204CC505005D
:10C2D0002DE9F0414FF6FF760546B04213D00B4FE3
:10C2E000002400BF04EB840037F81000A84206D1F8
:10C2F0002046FDF753FC10B12046BDE8F081641CD8
:10C30000A4B2142CEED33046F7E70000B07201203F
:10C310003EB50C46054602F0EFF80BE0BDF8000014
:10C32000A04207D02846029900F00EF810B1BDF8DF
:10C3300000003EBD01AA6946072002F0B1F80028BE
:10C34000ECD14FF6FF703EBD2DE9F0410C4605469D
:10C3500000F1110701F111061022491C401CFBF7E6
:10C36000F3F848B9681C00F09BF928B1601C00F094
:10C3700097F908B1012400E0002431463846FCF763
:10C3800078FC3B780222B2EB530F0CD00321B1EBC7
:10C39000530F08D03378B2EB530F04D0B1EB530FE7
:10C3A00001D0012100E00021084201D18C4302D0DC
:10C3B0000120BDE8F0810020FBE7018811B9421897
:10C3C00092780AB101207047491C0829F7D3002050
:10C3D000704710B50C460346FFF7EFFF00280AD060
:10C3E00018882188884205D10822A11C981CFBF7D7
:10C3F000ABF808B1002010BD012010BD142804D2F4
:10C40000024A00EB800022F810107047B072012041
:10C4100070B50546FFF75CFF0446284601F05FFF54
:10C42000002808D1142C06D2034B04EB84024FF6EB
:10C43000FF7123F8121070BDB072012010B50446D0
:10C44000142808D2FDF7AAFB28B1044904EB8400A4
:10C4500031F8100010BD4FF6FF7010BDB072012012
:10C460003EB5044602F048F80EE0019920464631F8
:10C47000FFF7AFFF28B9019920462A31FFF7A9FF3E
:10C4800010B1BDF808003EBD6A4602A9072002F0BF
:10C4900007F80028E9D14FF6FF703EBD10B50A49F4
:10C4A00041600A4800F009FD58B901F041FA074916
:10C4B0001C238C22087404488C39001F006800F08B
:10C4C00068FC002010BD000054C6050070780120F3
:10C4D0002DE9F0412D4F002520B17D604FF406403D
:10C4E000BDE8F0810879012258B1294E01280CD00D
:10C4F000264C4FF002080834022820D0032841D1EE
:10C5000027E00A7101F09AFD3AE0002000EB80017B
:10C5100016F82110022908D0401C80B20228F5D359
:10C520003A707D6041F61D50DAE700EB800006F8B6
:10C53000205006EB8000406801F072FD20E00D7194
:10C54000A4F80480002301221248216800F0BEFEF6
:10C5500016E00D71206801F063FD0D492368283154
:10C56000498801EB810206EB8201D1F804C0C4F8CE
:10C5700000C04B60A3880B81A4F8048006F8225009
:10C580000028ADD07D6048F20D60A9E7485B00202F
:10C590009C770120A45B00200146034802888A4260
:10C5A00000D0002070470000047201202DE9F04106
:10C5B0000B3020F00706104D19E02068B04215D36B
:10C5C000B0420AD9871B201DD4F80480FAF783FFF4
:10C5D000A019C0E90078286004E060682860201D88
:10C5E000FAF779FF201D2660BDE8F081251D2C6833
:10C5F000002CE2D10020F7E79C5B0020F8B50E4646
:10C6000004464FF48C7101F0ECF900281DD0002590
:10C61000C4F81851D4F81801009096F82000344658
:10C62000FF2808D0A17F31B9E17F11B100F0B0FF40
:10C6300001E001F028F865772572D4E9002101B006
:10C6400004F10800BDE8F0401047F8BD0248007A48
:10C65000002800D00120704770780120F0B5848850
:10C66000A518944200D82246A41AC288D6189A4225
:10C6700000D81346D21A4B880788BB420CD3408897
:10C68000834209D88888A04206D3A84204D8C88823
:10C69000904201D3B04201D90020F0BD0120F0BD8D
:10C6A0000021425C0AB101207047491C1029F8D3CF
:10C6B00000207047800701D000207047012070479C
:10C6C0000268134602E08A4204D01268002AFAD1B6
:10C6D0000B600160704700000A4810B5807860B1B7
:10C6E000002401E0022C06D02046FDF70BFE641C5E
:10C6F000042CF7D310BD0324F6E7BDE81040FDF786
:10C7000025BE0000C059002003480179C90702D0A6
:10C710000078FDF757BF7047C059002017210180EE
:10C7200041800021017141711B218171C1717047EC
:10C730002DE9FE4F254F984691460D00824601D0C7
:10C7400000260DE0684600F0E1FA6A4600215046F6
:10C7500001F03EFD3878009E10B99DF8090098B1AF
:10C760004A463146504603F0C3FF044601460022C4
:10C770005046FFF7DBF80D2C26D008DC24B3082C3C
:10C7800022D00B2C09D11FE00520BDE8FE8F112C13
:10C790000ED0A4F54050023816D00325B8F1000F92
:10C7A00004D0324621465046FEF772FD2846ECE79B
:10C7B0002A46F9785046FDF7D5F94A46B9785046E9
:10C7C000FDF7D0F90025E9E72546E7E79C5A002068
:10C7D0002DE9F041194F0E46154604463978FDF70C
:10C7E000A9F9002827D0204601F0D2FCE0B120466C
:10C7F000B978FDF79FF908B1012700E0022704F599
:10C80000807080B2072101F0E3FD010004D005290A
:10C8100002D0204603F0D2FB2B4632463946204652
:10C82000BDE8F041FEF7F0B92A4631462046BDE8A2
:10C83000F041FEF78DBCBDE8F0810000945A002065
:10C8400070B5094D0646A978FDF774F90446E978F4
:10C850003046FDF76FF9014622463046BDE870408C
:10C860000123FFF765BF00009C5A002030B585B05A
:10C870000546002414216846FAF754FEA5F57F40CA
:10C88000ADF80250FF3815D02846FFF72DFB98B1C0
:10C890000B2815D0112811D0A0F54051023903D032
:10C8A0000146284603F076FB09482246817828464F
:10C8B000FDF758F905B030BD0E2002E00124F3E782
:10C8C0000F208DF800006846FEF77EFDECE70000C3
:10C8D0003C5A00200A4602494978FDF743B9000056
:10C8E0003C5A0020ADF5AD6D1C200090684600F06C
:10C8F00063FE0099032500EB8100C0F800571C205F
:10C900000090684600F058FE009A012404FA02F1F3
:10C91000C0F80C154FF42F7000F054FC00F072FCBE
:10C9200008B1FCF79FFA03F0D5FFA448016841F075
:10C930000401016000F096FF08B1FCF793FA0026AD
:10C9400069460120009600F0E9FE08B1FCF78AFA7A
:10C95000684600F025FF08B1FCF784FA04F0AEF851
:10C9600097490320FDF7E4FD08B1FCF77BFA69461F
:10C970000020FDF70FFD08B1FCF774FA9DF80000E8
:10C9800002287DD05FF000008DF86005FFF70EF8FB
:10C9900000218C4800F0C3FA08B1FCF763FAAC211F
:10C9A0000DF2B440FAF7BEFD02208DF8B4048DF804
:10C9B000B64406208DF8B7048348CDF8C804ADF816
:10C9C000C4544FF49670CDF83C0544F25060CDF855
:10C9D00040058DF830457D48CDF8580579480DF271
:10C9E000B4412030FCF770FD08B1FCF73BFA754804
:10C9F00001212030FCF765FD03F068FC03F0FEFA2E
:10CA00001C210DF2B440FAF78DFD41F28830CDF8CB
:10CA1000B80447F23050CDF8BC046A48CDF8B4648D
:10CA200050388DF8C0548089ADF8C2046848CDF8FC
:10CA3000C8046848CDF8CC048DF8C4640DF2B44045
:10CA4000FCF7C8FF08B1FCF70DFA01F0CBFEFCF7CC
:10CA500013FB5D4A60493A3A02F11A00FBF7C4FA47
:10CA6000FBF709FA1F20FEF740FBF0253624A94604
:10CA700000260DF1040B0DF5357A05EB450700E0B6
:10CA80009AE056483A46011901A8FAF724FD002019
:10CA90003C4401464FEA0B0212F80080401C12F899
:10CAA00000C0401C0CF0FC0C135C401C03F0F803AD
:10CAB0001B0243EACC0343EAD80C2AF811C0491CF4
:10CAC000A942E9D3A9EB0600401E01B201232A4680
:10CAD0000020CDF800A0FEF7C4FA761C4E45CED358
